{
	"data": {
		"bytecode": {
			"linkReferences": {},
			"object": "6080604052731878fdf13b77546039da7536046f386fe696890b600560006101000a81548173ffffffffffffffffffffffffffffffffffffffff021916908373ffffffffffffffffffffffffffffffffffffffff160217905550739aac0e94c973a4c643e03bfef0fe4b8063aa5b51600660006101000a81548173ffffffffffffffffffffffffffffffffffffffff021916908373ffffffffffffffffffffffffffffffffffffffff160217905550600060095564037e11d600600b5573ddcee1328c102a1880f4664350547f7421aec3fe600c60006101000a81548173ffffffffffffffffffffffffffffffffffffffff021916908373ffffffffffffffffffffffffffffffffffffffff16021790555073d4dce63a35f2570644538a7821d604195e83475d600d60006101000a81548173ffffffffffffffffffffffffffffffffffffffff021916908373ffffffffffffffffffffffffffffffffffffffff16021790555073ee7fb5f3770709cbd8def09137985f09bedde544600e60006101000a81548173ffffffffffffffffffffffffffffffffffffffff021916908373ffffffffffffffffffffffffffffffffffffffff16021790555073db450cb548568f4faa3d814d86c628056f765308600f60006101000a81548173ffffffffffffffffffffffffffffffffffffffff021916908373ffffffffffffffffffffffffffffffffffffffff16021790555073b7b92f9e9e9e525e25d51767bf17a719e1fe418b601060006101000a81548173ffffffffffffffffffffffffffffffffffffffff021916908373ffffffffffffffffffffffffffffffffffffffff16021790555073b31a5b71af940b03a224ab33e0b6b34d1feba4d4601160006101000a81548173ffffffffffffffffffffffffffffffffffffffff021916908373ffffffffffffffffffffffffffffffffffffffff160217905550736e2b9eab334eece13fbd8daf6f096c07fbef7828601260006101000a81548173ffffffffffffffffffffffffffffffffffffffff021916908373ffffffffffffffffffffffffffffffffffffffff160217905550737fdcb42386032a7410db83d97f47b10c7dd531d0601360006101000a81548173ffffffffffffffffffffffffffffffffffffffff021916908373ffffffffffffffffffffffffffffffffffffffff1602179055507364b7992949e383ce6d4999d0e8efec66b5e9be09601460006101000a81548173ffffffffffffffffffffffffffffffffffffffff021916908373ffffffffffffffffffffffffffffffffffffffff160217905550739c3cb850fca46f6e247e49c0c7fb4b71d37f9989601560006101000a81548173ffffffffffffffffffffffffffffffffffffffff021916908373ffffffffffffffffffffffffffffffffffffffff16021790555073da31c02ddd4543f835657564ce03b420c122c575601660006101000a81548173ffffffffffffffffffffffffffffffffffffffff021916908373ffffffffffffffffffffffffffffffffffffffff1602179055507306f65b1a13fa387b2e461272c3cddae58e9f0a13601760006101000a81548173ffffffffffffffffffffffffffffffffffffffff021916908373ffffffffffffffffffffffffffffffffffffffff16021790555073aa41bba8033cc1cfdc52240248381b4eefe3bd72601860006101000a81548173ffffffffffffffffffffffffffffffffffffffff021916908373ffffffffffffffffffffffffffffffffffffffff16021790555073651f50890525d7a9f6aafae398fa55977ddd47f8601960006101000a81548173ffffffffffffffffffffffffffffffffffffffff021916908373ffffffffffffffffffffffffffffffffffffffff1602179055506000601a553480156200057457600080fd5b506040518060400160405280600a81526020017f576f726b6f7574417070000000000000000000000000000000000000000000008152506040518060400160405280600381526020017f57525400000000000000000000000000000000000000000000000000000000008152508160039081620005f2919062000c97565b50806004908162000604919062000c97565b505050600773a60a4fe0591017233ab3b3b7de028db23fa483009080600181540180825580915050600190039060005260206000200160009091909190916101000a81548173ffffffffffffffffffffffffffffffffffffffff021916908373ffffffffffffffffffffffffffffffffffffffff160217905550600773ea25957c982e646d807cabda58bcc0b14535da959080600181540180825580915050600190039060005260206000200160009091909190916101000a81548173ffffffffffffffffffffffffffffffffffffffff021916908373ffffffffffffffffffffffffffffffffffffffff16021790555060005b6007805490508110156200084a57600860006007838154811062000721576200072062000d7e565b5b9060005260206000200160009054906101000a900473ffffffffffffffffffffffffffffffffffffffff1673ffffffffffffffffffffffffffffffffffffffff1673ffffffffffffffffffffffffffffffffffffffff16815260200190815260200160002060405180604001604052806001151581526020016040518060400160405280600a81526020017f4d41494e5f4f574e455200000000000000000000000000000000000000000000815250815250908060018154018082558091505060019003906000526020600020906002020160009091909190915060008201518160000160006101000a81548160ff021916908315150217905550602082015181600101908162000833919062000c97565b50505080620008429062000ddc565b9050620006f8565b506200088c33620008606200089260201b60201c565b60ff16600a62000871919062000f7d565b600b5462000880919062000fce565b6200089b60201b60201c565b62001105565b60006012905090565b600073ffffffffffffffffffffffffffffffffffffffff168273ffffffffffffffffffffffffffffffffffffffff16036200090d576040517f08c379a000000000000000000000000000000000000000000000000000000000815260040162000904906200107a565b60405180910390fd5b620009216000838362000a1360201b60201c565b80600260008282546200093591906200109c565b92505081905550806000808473ffffffffffffffffffffffffffffffffffffffff1673ffffffffffffffffffffffffffffffffffffffff16815260200190815260200160002060008282546200098c91906200109c565b925050819055508173ffffffffffffffffffffffffffffffffffffffff16600073ffffffffffffffffffffffffffffffffffffffff167fddf252ad1be2c89b69c2b068fc378daa952ba7f163c4a11628f55a4df523b3ef83604051620009f39190620010e8565b60405180910390a362000a0f6000838362000a1860201b60201c565b5050565b505050565b505050565b600081519050919050565b7f4e487b7100000000000000000000000000000000000000000000000000000000600052604160045260246000fd5b7f4e487b7100000000000000000000000000000000000000000000000000000000600052602260045260246000fd5b6000600282049050600182168062000a9f57607f821691505b60208210810362000ab55762000ab462000a57565b5b50919050565b60008190508160005260206000209050919050565b60006020601f8301049050919050565b600082821b905092915050565b60006008830262000b1f7fffffffffffffffffffffffffffffffffffffffffffffffffffffffffffffffff8262000ae0565b62000b2b868362000ae0565b95508019841693508086168417925050509392505050565b6000819050919050565b6000819050919050565b600062000b7862000b7262000b6c8462000b43565b62000b4d565b62000b43565b9050919050565b6000819050919050565b62000b948362000b57565b62000bac62000ba38262000b7f565b84845462000aed565b825550505050565b600090565b62000bc362000bb4565b62000bd081848462000b89565b505050565b5b8181101562000bf85762000bec60008262000bb9565b60018101905062000bd6565b5050565b601f82111562000c475762000c118162000abb565b62000c1c8462000ad0565b8101602085101562000c2c578190505b62000c4462000c3b8562000ad0565b83018262000bd5565b50505b505050565b600082821c905092915050565b600062000c6c6000198460080262000c4c565b1980831691505092915050565b600062000c87838362000c59565b9150826002028217905092915050565b62000ca28262000a1d565b67ffffffffffffffff81111562000cbe5762000cbd62000a28565b5b62000cca825462000a86565b62000cd782828562000bfc565b600060209050601f83116001811462000d0f576000841562000cfa578287015190505b62000d06858262000c79565b86555062000d76565b601f19841662000d1f8662000abb565b60005b8281101562000d495784890151825560018201915060208501945060208101905062000d22565b8683101562000d69578489015162000d65601f89168262000c59565b8355505b6001600288020188555050505b505050505050565b7f4e487b7100000000000000000000000000000000000000000000000000000000600052603260045260246000fd5b7f4e487b7100000000000000000000000000000000000000000000000000000000600052601160045260246000fd5b600062000de98262000b43565b91507fffffffffffffffffffffffffffffffffffffffffffffffffffffffffffffffff820362000e1e5762000e1d62000dad565b5b600182019050919050565b60008160011c9050919050565b6000808291508390505b600185111562000e885780860481111562000e605762000e5f62000dad565b5b600185161562000e705780820291505b808102905062000e808562000e29565b945062000e40565b94509492505050565b60008262000ea3576001905062000f76565b8162000eb3576000905062000f76565b816001811462000ecc576002811462000ed75762000f0d565b600191505062000f76565b60ff84111562000eec5762000eeb62000dad565b5b8360020a91508482111562000f065762000f0562000dad565b5b5062000f76565b5060208310610133831016604e8410600b841016171562000f475782820a90508381111562000f415762000f4062000dad565b5b62000f76565b62000f56848484600162000e36565b9250905081840481111562000f705762000f6f62000dad565b5b81810290505b9392505050565b600062000f8a8262000b43565b915062000f978362000b43565b925062000fc67fffffffffffffffffffffffffffffffffffffffffffffffffffffffffffffffff848462000e91565b905092915050565b600062000fdb8262000b43565b915062000fe88362000b43565b925082820262000ff88162000b43565b9150828204841483151762001012576200101162000dad565b5b5092915050565b600082825260208201905092915050565b7f45524332303a206d696e7420746f20746865207a65726f206164647265737300600082015250565b600062001062601f8362001019565b91506200106f826200102a565b602082019050919050565b60006020820190508181036000830152620010958162001053565b9050919050565b6000620010a98262000b43565b9150620010b68362000b43565b9250828201905080821115620010d157620010d062000dad565b5b92915050565b620010e28162000b43565b82525050565b6000602082019050620010ff6000830184620010d7565b92915050565b61531a80620011156000396000f3fe608060405234801561001057600080fd5b506004361061021c5760003560e01c806370a0823111610125578063a9059cbb116100ad578063d83623dd1161007c578063d83623dd14610660578063dab950a71461066a578063dd62ed3e14610688578063ea4f74d7146106b8578063fff5982b146106d65761021c565b8063a9059cbb146105c4578063a94beee2146105f4578063c421539814610612578063c8bbe68d146106305761021c565b806395d89b41116100f457806395d89b411461051b578063973ea9d5146105395780639eae005f14610557578063a1b140b614610575578063a457c2d7146105945761021c565b806370a08231146104a7578063742887ff146104d75780638a190c01146104f35780638db351d9146104fd5761021c565b80633891786b116101a85780634811c070116101775780634811c070146103ed5780635652e6ca1461040b5780635b9de1d3146104295780636735b3a7146104475780636c9cd097146104775761021c565b80633891786b1461036557806338eada1c14610383578063395093511461039f5780633da3364d146103cf5761021c565b806320c09e24116101ef57806320c09e24146102ab578063230b3790146102c957806323b872dd146102f957806325c722bb14610329578063313ce567146103475761021c565b806306fdde0314610221578063095ea7b31461023f57806310069f3e1461026f57806318160ddd1461028d575b600080fd5b6102296106f4565b6040516102369190613c4b565b60405180910390f35b61025960048036038101906102549190613d15565b610786565b6040516102669190613d70565b60405180910390f35b6102776107a4565b6040516102849190613d9a565b60405180910390f35b6102956107ca565b6040516102a29190613dc4565b60405180910390f35b6102b36107d4565b6040516102c09190613d9a565b60405180910390f35b6102e360048036038101906102de9190613ddf565b6107fa565b6040516102f09190613d70565b60405180910390f35b610313600480360381019061030e9190613e0c565b61095a565b6040516103209190613d70565b60405180910390f35b610331610a79565b60405161033e9190613d9a565b60405180910390f35b61034f610a9f565b60405161035c9190613e7b565b60405180910390f35b61036d610aa8565b60405161037a9190613d70565b60405180910390f35b61039d60048036038101906103989190613ddf565b610b69565b005b6103b960048036038101906103b49190613d15565b610e95565b6040516103c69190613d70565b60405180910390f35b6103d7610f41565b6040516103e49190613d9a565b60405180910390f35b6103f5610f67565b6040516104029190613d9a565b60405180910390f35b610413610f8d565b6040516104209190613d9a565b60405180910390f35b610431610fb3565b60405161043e9190613d9a565b60405180910390f35b610461600480360381019061045c9190613fcb565b610fd9565b60405161046e9190613d70565b60405180910390f35b610491600480360381019061048c9190613fcb565b6113ba565b60405161049e9190613d70565b60405180910390f35b6104c160048036038101906104bc9190613ddf565b611721565b6040516104ce9190613dc4565b60405180910390f35b6104f160048036038101906104ec9190613ddf565b611769565b005b6104fb611a1a565b005b610505611c5c565b6040516105129190613d9a565b60405180910390f35b610523611c82565b6040516105309190613c4b565b60405180910390f35b610541611d14565b60405161054e9190613d9a565b60405180910390f35b61055f611d3a565b60405161056c9190613c4b565b60405180910390f35b61057d612017565b60405161058b929190614027565b60405180910390f35b6105ae60048036038101906105a99190613d15565b612171565b6040516105bb9190613d70565b60405180910390f35b6105de60048036038101906105d99190613d15565b61225c565b6040516105eb9190613d70565b60405180910390f35b6105fc61227a565b6040516106099190613d9a565b60405180910390f35b61061a6122a0565b6040516106279190613d9a565b60405180910390f35b61064a60048036038101906106459190613fcb565b6122c6565b6040516106579190613d70565b60405180910390f35b6106686125e7565b005b610672612bb8565b60405161067f9190613d9a565b60405180910390f35b6106a2600480360381019061069d9190614050565b612bde565b6040516106af9190613dc4565b60405180910390f35b6106c0612c65565b6040516106cd9190613d9a565b60405180910390f35b6106de612c8b565b6040516106eb9190613d9a565b60405180910390f35b606060038054610703906140bf565b80601f016020809104026020016040519081016040528092919081815260200182805461072f906140bf565b801561077c5780601f106107515761010080835404028352916020019161077c565b820191906000526020600020905b81548152906001019060200180831161075f57829003601f168201915b5050505050905090565b600061079a610793612cb1565b8484612cb9565b6001905092915050565b601260009054906101000a900473ffffffffffffffffffffffffffffffffffffffff1681565b6000600254905090565b601560009054906101000a900473ffffffffffffffffffffffffffffffffffffffff1681565b6000600560009054906101000a900473ffffffffffffffffffffffffffffffffffffffff1673ffffffffffffffffffffffffffffffffffffffff168273ffffffffffffffffffffffffffffffffffffffff1614806108a55750600660009054906101000a900473ffffffffffffffffffffffffffffffffffffffff1673ffffffffffffffffffffffffffffffffffffffff168273ffffffffffffffffffffffffffffffffffffffff16145b156108b35760019050610955565b60005b60078054905081101561094f578273ffffffffffffffffffffffffffffffffffffffff16600782815481106108ee576108ed6140f0565b5b9060005260206000200160009054906101000a900473ffffffffffffffffffffffffffffffffffffffff1673ffffffffffffffffffffffffffffffffffffffff160361093e576001915050610955565b806109489061414e565b90506108b6565b50600090505b919050565b600080600160008673ffffffffffffffffffffffffffffffffffffffff1673ffffffffffffffffffffffffffffffffffffffff16815260200190815260200160002060006109a6612cb1565b73ffffffffffffffffffffffffffffffffffffffff1673ffffffffffffffffffffffffffffffffffffffff1681526020019081526020016000205490507fffffffffffffffffffffffffffffffffffffffffffffffffffffffffffffffff8114610a625782811015610a4d576040517f08c379a0000000000000000000000000000000000000000000000000000000008152600401610a4490614208565b60405180910390fd5b610a6185610a59612cb1565b858403612cb9565b5b610a6d858585612e82565b60019150509392505050565b600f60009054906101000a900473ffffffffffffffffffffffffffffffffffffffff1681565b60006012905090565b6000600560009054906101000a900473ffffffffffffffffffffffffffffffffffffffff1673ffffffffffffffffffffffffffffffffffffffff163373ffffffffffffffffffffffffffffffffffffffff161480610b535750600660009054906101000a900473ffffffffffffffffffffffffffffffffffffffff1673ffffffffffffffffffffffffffffffffffffffff163373ffffffffffffffffffffffffffffffffffffffff16145b15610b615760019050610b66565b600090505b90565b600560009054906101000a900473ffffffffffffffffffffffffffffffffffffffff1673ffffffffffffffffffffffffffffffffffffffff163373ffffffffffffffffffffffffffffffffffffffff161480610c125750600660009054906101000a900473ffffffffffffffffffffffffffffffffffffffff1673ffffffffffffffffffffffffffffffffffffffff163373ffffffffffffffffffffffffffffffffffffffff16145b610c313373ffffffffffffffffffffffffffffffffffffffff16613101565b604051602001610c4191906142b0565b60405160208183030381529060405290610c91576040517f08c379a0000000000000000000000000000000000000000000000000000000008152600401610c889190613c4b565b60405180910390fd5b50610c9d8160016132e3565b15610e8657610cad8160016133d9565b15610e4957610cbd816001613672565b6007819080600181540180825580915050600190039060005260206000200160009091909190916101000a81548173ffffffffffffffffffffffffffffffffffffffff021916908373ffffffffffffffffffffffffffffffffffffffff160217905550600860008273ffffffffffffffffffffffffffffffffffffffff1673ffffffffffffffffffffffffffffffffffffffff16815260200190815260200160002060405180604001604052806001151581526020016040518060400160405280600a81526020017f4d41494e5f4f574e455200000000000000000000000000000000000000000000815250815250908060018154018082558091505060019003906000526020600020906002020160009091909190915060008201518160000160006101000a81548160ff0219169083151502179055506020820151816001019081610e0a919061447e565b5050507fd2754bb25f80d82f28983daef636e09dd633511ed87d9a247d9982c495912dd381604051610e3c919061459c565b60405180910390a1610e81565b7fe8faadd3ea95010cee81735cf90a770207add83d51e5309c696f9c23ec5d75cd81604051610e789190614616565b60405180910390a15b610e92565b610e918160016138ba565b5b50565b6000610f37610ea2612cb1565b848460016000610eb0612cb1565b73ffffffffffffffffffffffffffffffffffffffff1673ffffffffffffffffffffffffffffffffffffffff16815260200190815260200160002060008873ffffffffffffffffffffffffffffffffffffffff1673ffffffffffffffffffffffffffffffffffffffff16815260200190815260200160002054610f329190614644565b612cb9565b6001905092915050565b601160009054906101000a900473ffffffffffffffffffffffffffffffffffffffff1681565b601660009054906101000a900473ffffffffffffffffffffffffffffffffffffffff1681565b600e60009054906101000a900473ffffffffffffffffffffffffffffffffffffffff1681565b601860009054906101000a900473ffffffffffffffffffffffffffffffffffffffff1681565b600061101a6040518060400160405280600c81526020017f43414e5f4144445f524f4c450000000000000000000000000000000000000000815250336113ba565b6110393373ffffffffffffffffffffffffffffffffffffffff16613101565b60405160200161104991906146c4565b60405160208183030381529060405290611099576040517f08c379a00000000000000000000000000000000000000000000000000000000081526004016110909190613c4b565b60405180910390fd5b5060005b600860008473ffffffffffffffffffffffffffffffffffffffff1673ffffffffffffffffffffffffffffffffffffffff1681526020019081526020016000208054905081116112bd576000600860008573ffffffffffffffffffffffffffffffffffffffff1673ffffffffffffffffffffffffffffffffffffffff1681526020019081526020016000208281548110611139576111386140f0565b5b90600052602060002090600202016001018054611155906140bf565b80601f0160208091040260200160405190810160405280929190818152602001828054611181906140bf565b80156111ce5780601f106111a3576101008083540402835291602001916111ce565b820191906000526020600020905b8154815290600101906020018083116111b157829003601f168201915b50505050509050846040516020016111e691906146e6565b604051602081830303815290604052805190602001208160405160200161120d91906146e6565b60405160208183030381529060405280519060200120036112ab576001600860008673ffffffffffffffffffffffffffffffffffffffff1673ffffffffffffffffffffffffffffffffffffffff168152602001908152602001600020838154811061127b5761127a6140f0565b5b906000526020600020906002020160000160006101000a81548160ff0219169083151502179055925050506113b4565b50806112b69061414e565b905061109d565b50600860008373ffffffffffffffffffffffffffffffffffffffff1673ffffffffffffffffffffffffffffffffffffffff168152602001908152602001600020604051806040016040528060011515815260200185815250908060018154018082558091505060019003906000526020600020906002020160009091909190915060008201518160000160006101000a81548160ff0219169083151502179055506020820151816001019081611373919061447e565b5050507f795998f47a4310517e8bfe9bb111b3315fc737453dda161c0b583f1da935339883836040516113a7929190614749565b60405180910390a1600190505b92915050565b60006113c5826107fa565b6113e48373ffffffffffffffffffffffffffffffffffffffff16613101565b6040516020016113f491906147d8565b60405160208183030381529060405290611444576040517f08c379a000000000000000000000000000000000000000000000000000000000815260040161143b9190613c4b565b60405180910390fd5b50600560009054906101000a900473ffffffffffffffffffffffffffffffffffffffff1673ffffffffffffffffffffffffffffffffffffffff168273ffffffffffffffffffffffffffffffffffffffff1614806114ee5750600660009054906101000a900473ffffffffffffffffffffffffffffffffffffffff1673ffffffffffffffffffffffffffffffffffffffff168273ffffffffffffffffffffffffffffffffffffffff16145b156114fc576001905061171b565b60005b600860008473ffffffffffffffffffffffffffffffffffffffff1673ffffffffffffffffffffffffffffffffffffffff168152602001908152602001600020805490508111611715576000600860008573ffffffffffffffffffffffffffffffffffffffff1673ffffffffffffffffffffffffffffffffffffffff168152602001908152602001600020828154811061159b5761159a6140f0565b5b906000526020600020906002020160010180546115b7906140bf565b80601f01602080910402602001604051908101604052809291908181526020018280546115e3906140bf565b80156116305780601f1061160557610100808354040283529160200191611630565b820191906000526020600020905b81548152906001019060200180831161161357829003601f168201915b505050505090508460405160200161164891906146e6565b604051602081830303815290604052805190602001208160405160200161166f91906146e6565b604051602081830303815290604052805190602001200361170357600860008573ffffffffffffffffffffffffffffffffffffffff1673ffffffffffffffffffffffffffffffffffffffff16815260200190815260200160002082815481106116db576116da6140f0565b5b906000526020600020906002020160000160009054906101000a900460ff169250505061171b565b508061170e9061414e565b90506114ff565b50600090505b92915050565b60008060008373ffffffffffffffffffffffffffffffffffffffff1673ffffffffffffffffffffffffffffffffffffffff168152602001908152602001600020549050919050565b600560009054906101000a900473ffffffffffffffffffffffffffffffffffffffff1673ffffffffffffffffffffffffffffffffffffffff163373ffffffffffffffffffffffffffffffffffffffff1614806118125750600660009054906101000a900473ffffffffffffffffffffffffffffffffffffffff1673ffffffffffffffffffffffffffffffffffffffff163373ffffffffffffffffffffffffffffffffffffffff16145b6118313373ffffffffffffffffffffffffffffffffffffffff16613101565b60405160200161184191906142b0565b60405160208183030381529060405290611891576040517f08c379a00000000000000000000000000000000000000000000000000000000081526004016118889190613c4b565b60405180910390fd5b5061189d8160006132e3565b15611a0b576118ad8160006133d9565b156119ce576118bd816000613672565b60005b6007805490508110156119c8578173ffffffffffffffffffffffffffffffffffffffff16600782815481106118f8576118f76140f0565b5b9060005260206000200160009054906101000a900473ffffffffffffffffffffffffffffffffffffffff1673ffffffffffffffffffffffffffffffffffffffff16036119b75760078181548110611952576119516140f0565b5b9060005260206000200160006101000a81549073ffffffffffffffffffffffffffffffffffffffff02191690557fd2754bb25f80d82f28983daef636e09dd633511ed87d9a247d9982c495912dd3826040516119ae9190614846565b60405180910390a15b806119c19061414e565b90506118c0565b50611a06565b7fe8faadd3ea95010cee81735cf90a770207add83d51e5309c696f9c23ec5d75cd816040516119fd9190614616565b60405180910390a15b611a17565b611a168160006138ba565b5b50565b60608060005b600780549050811015611c1e57600060078281548110611a4357611a426140f0565b5b9060005260206000200160009054906101000a900473ffffffffffffffffffffffffffffffffffffffff16905060005b600860008373ffffffffffffffffffffffffffffffffffffffff1673ffffffffffffffffffffffffffffffffffffffff16815260200190815260200160002080549050811015611c0b57600860008373ffffffffffffffffffffffffffffffffffffffff1673ffffffffffffffffffffffffffffffffffffffff1681526020019081526020016000208181548110611b0e57611b0d6140f0565b5b906000526020600020906002020160000160009054906101000a900460ff1615611bfa5784600860008473ffffffffffffffffffffffffffffffffffffffff1673ffffffffffffffffffffffffffffffffffffffff1681526020019081526020016000208281548110611b8457611b836140f0565b5b9060005260206000209060020201600101604051602001611ba6929190614943565b604051602081830303815290604052945083611bd78373ffffffffffffffffffffffffffffffffffffffff16613101565b604051602001611be8929190614972565b60405160208183030381529060405293505b80611c049061414e565b9050611a73565b505080611c179061414e565b9050611a20565b507f38e29c2b389e0d0636fa66727abb2ee4bc9bf0eb49de128babd1ebc9ca6f72928183604051611c509291906149a1565b60405180910390a15050565b600d60009054906101000a900473ffffffffffffffffffffffffffffffffffffffff1681565b606060048054611c91906140bf565b80601f0160208091040260200160405190810160405280929190818152602001828054611cbd906140bf565b8015611d0a5780601f10611cdf57610100808354040283529160200191611d0a565b820191906000526020600020905b815481529060010190602001808311611ced57829003601f168201915b5050505050905090565b601760009054906101000a900473ffffffffffffffffffffffffffffffffffffffff1681565b6060611d44610aa8565b156120145760005b600a805490508110156120125781611dbe600a8381548110611d7157611d706140f0565b5b906000526020600020906002020160000160009054906101000a900473ffffffffffffffffffffffffffffffffffffffff1673ffffffffffffffffffffffffffffffffffffffff16613101565b604051602001611dcf929190614972565b604051602081830303815290604052915081611e45600a8381548110611df857611df76140f0565b5b906000526020600020906002020160010160009054906101000a900473ffffffffffffffffffffffffffffffffffffffff1673ffffffffffffffffffffffffffffffffffffffff16613101565b604051602001611e56929190614972565b604051602081830303815290604052915081600a8281548110611e7c57611e7b6140f0565b5b906000526020600020906002020160010160149054906101000a900460ff16611eda576040518060400160405280600181526020017f3000000000000000000000000000000000000000000000000000000000000000815250611f11565b6040518060400160405280600181526020017f31000000000000000000000000000000000000000000000000000000000000008152505b604051602001611f22929190614972565b604051602081830303815290604052915081600a8281548110611f4857611f476140f0565b5b906000526020600020906002020160010160159054906101000a900460ff16611fa6576040518060400160405280600181526020017f3000000000000000000000000000000000000000000000000000000000000000815250611fdd565b6040518060400160405280600181526020017f31000000000000000000000000000000000000000000000000000000000000008152505b604051602001611fee929190614a24565b6040516020818303038152906040529150808061200a9061414e565b915050611d4c565b505b90565b600080600560009054906101000a900473ffffffffffffffffffffffffffffffffffffffff1673ffffffffffffffffffffffffffffffffffffffff163373ffffffffffffffffffffffffffffffffffffffff1614806120c35750600660009054906101000a900473ffffffffffffffffffffffffffffffffffffffff1673ffffffffffffffffffffffffffffffffffffffff163373ffffffffffffffffffffffffffffffffffffffff16145b6120e23373ffffffffffffffffffffffffffffffffffffffff16613101565b6040516020016120f291906142b0565b60405160208183030381529060405290612142576040517f08c379a00000000000000000000000000000000000000000000000000000000081526004016121399190613c4b565b60405180910390fd5b50601a54601b60009054906101000a900473ffffffffffffffffffffffffffffffffffffffff16915091509091565b60008060016000612180612cb1565b73ffffffffffffffffffffffffffffffffffffffff1673ffffffffffffffffffffffffffffffffffffffff16815260200190815260200160002060008573ffffffffffffffffffffffffffffffffffffffff1673ffffffffffffffffffffffffffffffffffffffff1681526020019081526020016000205490508281101561223d576040517f08c379a000000000000000000000000000000000000000000000000000000000815260040161223490614ac5565b60405180910390fd5b612251612248612cb1565b85858403612cb9565b600191505092915050565b6000612270612269612cb1565b8484612e82565b6001905092915050565b601960009054906101000a900473ffffffffffffffffffffffffffffffffffffffff1681565b601360009054906101000a900473ffffffffffffffffffffffffffffffffffffffff1681565b60006123076040518060400160405280600f81526020017f43414e5f44454c4554455f524f4c450000000000000000000000000000000000815250336113ba565b6123263373ffffffffffffffffffffffffffffffffffffffff16613101565b60405160200161233691906146c4565b60405160208183030381529060405290612386576040517f08c379a000000000000000000000000000000000000000000000000000000000815260040161237d9190613c4b565b60405180910390fd5b5060005b600860008473ffffffffffffffffffffffffffffffffffffffff1673ffffffffffffffffffffffffffffffffffffffff1681526020019081526020016000208054905081116125a3576000600860008573ffffffffffffffffffffffffffffffffffffffff1673ffffffffffffffffffffffffffffffffffffffff1681526020019081526020016000208281548110612426576124256140f0565b5b90600052602060002090600202016001018054612442906140bf565b80601f016020809104026020016040519081016040528092919081815260200182805461246e906140bf565b80156124bb5780601f10612490576101008083540402835291602001916124bb565b820191906000526020600020905b81548152906001019060200180831161249e57829003601f168201915b50505050509050846040516020016124d391906146e6565b60405160208183030381529060405280519060200120816040516020016124fa91906146e6565b6040516020818303038152906040528051906020012003612591576000600860008673ffffffffffffffffffffffffffffffffffffffff1673ffffffffffffffffffffffffffffffffffffffff1681526020019081526020016000208381548110612568576125676140f0565b5b906000526020600020906002020160000160006101000a81548160ff0219169083151502179055505b508061259c9061414e565b905061238a565b507fa201ad061c273e6ff5e8c40be1ca5c0354f990d8600fecfdde5e670dcf120fe583836040516125d5929190614749565b60405180910390a16001905092915050565b600560009054906101000a900473ffffffffffffffffffffffffffffffffffffffff1673ffffffffffffffffffffffffffffffffffffffff163373ffffffffffffffffffffffffffffffffffffffff1614806126905750600660009054906101000a900473ffffffffffffffffffffffffffffffffffffffff1673ffffffffffffffffffffffffffffffffffffffff163373ffffffffffffffffffffffffffffffffffffffff16145b6126af3373ffffffffffffffffffffffffffffffffffffffff16613101565b6040516020016126bf91906142b0565b6040516020818303038152906040529061270f576040517f08c379a00000000000000000000000000000000000000000000000000000000081526004016127069190613c4b565b60405180910390fd5b506002601a5403612755576040517f08c379a000000000000000000000000000000000000000000000000000000000815260040161274c90614b31565b60405180910390fd5b6000601a54036127e25733601b60006101000a81548173ffffffffffffffffffffffffffffffffffffffff021916908373ffffffffffffffffffffffffffffffffffffffff1602179055506001601a819055507f4d2c662f44d9f484269a689b31b12c74baa2bb8ac9590e253a0eaa4eafb166fa6040516127d590614b9d565b60405180910390a1612bb6565b6001601a5414801561284257503373ffffffffffffffffffffffffffffffffffffffff16601b60009054906101000a900473ffffffffffffffffffffffffffffffffffffffff1673ffffffffffffffffffffffffffffffffffffffff1614155b15612b7f5760006b037643d337915fab1e8c0000905061288c612863612cb1565b600c60009054906101000a900473ffffffffffffffffffffffffffffffffffffffff1683612e82565b6128c0612897612cb1565b600d60009054906101000a900473ffffffffffffffffffffffffffffffffffffffff1683612e82565b6128f46128cb612cb1565b600e60009054906101000a900473ffffffffffffffffffffffffffffffffffffffff1683612e82565b6129286128ff612cb1565b600f60009054906101000a900473ffffffffffffffffffffffffffffffffffffffff1683612e82565b61295c612933612cb1565b601060009054906101000a900473ffffffffffffffffffffffffffffffffffffffff1683612e82565b612990612967612cb1565b601160009054906101000a900473ffffffffffffffffffffffffffffffffffffffff1683612e82565b6129c461299b612cb1565b601260009054906101000a900473ffffffffffffffffffffffffffffffffffffffff1683612e82565b6129f86129cf612cb1565b601360009054906101000a900473ffffffffffffffffffffffffffffffffffffffff1683612e82565b612a2c612a03612cb1565b601460009054906101000a900473ffffffffffffffffffffffffffffffffffffffff1683612e82565b612a60612a37612cb1565b601560009054906101000a900473ffffffffffffffffffffffffffffffffffffffff1683612e82565b612a94612a6b612cb1565b601660009054906101000a900473ffffffffffffffffffffffffffffffffffffffff1683612e82565b612ac8612a9f612cb1565b601760009054906101000a900473ffffffffffffffffffffffffffffffffffffffff1683612e82565b612afc612ad3612cb1565b601860009054906101000a900473ffffffffffffffffffffffffffffffffffffffff1683612e82565b612b3c612b07612cb1565b601960009054906101000a900473ffffffffffffffffffffffffffffffffffffffff166b037643d38ad5a7e10ae40000612e82565b6002601a819055507f4d2c662f44d9f484269a689b31b12c74baa2bb8ac9590e253a0eaa4eafb166fa604051612b7190614c09565b60405180910390a150612bb5565b7f4d2c662f44d9f484269a689b31b12c74baa2bb8ac9590e253a0eaa4eafb166fa604051612bac90614b9d565b60405180910390a15b5b565b600c60009054906101000a900473ffffffffffffffffffffffffffffffffffffffff1681565b6000600160008473ffffffffffffffffffffffffffffffffffffffff1673ffffffffffffffffffffffffffffffffffffffff16815260200190815260200160002060008373ffffffffffffffffffffffffffffffffffffffff1673ffffffffffffffffffffffffffffffffffffffff16815260200190815260200160002054905092915050565b601060009054906101000a900473ffffffffffffffffffffffffffffffffffffffff1681565b601460009054906101000a900473ffffffffffffffffffffffffffffffffffffffff1681565b600033905090565b600073ffffffffffffffffffffffffffffffffffffffff168373ffffffffffffffffffffffffffffffffffffffff1603612d28576040517f08c379a0000000000000000000000000000000000000000000000000000000008152600401612d1f90614c9b565b60405180910390fd5b600073ffffffffffffffffffffffffffffffffffffffff168273ffffffffffffffffffffffffffffffffffffffff1603612d97576040517f08c379a0000000000000000000000000000000000000000000000000000000008152600401612d8e90614d2d565b60405180910390fd5b80600160008573ffffffffffffffffffffffffffffffffffffffff1673ffffffffffffffffffffffffffffffffffffffff16815260200190815260200160002060008473ffffffffffffffffffffffffffffffffffffffff1673ffffffffffffffffffffffffffffffffffffffff168152602001908152602001600020819055508173ffffffffffffffffffffffffffffffffffffffff168373ffffffffffffffffffffffffffffffffffffffff167f8c5be1e5ebec7d5bd14f71427d1e84f3dd0314c0f7b2291e5b200ac8c7c3b92583604051612e759190613dc4565b60405180910390a3505050565b600073ffffffffffffffffffffffffffffffffffffffff168373ffffffffffffffffffffffffffffffffffffffff1603612ef1576040517f08c379a0000000000000000000000000000000000000000000000000000000008152600401612ee890614dbf565b60405180910390fd5b600073ffffffffffffffffffffffffffffffffffffffff168273ffffffffffffffffffffffffffffffffffffffff1603612f60576040517f08c379a0000000000000000000000000000000000000000000000000000000008152600401612f5790614e51565b60405180910390fd5b612f6b838383613b6b565b60008060008573ffffffffffffffffffffffffffffffffffffffff1673ffffffffffffffffffffffffffffffffffffffff16815260200190815260200160002054905081811015612ff1576040517f08c379a0000000000000000000000000000000000000000000000000000000008152600401612fe890614ee3565b60405180910390fd5b8181036000808673ffffffffffffffffffffffffffffffffffffffff1673ffffffffffffffffffffffffffffffffffffffff16815260200190815260200160002081905550816000808573ffffffffffffffffffffffffffffffffffffffff1673ffffffffffffffffffffffffffffffffffffffff16815260200190815260200160002060008282546130849190614644565b925050819055508273ffffffffffffffffffffffffffffffffffffffff168473ffffffffffffffffffffffffffffffffffffffff167fddf252ad1be2c89b69c2b068fc378daa952ba7f163c4a11628f55a4df523b3ef846040516130e89190613dc4565b60405180910390a36130fb848484613b70565b50505050565b60606000602867ffffffffffffffff8111156131205761311f613ea0565b5b6040519080825280601f01601f1916602001820160405280156131525781602001600182028036833780820191505090505b50905060005b60148110156132ba5760008160136131709190614f03565b600861317c9190614f37565b600261318891906150ac565b8573ffffffffffffffffffffffffffffffffffffffff166131a99190615126565b60f81b9050600060108260f81c6131c09190615157565b60f81b905060008160f81c60106131d79190615188565b8360f81c6131e591906151c5565b60f81b90506131f382613b75565b858560026132019190614f37565b81518110613212576132116140f0565b5b60200101907effffffffffffffffffffffffffffffffffffffffffffffffffffffffffffff1916908160001a90535061324a81613b75565b85600186600261325a9190614f37565b6132649190614644565b81518110613275576132746140f0565b5b60200101907effffffffffffffffffffffffffffffffffffffffffffffffffffffffffffff1916908160001a90535050505080806132b29061414e565b915050613158565b50806040516020016132cc919061528d565b604051602081830303815290604052915050919050565b600080600090505b600a805490508110156133cd578373ffffffffffffffffffffffffffffffffffffffff16600a8281548110613323576133226140f0565b5b906000526020600020906002020160010160009054906101000a900473ffffffffffffffffffffffffffffffffffffffff1673ffffffffffffffffffffffffffffffffffffffff161480156133ad5750821515600a828154811061338a576133896140f0565b5b906000526020600020906002020160010160159054906101000a900460ff161515145b156133bc5760019150506133d3565b806133c69061414e565b90506132eb565b50600090505b92915050565b6000600560009054906101000a900473ffffffffffffffffffffffffffffffffffffffff1673ffffffffffffffffffffffffffffffffffffffff163373ffffffffffffffffffffffffffffffffffffffff1614806134845750600660009054906101000a900473ffffffffffffffffffffffffffffffffffffffff1673ffffffffffffffffffffffffffffffffffffffff163373ffffffffffffffffffffffffffffffffffffffff16145b6134a33373ffffffffffffffffffffffffffffffffffffffff16613101565b6040516020016134b391906142b0565b60405160208183030381529060405290613503576040517f08c379a00000000000000000000000000000000000000000000000000000000081526004016134fa9190613c4b565b60405180910390fd5b5060005b600a80549050811015613666578373ffffffffffffffffffffffffffffffffffffffff16600a828154811061353f5761353e6140f0565b5b906000526020600020906002020160010160009054906101000a900473ffffffffffffffffffffffffffffffffffffffff1673ffffffffffffffffffffffffffffffffffffffff161480156135c95750821515600a82815481106135a6576135a56140f0565b5b906000526020600020906002020160010160159054906101000a900460ff161515145b801561364657503373ffffffffffffffffffffffffffffffffffffffff16600a82815481106135fb576135fa6140f0565b5b906000526020600020906002020160000160009054906101000a900473ffffffffffffffffffffffffffffffffffffffff1673ffffffffffffffffffffffffffffffffffffffff1614155b1561365557600191505061366c565b8061365f9061414e565b9050613507565b50600090505b92915050565b600560009054906101000a900473ffffffffffffffffffffffffffffffffffffffff1673ffffffffffffffffffffffffffffffffffffffff163373ffffffffffffffffffffffffffffffffffffffff16148061371b5750600660009054906101000a900473ffffffffffffffffffffffffffffffffffffffff1673ffffffffffffffffffffffffffffffffffffffff163373ffffffffffffffffffffffffffffffffffffffff16145b61373a3373ffffffffffffffffffffffffffffffffffffffff16613101565b60405160200161374a91906142b0565b6040516020818303038152906040529061379a576040517f08c379a00000000000000000000000000000000000000000000000000000000081526004016137919190613c4b565b60405180910390fd5b5060005b600a805490508110156138b5578273ffffffffffffffffffffffffffffffffffffffff16600a82815481106137d6576137d56140f0565b5b906000526020600020906002020160010160009054906101000a900473ffffffffffffffffffffffffffffffffffffffff1673ffffffffffffffffffffffffffffffffffffffff161480156138605750811515600a828154811061383d5761383c6140f0565b5b906000526020600020906002020160010160159054906101000a900460ff161515145b156138a4576001600a828154811061387b5761387a6140f0565b5b906000526020600020906002020160010160146101000a81548160ff0219169083151502179055505b806138ae9061414e565b905061379e565b505050565b600560009054906101000a900473ffffffffffffffffffffffffffffffffffffffff1673ffffffffffffffffffffffffffffffffffffffff163373ffffffffffffffffffffffffffffffffffffffff1614806139635750600660009054906101000a900473ffffffffffffffffffffffffffffffffffffffff1673ffffffffffffffffffffffffffffffffffffffff163373ffffffffffffffffffffffffffffffffffffffff16145b6139823373ffffffffffffffffffffffffffffffffffffffff16613101565b60405160200161399291906142b0565b604051602081830303815290604052906139e2576040517f08c379a00000000000000000000000000000000000000000000000000000000081526004016139d99190613c4b565b60405180910390fd5b50600a60405180608001604052803373ffffffffffffffffffffffffffffffffffffffff1681526020018473ffffffffffffffffffffffffffffffffffffffff168152602001600015158152602001831515815250908060018154018082558091505060019003906000526020600020906002020160009091909190915060008201518160000160006101000a81548173ffffffffffffffffffffffffffffffffffffffff021916908373ffffffffffffffffffffffffffffffffffffffff16021790555060208201518160010160006101000a81548173ffffffffffffffffffffffffffffffffffffffff021916908373ffffffffffffffffffffffffffffffffffffffff16021790555060408201518160010160146101000a81548160ff02191690831515021790555060608201518160010160156101000a81548160ff02191690831515021790555050507fe8faadd3ea95010cee81735cf90a770207add83d51e5309c696f9c23ec5d75cd82604051613b5f9190614616565b60405180910390a15050565b505050565b505050565b6000600a8260f81c60ff161015613ba05760308260f81c613b9691906152af565b60f81b9050613bb6565b60578260f81c613bb091906152af565b60f81b90505b919050565b600081519050919050565b600082825260208201905092915050565b60005b83811015613bf5578082015181840152602081019050613bda565b60008484015250505050565b6000601f19601f8301169050919050565b6000613c1d82613bbb565b613c278185613bc6565b9350613c37818560208601613bd7565b613c4081613c01565b840191505092915050565b60006020820190508181036000830152613c658184613c12565b905092915050565b6000604051905090565b600080fd5b600080fd5b600073ffffffffffffffffffffffffffffffffffffffff82169050919050565b6000613cac82613c81565b9050919050565b613cbc81613ca1565b8114613cc757600080fd5b50565b600081359050613cd981613cb3565b92915050565b6000819050919050565b613cf281613cdf565b8114613cfd57600080fd5b50565b600081359050613d0f81613ce9565b92915050565b60008060408385031215613d2c57613d2b613c77565b5b6000613d3a85828601613cca565b9250506020613d4b85828601613d00565b9150509250929050565b60008115159050919050565b613d6a81613d55565b82525050565b6000602082019050613d856000830184613d61565b92915050565b613d9481613ca1565b82525050565b6000602082019050613daf6000830184613d8b565b92915050565b613dbe81613cdf565b82525050565b6000602082019050613dd96000830184613db5565b92915050565b600060208284031215613df557613df4613c77565b5b6000613e0384828501613cca565b91505092915050565b600080600060608486031215613e2557613e24613c77565b5b6000613e3386828701613cca565b9350506020613e4486828701613cca565b9250506040613e5586828701613d00565b9150509250925092565b600060ff82169050919050565b613e7581613e5f565b82525050565b6000602082019050613e906000830184613e6c565b92915050565b600080fd5b600080fd5b7f4e487b7100000000000000000000000000000000000000000000000000000000600052604160045260246000fd5b613ed882613c01565b810181811067ffffffffffffffff82111715613ef757613ef6613ea0565b5b80604052505050565b6000613f0a613c6d565b9050613f168282613ecf565b919050565b600067ffffffffffffffff821115613f3657613f35613ea0565b5b613f3f82613c01565b9050602081019050919050565b82818337600083830152505050565b6000613f6e613f6984613f1b565b613f00565b905082815260208101848484011115613f8a57613f89613e9b565b5b613f95848285613f4c565b509392505050565b600082601f830112613fb257613fb1613e96565b5b8135613fc2848260208601613f5b565b91505092915050565b60008060408385031215613fe257613fe1613c77565b5b600083013567ffffffffffffffff81111561400057613fff613c7c565b5b61400c85828601613f9d565b925050602061401d85828601613cca565b9150509250929050565b600060408201905061403c6000830185613db5565b6140496020830184613d8b565b9392505050565b6000806040838503121561406757614066613c77565b5b600061407585828601613cca565b925050602061408685828601613cca565b9150509250929050565b7f4e487b7100000000000000000000000000000000000000000000000000000000600052602260045260246000fd5b600060028204905060018216806140d757607f821691505b6020821081036140ea576140e9614090565b5b50919050565b7f4e487b7100000000000000000000000000000000000000000000000000000000600052603260045260246000fd5b7f4e487b7100000000000000000000000000000000000000000000000000000000600052601160045260246000fd5b600061415982613cdf565b91507fffffffffffffffffffffffffffffffffffffffffffffffffffffffffffffffff820361418b5761418a61411f565b5b600182019050919050565b7f45524332303a207472616e7366657220616d6f756e742065786365656473206160008201527f6c6c6f77616e6365000000000000000000000000000000000000000000000000602082015250565b60006141f2602883613bc6565b91506141fd82614196565b604082019050919050565b60006020820190508181036000830152614221816141e5565b9050919050565b600081905092915050565b7f43616c6c6572206973206e6f74207375706572206f776e657220000000000000600082015250565b6000614269601a83614228565b915061427482614233565b601a82019050919050565b600061428a82613bbb565b6142948185614228565b93506142a4818560208601613bd7565b80840191505092915050565b60006142bb8261425c565b91506142c7828461427f565b915081905092915050565b60008190508160005260206000209050919050565b60006020601f8301049050919050565b600082821b905092915050565b6000600883026143347fffffffffffffffffffffffffffffffffffffffffffffffffffffffffffffffff826142f7565b61433e86836142f7565b95508019841693508086168417925050509392505050565b6000819050919050565b600061437b61437661437184613cdf565b614356565b613cdf565b9050919050565b6000819050919050565b61439583614360565b6143a96143a182614382565b848454614304565b825550505050565b600090565b6143be6143b1565b6143c981848461438c565b505050565b5b818110156143ed576143e26000826143b6565b6001810190506143cf565b5050565b601f82111561443257614403816142d2565b61440c846142e7565b8101602085101561441b578190505b61442f614427856142e7565b8301826143ce565b50505b505050565b600082821c905092915050565b600061445560001984600802614437565b1980831691505092915050565b600061446e8383614444565b9150826002028217905092915050565b61448782613bbb565b67ffffffffffffffff8111156144a05761449f613ea0565b5b6144aa82546140bf565b6144b58282856143f1565b600060209050601f8311600181146144e857600084156144d6578287015190505b6144e08582614462565b865550614548565b601f1984166144f6866142d2565b60005b8281101561451e578489015182556001820191506020850194506020810190506144f9565b8683101561453b5784890151614537601f891682614444565b8355505b6001600288020188555050505b505050505050565b7f4164647265737320616464656400000000000000000000000000000000000000600082015250565b6000614586600d83613bc6565b915061459182614550565b602082019050919050565b600060408201905081810360008301526145b581614579565b90506145c46020830184613d8b565b92915050565b7f416464726573732077616974696e6720666f7220636f6e6669726d6174696f6e600082015250565b6000614600602083613bc6565b915061460b826145ca565b602082019050919050565b6000604082019050818103600083015261462f816145f3565b905061463e6020830184613d8b565b92915050565b600061464f82613cdf565b915061465a83613cdf565b92508282019050808211156146725761467161411f565b5b92915050565b7f43616c6c657220686173206e6f207065726d697373696f6e2000000000000000600082015250565b60006146ae601983614228565b91506146b982614678565b601982019050919050565b60006146cf826146a1565b91506146db828461427f565b915081905092915050565b60006146f2828461427f565b915081905092915050565b7f526f6c6520686173206265656e20616464656400000000000000000000000000600082015250565b6000614733601383613bc6565b915061473e826146fd565b602082019050919050565b6000606082019050818103600083015261476281614726565b905081810360208301526147768185613c12565b90506147856040830184613d8b565b9392505050565b7f43616c6c6572206973206e6f74206f776e657220000000000000000000000000600082015250565b60006147c2601483614228565b91506147cd8261478c565b601482019050919050565b60006147e3826147b5565b91506147ef828461427f565b915081905092915050565b7f416464726573732064656c657465640000000000000000000000000000000000600082015250565b6000614830600f83613bc6565b915061483b826147fa565b602082019050919050565b6000604082019050818103600083015261485f81614823565b905061486e6020830184613d8b565b92915050565b60008154614881816140bf565b61488b8186614228565b945060018216600081146148a657600181146148bb576148ee565b60ff19831686528115158202860193506148ee565b6148c4856142d2565b60005b838110156148e6578154818901526001820191506020810190506148c7565b838801955050505b50505092915050565b7f2000000000000000000000000000000000000000000000000000000000000000600082015250565b600061492d600183614228565b9150614938826148f7565b600182019050919050565b600061494f828561427f565b915061495b8284614874565b915061496682614920565b91508190509392505050565b600061497e828561427f565b915061498a828461427f565b915061499582614920565b91508190509392505050565b600060408201905081810360008301526149bb8185613c12565b905081810360208301526149cf8184613c12565b90509392505050565b7f3b00000000000000000000000000000000000000000000000000000000000000600082015250565b6000614a0e600183614228565b9150614a19826149d8565b600182019050919050565b6000614a30828561427f565b9150614a3c828461427f565b9150614a4782614a01565b91508190509392505050565b7f45524332303a2064656372656173656420616c6c6f77616e63652062656c6f7760008201527f207a65726f000000000000000000000000000000000000000000000000000000602082015250565b6000614aaf602583613bc6565b9150614aba82614a53565b604082019050919050565b60006020820190508181036000830152614ade81614aa2565b9050919050565b7f446973747269627574696f6e20616c726561647920696e697465640000000000600082015250565b6000614b1b601b83613bc6565b9150614b2682614ae5565b602082019050919050565b60006020820190508181036000830152614b4a81614b0e565b9050919050565b7f57616974696e6720666f7220636f6e6669726d6174696f6e0000000000000000600082015250565b6000614b87601883613bc6565b9150614b9282614b51565b602082019050919050565b60006020820190508181036000830152614bb681614b7a565b9050919050565b7f446973747269627574696f6e20696e6974696174656400000000000000000000600082015250565b6000614bf3601683613bc6565b9150614bfe82614bbd565b602082019050919050565b60006020820190508181036000830152614c2281614be6565b9050919050565b7f45524332303a20617070726f76652066726f6d20746865207a65726f2061646460008201527f7265737300000000000000000000000000000000000000000000000000000000602082015250565b6000614c85602483613bc6565b9150614c9082614c29565b604082019050919050565b60006020820190508181036000830152614cb481614c78565b9050919050565b7f45524332303a20617070726f766520746f20746865207a65726f20616464726560008201527f7373000000000000000000000000000000000000000000000000000000000000602082015250565b6000614d17602283613bc6565b9150614d2282614cbb565b604082019050919050565b60006020820190508181036000830152614d4681614d0a565b9050919050565b7f45524332303a207472616e736665722066726f6d20746865207a65726f20616460008201527f6472657373000000000000000000000000000000000000000000000000000000602082015250565b6000614da9602583613bc6565b9150614db482614d4d565b604082019050919050565b60006020820190508181036000830152614dd881614d9c565b9050919050565b7f45524332303a207472616e7366657220746f20746865207a65726f206164647260008201527f6573730000000000000000000000000000000000000000000000000000000000602082015250565b6000614e3b602383613bc6565b9150614e4682614ddf565b604082019050919050565b60006020820190508181036000830152614e6a81614e2e565b9050919050565b7f45524332303a207472616e7366657220616d6f756e742065786365656473206260008201527f616c616e63650000000000000000000000000000000000000000000000000000602082015250565b6000614ecd602683613bc6565b9150614ed882614e71565b604082019050919050565b60006020820190508181036000830152614efc81614ec0565b9050919050565b6000614f0e82613cdf565b9150614f1983613cdf565b9250828203905081811115614f3157614f3061411f565b5b92915050565b6000614f4282613cdf565b9150614f4d83613cdf565b9250828202614f5b81613cdf565b91508282048414831517614f7257614f7161411f565b5b5092915050565b60008160011c9050919050565b6000808291508390505b6001851115614fd057808604811115614fac57614fab61411f565b5b6001851615614fbb5780820291505b8081029050614fc985614f79565b9450614f90565b94509492505050565b600082614fe957600190506150a5565b81614ff757600090506150a5565b816001811461500d576002811461501757615046565b60019150506150a5565b60ff8411156150295761502861411f565b5b8360020a9150848211156150405761503f61411f565b5b506150a5565b5060208310610133831016604e8410600b841016171561507b5782820a9050838111156150765761507561411f565b5b6150a5565b6150888484846001614f86565b9250905081840481111561509f5761509e61411f565b5b81810290505b9392505050565b60006150b782613cdf565b91506150c283613cdf565b92506150ef7fffffffffffffffffffffffffffffffffffffffffffffffffffffffffffffffff8484614fd9565b905092915050565b7f4e487b7100000000000000000000000000000000000000000000000000000000600052601260045260246000fd5b600061513182613cdf565b915061513c83613cdf565b92508261514c5761514b6150f7565b5b828204905092915050565b600061516282613e5f565b915061516d83613e5f565b92508261517d5761517c6150f7565b5b828204905092915050565b600061519382613e5f565b915061519e83613e5f565b92508282026151ac81613e5f565b91508082146151be576151bd61411f565b5b5092915050565b60006151d082613e5f565b91506151db83613e5f565b9250828203905060ff8111156151f4576151f361411f565b5b92915050565b7f3078000000000000000000000000000000000000000000000000000000000000600082015250565b6000615230600283614228565b915061523b826151fa565b600282019050919050565b600081519050919050565b600081905092915050565b600061526782615246565b6152718185615251565b9350615281818560208601613bd7565b80840191505092915050565b600061529882615223565b91506152a4828461525c565b915081905092915050565b60006152ba82613e5f565b91506152c583613e5f565b9250828201905060ff8111156152de576152dd61411f565b5b9291505056fea2646970667358221220308ebac798d0ae85c5597ec119b492110bcf8081febccde05fd8afe2ca87517a64736f6c63430008120033",
			"opcodes": "PUSH1 0x80 PUSH1 0x40 MSTORE PUSH20 0x1878FDF13B77546039DA7536046F386FE696890B PUSH1 0x5 PUSH1 0x0 PUSH2 0x100 EXP DUP2 SLOAD DUP2 PUSH20 0xFFFFFFFFFFFFFFFFFFFFFFFFFFFFFFFFFFFFFFFF MUL NOT AND SWAP1 DUP4 PUSH20 0xFFFFFFFFFFFFFFFFFFFFFFFFFFFFFFFFFFFFFFFF AND MUL OR SWAP1 SSTORE POP PUSH20 0x9AAC0E94C973A4C643E03BFEF0FE4B8063AA5B51 PUSH1 0x6 PUSH1 0x0 PUSH2 0x100 EXP DUP2 SLOAD DUP2 PUSH20 0xFFFFFFFFFFFFFFFFFFFFFFFFFFFFFFFFFFFFFFFF MUL NOT AND SWAP1 DUP4 PUSH20 0xFFFFFFFFFFFFFFFFFFFFFFFFFFFFFFFFFFFFFFFF AND MUL OR SWAP1 SSTORE POP PUSH1 0x0 PUSH1 0x9 SSTORE PUSH5 0x37E11D600 PUSH1 0xB SSTORE PUSH20 0xDDCEE1328C102A1880F4664350547F7421AEC3FE PUSH1 0xC PUSH1 0x0 PUSH2 0x100 EXP DUP2 SLOAD DUP2 PUSH20 0xFFFFFFFFFFFFFFFFFFFFFFFFFFFFFFFFFFFFFFFF MUL NOT AND SWAP1 DUP4 PUSH20 0xFFFFFFFFFFFFFFFFFFFFFFFFFFFFFFFFFFFFFFFF AND MUL OR SWAP1 SSTORE POP PUSH20 0xD4DCE63A35F2570644538A7821D604195E83475D PUSH1 0xD PUSH1 0x0 PUSH2 0x100 EXP DUP2 SLOAD DUP2 PUSH20 0xFFFFFFFFFFFFFFFFFFFFFFFFFFFFFFFFFFFFFFFF MUL NOT AND SWAP1 DUP4 PUSH20 0xFFFFFFFFFFFFFFFFFFFFFFFFFFFFFFFFFFFFFFFF AND MUL OR SWAP1 SSTORE POP PUSH20 0xEE7FB5F3770709CBD8DEF09137985F09BEDDE544 PUSH1 0xE PUSH1 0x0 PUSH2 0x100 EXP DUP2 SLOAD DUP2 PUSH20 0xFFFFFFFFFFFFFFFFFFFFFFFFFFFFFFFFFFFFFFFF MUL NOT AND SWAP1 DUP4 PUSH20 0xFFFFFFFFFFFFFFFFFFFFFFFFFFFFFFFFFFFFFFFF AND MUL OR SWAP1 SSTORE POP PUSH20 0xDB450CB548568F4FAA3D814D86C628056F765308 PUSH1 0xF PUSH1 0x0 PUSH2 0x100 EXP DUP2 SLOAD DUP2 PUSH20 0xFFFFFFFFFFFFFFFFFFFFFFFFFFFFFFFFFFFFFFFF MUL NOT AND SWAP1 DUP4 PUSH20 0xFFFFFFFFFFFFFFFFFFFFFFFFFFFFFFFFFFFFFFFF AND MUL OR SWAP1 SSTORE POP PUSH20 0xB7B92F9E9E9E525E25D51767BF17A719E1FE418B PUSH1 0x10 PUSH1 0x0 PUSH2 0x100 EXP DUP2 SLOAD DUP2 PUSH20 0xFFFFFFFFFFFFFFFFFFFFFFFFFFFFFFFFFFFFFFFF MUL NOT AND SWAP1 DUP4 PUSH20 0xFFFFFFFFFFFFFFFFFFFFFFFFFFFFFFFFFFFFFFFF AND MUL OR SWAP1 SSTORE POP PUSH20 0xB31A5B71AF940B03A224AB33E0B6B34D1FEBA4D4 PUSH1 0x11 PUSH1 0x0 PUSH2 0x100 EXP DUP2 SLOAD DUP2 PUSH20 0xFFFFFFFFFFFFFFFFFFFFFFFFFFFFFFFFFFFFFFFF MUL NOT AND SWAP1 DUP4 PUSH20 0xFFFFFFFFFFFFFFFFFFFFFFFFFFFFFFFFFFFFFFFF AND MUL OR SWAP1 SSTORE POP PUSH20 0x6E2B9EAB334EECE13FBD8DAF6F096C07FBEF7828 PUSH1 0x12 PUSH1 0x0 PUSH2 0x100 EXP DUP2 SLOAD DUP2 PUSH20 0xFFFFFFFFFFFFFFFFFFFFFFFFFFFFFFFFFFFFFFFF MUL NOT AND SWAP1 DUP4 PUSH20 0xFFFFFFFFFFFFFFFFFFFFFFFFFFFFFFFFFFFFFFFF AND MUL OR SWAP1 SSTORE POP PUSH20 0x7FDCB42386032A7410DB83D97F47B10C7DD531D0 PUSH1 0x13 PUSH1 0x0 PUSH2 0x100 EXP DUP2 SLOAD DUP2 PUSH20 0xFFFFFFFFFFFFFFFFFFFFFFFFFFFFFFFFFFFFFFFF MUL NOT AND SWAP1 DUP4 PUSH20 0xFFFFFFFFFFFFFFFFFFFFFFFFFFFFFFFFFFFFFFFF AND MUL OR SWAP1 SSTORE POP PUSH20 0x64B7992949E383CE6D4999D0E8EFEC66B5E9BE09 PUSH1 0x14 PUSH1 0x0 PUSH2 0x100 EXP DUP2 SLOAD DUP2 PUSH20 0xFFFFFFFFFFFFFFFFFFFFFFFFFFFFFFFFFFFFFFFF MUL NOT AND SWAP1 DUP4 PUSH20 0xFFFFFFFFFFFFFFFFFFFFFFFFFFFFFFFFFFFFFFFF AND MUL OR SWAP1 SSTORE POP PUSH20 0x9C3CB850FCA46F6E247E49C0C7FB4B71D37F9989 PUSH1 0x15 PUSH1 0x0 PUSH2 0x100 EXP DUP2 SLOAD DUP2 PUSH20 0xFFFFFFFFFFFFFFFFFFFFFFFFFFFFFFFFFFFFFFFF MUL NOT AND SWAP1 DUP4 PUSH20 0xFFFFFFFFFFFFFFFFFFFFFFFFFFFFFFFFFFFFFFFF AND MUL OR SWAP1 SSTORE POP PUSH20 0xDA31C02DDD4543F835657564CE03B420C122C575 PUSH1 0x16 PUSH1 0x0 PUSH2 0x100 EXP DUP2 SLOAD DUP2 PUSH20 0xFFFFFFFFFFFFFFFFFFFFFFFFFFFFFFFFFFFFFFFF MUL NOT AND SWAP1 DUP4 PUSH20 0xFFFFFFFFFFFFFFFFFFFFFFFFFFFFFFFFFFFFFFFF AND MUL OR SWAP1 SSTORE POP PUSH20 0x6F65B1A13FA387B2E461272C3CDDAE58E9F0A13 PUSH1 0x17 PUSH1 0x0 PUSH2 0x100 EXP DUP2 SLOAD DUP2 PUSH20 0xFFFFFFFFFFFFFFFFFFFFFFFFFFFFFFFFFFFFFFFF MUL NOT AND SWAP1 DUP4 PUSH20 0xFFFFFFFFFFFFFFFFFFFFFFFFFFFFFFFFFFFFFFFF AND MUL OR SWAP1 SSTORE POP PUSH20 0xAA41BBA8033CC1CFDC52240248381B4EEFE3BD72 PUSH1 0x18 PUSH1 0x0 PUSH2 0x100 EXP DUP2 SLOAD DUP2 PUSH20 0xFFFFFFFFFFFFFFFFFFFFFFFFFFFFFFFFFFFFFFFF MUL NOT AND SWAP1 DUP4 PUSH20 0xFFFFFFFFFFFFFFFFFFFFFFFFFFFFFFFFFFFFFFFF AND MUL OR SWAP1 SSTORE POP PUSH20 0x651F50890525D7A9F6AAFAE398FA55977DDD47F8 PUSH1 0x19 PUSH1 0x0 PUSH2 0x100 EXP DUP2 SLOAD DUP2 PUSH20 0xFFFFFFFFFFFFFFFFFFFFFFFFFFFFFFFFFFFFFFFF MUL NOT AND SWAP1 DUP4 PUSH20 0xFFFFFFFFFFFFFFFFFFFFFFFFFFFFFFFFFFFFFFFF AND MUL OR SWAP1 SSTORE POP PUSH1 0x0 PUSH1 0x1A SSTORE CALLVALUE DUP1 ISZERO PUSH3 0x574 JUMPI PUSH1 0x0 DUP1 REVERT JUMPDEST POP PUSH1 0x40 MLOAD DUP1 PUSH1 0x40 ADD PUSH1 0x40 MSTORE DUP1 PUSH1 0xA DUP2 MSTORE PUSH1 0x20 ADD PUSH32 0x576F726B6F757441707000000000000000000000000000000000000000000000 DUP2 MSTORE POP PUSH1 0x40 MLOAD DUP1 PUSH1 0x40 ADD PUSH1 0x40 MSTORE DUP1 PUSH1 0x3 DUP2 MSTORE PUSH1 0x20 ADD PUSH32 0x5752540000000000000000000000000000000000000000000000000000000000 DUP2 MSTORE POP DUP2 PUSH1 0x3 SWAP1 DUP2 PUSH3 0x5F2 SWAP2 SWAP1 PUSH3 0xC97 JUMP JUMPDEST POP DUP1 PUSH1 0x4 SWAP1 DUP2 PUSH3 0x604 SWAP2 SWAP1 PUSH3 0xC97 JUMP JUMPDEST POP POP POP PUSH1 0x7 PUSH20 0xA60A4FE0591017233AB3B3B7DE028DB23FA48300 SWAP1 DUP1 PUSH1 0x1 DUP2 SLOAD ADD DUP1 DUP3 SSTORE DUP1 SWAP2 POP POP PUSH1 0x1 SWAP1 SUB SWAP1 PUSH1 0x0 MSTORE PUSH1 0x20 PUSH1 0x0 KECCAK256 ADD PUSH1 0x0 SWAP1 SWAP2 SWAP1 SWAP2 SWAP1 SWAP2 PUSH2 0x100 EXP DUP2 SLOAD DUP2 PUSH20 0xFFFFFFFFFFFFFFFFFFFFFFFFFFFFFFFFFFFFFFFF MUL NOT AND SWAP1 DUP4 PUSH20 0xFFFFFFFFFFFFFFFFFFFFFFFFFFFFFFFFFFFFFFFF AND MUL OR SWAP1 SSTORE POP PUSH1 0x7 PUSH20 0xEA25957C982E646D807CABDA58BCC0B14535DA95 SWAP1 DUP1 PUSH1 0x1 DUP2 SLOAD ADD DUP1 DUP3 SSTORE DUP1 SWAP2 POP POP PUSH1 0x1 SWAP1 SUB SWAP1 PUSH1 0x0 MSTORE PUSH1 0x20 PUSH1 0x0 KECCAK256 ADD PUSH1 0x0 SWAP1 SWAP2 SWAP1 SWAP2 SWAP1 SWAP2 PUSH2 0x100 EXP DUP2 SLOAD DUP2 PUSH20 0xFFFFFFFFFFFFFFFFFFFFFFFFFFFFFFFFFFFFFFFF MUL NOT AND SWAP1 DUP4 PUSH20 0xFFFFFFFFFFFFFFFFFFFFFFFFFFFFFFFFFFFFFFFF AND MUL OR SWAP1 SSTORE POP PUSH1 0x0 JUMPDEST PUSH1 0x7 DUP1 SLOAD SWAP1 POP DUP2 LT ISZERO PUSH3 0x84A JUMPI PUSH1 0x8 PUSH1 0x0 PUSH1 0x7 DUP4 DUP2 SLOAD DUP2 LT PUSH3 0x721 JUMPI PUSH3 0x720 PUSH3 0xD7E JUMP JUMPDEST JUMPDEST SWAP1 PUSH1 0x0 MSTORE PUSH1 0x20 PUSH1 0x0 KECCAK256 ADD PUSH1 0x0 SWAP1 SLOAD SWAP1 PUSH2 0x100 EXP SWAP1 DIV PUSH20 0xFFFFFFFFFFFFFFFFFFFFFFFFFFFFFFFFFFFFFFFF AND PUSH20 0xFFFFFFFFFFFFFFFFFFFFFFFFFFFFFFFFFFFFFFFF AND PUSH20 0xFFFFFFFFFFFFFFFFFFFFFFFFFFFFFFFFFFFFFFFF AND DUP2 MSTORE PUSH1 0x20 ADD SWAP1 DUP2 MSTORE PUSH1 0x20 ADD PUSH1 0x0 KECCAK256 PUSH1 0x40 MLOAD DUP1 PUSH1 0x40 ADD PUSH1 0x40 MSTORE DUP1 PUSH1 0x1 ISZERO ISZERO DUP2 MSTORE PUSH1 0x20 ADD PUSH1 0x40 MLOAD DUP1 PUSH1 0x40 ADD PUSH1 0x40 MSTORE DUP1 PUSH1 0xA DUP2 MSTORE PUSH1 0x20 ADD PUSH32 0x4D41494E5F4F574E455200000000000000000000000000000000000000000000 DUP2 MSTORE POP DUP2 MSTORE POP SWAP1 DUP1 PUSH1 0x1 DUP2 SLOAD ADD DUP1 DUP3 SSTORE DUP1 SWAP2 POP POP PUSH1 0x1 SWAP1 SUB SWAP1 PUSH1 0x0 MSTORE PUSH1 0x20 PUSH1 0x0 KECCAK256 SWAP1 PUSH1 0x2 MUL ADD PUSH1 0x0 SWAP1 SWAP2 SWAP1 SWAP2 SWAP1 SWAP2 POP PUSH1 0x0 DUP3 ADD MLOAD DUP2 PUSH1 0x0 ADD PUSH1 0x0 PUSH2 0x100 EXP DUP2 SLOAD DUP2 PUSH1 0xFF MUL NOT AND SWAP1 DUP4 ISZERO ISZERO MUL OR SWAP1 SSTORE POP PUSH1 0x20 DUP3 ADD MLOAD DUP2 PUSH1 0x1 ADD SWAP1 DUP2 PUSH3 0x833 SWAP2 SWAP1 PUSH3 0xC97 JUMP JUMPDEST POP POP POP DUP1 PUSH3 0x842 SWAP1 PUSH3 0xDDC JUMP JUMPDEST SWAP1 POP PUSH3 0x6F8 JUMP JUMPDEST POP PUSH3 0x88C CALLER PUSH3 0x860 PUSH3 0x892 PUSH1 0x20 SHL PUSH1 0x20 SHR JUMP JUMPDEST PUSH1 0xFF AND PUSH1 0xA PUSH3 0x871 SWAP2 SWAP1 PUSH3 0xF7D JUMP JUMPDEST PUSH1 0xB SLOAD PUSH3 0x880 SWAP2 SWAP1 PUSH3 0xFCE JUMP JUMPDEST PUSH3 0x89B PUSH1 0x20 SHL PUSH1 0x20 SHR JUMP JUMPDEST PUSH3 0x1105 JUMP JUMPDEST PUSH1 0x0 PUSH1 0x12 SWAP1 POP SWAP1 JUMP JUMPDEST PUSH1 0x0 PUSH20 0xFFFFFFFFFFFFFFFFFFFFFFFFFFFFFFFFFFFFFFFF AND DUP3 PUSH20 0xFFFFFFFFFFFFFFFFFFFFFFFFFFFFFFFFFFFFFFFF AND SUB PUSH3 0x90D JUMPI PUSH1 0x40 MLOAD PUSH32 0x8C379A000000000000000000000000000000000000000000000000000000000 DUP2 MSTORE PUSH1 0x4 ADD PUSH3 0x904 SWAP1 PUSH3 0x107A JUMP JUMPDEST PUSH1 0x40 MLOAD DUP1 SWAP2 SUB SWAP1 REVERT JUMPDEST PUSH3 0x921 PUSH1 0x0 DUP4 DUP4 PUSH3 0xA13 PUSH1 0x20 SHL PUSH1 0x20 SHR JUMP JUMPDEST DUP1 PUSH1 0x2 PUSH1 0x0 DUP3 DUP3 SLOAD PUSH3 0x935 SWAP2 SWAP1 PUSH3 0x109C JUMP JUMPDEST SWAP3 POP POP DUP2 SWAP1 SSTORE POP DUP1 PUSH1 0x0 DUP1 DUP5 PUSH20 0xFFFFFFFFFFFFFFFFFFFFFFFFFFFFFFFFFFFFFFFF AND PUSH20 0xFFFFFFFFFFFFFFFFFFFFFFFFFFFFFFFFFFFFFFFF AND DUP2 MSTORE PUSH1 0x20 ADD SWAP1 DUP2 MSTORE PUSH1 0x20 ADD PUSH1 0x0 KECCAK256 PUSH1 0x0 DUP3 DUP3 SLOAD PUSH3 0x98C SWAP2 SWAP1 PUSH3 0x109C JUMP JUMPDEST SWAP3 POP POP DUP2 SWAP1 SSTORE POP DUP2 PUSH20 0xFFFFFFFFFFFFFFFFFFFFFFFFFFFFFFFFFFFFFFFF AND PUSH1 0x0 PUSH20 0xFFFFFFFFFFFFFFFFFFFFFFFFFFFFFFFFFFFFFFFF AND PUSH32 0xDDF252AD1BE2C89B69C2B068FC378DAA952BA7F163C4A11628F55A4DF523B3EF DUP4 PUSH1 0x40 MLOAD PUSH3 0x9F3 SWAP2 SWAP1 PUSH3 0x10E8 JUMP JUMPDEST PUSH1 0x40 MLOAD DUP1 SWAP2 SUB SWAP1 LOG3 PUSH3 0xA0F PUSH1 0x0 DUP4 DUP4 PUSH3 0xA18 PUSH1 0x20 SHL PUSH1 0x20 SHR JUMP JUMPDEST POP POP JUMP JUMPDEST POP POP POP JUMP JUMPDEST POP POP POP JUMP JUMPDEST PUSH1 0x0 DUP2 MLOAD SWAP1 POP SWAP2 SWAP1 POP JUMP JUMPDEST PUSH32 0x4E487B7100000000000000000000000000000000000000000000000000000000 PUSH1 0x0 MSTORE PUSH1 0x41 PUSH1 0x4 MSTORE PUSH1 0x24 PUSH1 0x0 REVERT JUMPDEST PUSH32 0x4E487B7100000000000000000000000000000000000000000000000000000000 PUSH1 0x0 MSTORE PUSH1 0x22 PUSH1 0x4 MSTORE PUSH1 0x24 PUSH1 0x0 REVERT JUMPDEST PUSH1 0x0 PUSH1 0x2 DUP3 DIV SWAP1 POP PUSH1 0x1 DUP3 AND DUP1 PUSH3 0xA9F JUMPI PUSH1 0x7F DUP3 AND SWAP2 POP JUMPDEST PUSH1 0x20 DUP3 LT DUP2 SUB PUSH3 0xAB5 JUMPI PUSH3 0xAB4 PUSH3 0xA57 JUMP JUMPDEST JUMPDEST POP SWAP2 SWAP1 POP JUMP JUMPDEST PUSH1 0x0 DUP2 SWAP1 POP DUP2 PUSH1 0x0 MSTORE PUSH1 0x20 PUSH1 0x0 KECCAK256 SWAP1 POP SWAP2 SWAP1 POP JUMP JUMPDEST PUSH1 0x0 PUSH1 0x20 PUSH1 0x1F DUP4 ADD DIV SWAP1 POP SWAP2 SWAP1 POP JUMP JUMPDEST PUSH1 0x0 DUP3 DUP3 SHL SWAP1 POP SWAP3 SWAP2 POP POP JUMP JUMPDEST PUSH1 0x0 PUSH1 0x8 DUP4 MUL PUSH3 0xB1F PUSH32 0xFFFFFFFFFFFFFFFFFFFFFFFFFFFFFFFFFFFFFFFFFFFFFFFFFFFFFFFFFFFFFFFF DUP3 PUSH3 0xAE0 JUMP JUMPDEST PUSH3 0xB2B DUP7 DUP4 PUSH3 0xAE0 JUMP JUMPDEST SWAP6 POP DUP1 NOT DUP5 AND SWAP4 POP DUP1 DUP7 AND DUP5 OR SWAP3 POP POP POP SWAP4 SWAP3 POP POP POP JUMP JUMPDEST PUSH1 0x0 DUP2 SWAP1 POP SWAP2 SWAP1 POP JUMP JUMPDEST PUSH1 0x0 DUP2 SWAP1 POP SWAP2 SWAP1 POP JUMP JUMPDEST PUSH1 0x0 PUSH3 0xB78 PUSH3 0xB72 PUSH3 0xB6C DUP5 PUSH3 0xB43 JUMP JUMPDEST PUSH3 0xB4D JUMP JUMPDEST PUSH3 0xB43 JUMP JUMPDEST SWAP1 POP SWAP2 SWAP1 POP JUMP JUMPDEST PUSH1 0x0 DUP2 SWAP1 POP SWAP2 SWAP1 POP JUMP JUMPDEST PUSH3 0xB94 DUP4 PUSH3 0xB57 JUMP JUMPDEST PUSH3 0xBAC PUSH3 0xBA3 DUP3 PUSH3 0xB7F JUMP JUMPDEST DUP5 DUP5 SLOAD PUSH3 0xAED JUMP JUMPDEST DUP3 SSTORE POP POP POP POP JUMP JUMPDEST PUSH1 0x0 SWAP1 JUMP JUMPDEST PUSH3 0xBC3 PUSH3 0xBB4 JUMP JUMPDEST PUSH3 0xBD0 DUP2 DUP5 DUP5 PUSH3 0xB89 JUMP JUMPDEST POP POP POP JUMP JUMPDEST JUMPDEST DUP2 DUP2 LT ISZERO PUSH3 0xBF8 JUMPI PUSH3 0xBEC PUSH1 0x0 DUP3 PUSH3 0xBB9 JUMP JUMPDEST PUSH1 0x1 DUP2 ADD SWAP1 POP PUSH3 0xBD6 JUMP JUMPDEST POP POP JUMP JUMPDEST PUSH1 0x1F DUP3 GT ISZERO PUSH3 0xC47 JUMPI PUSH3 0xC11 DUP2 PUSH3 0xABB JUMP JUMPDEST PUSH3 0xC1C DUP5 PUSH3 0xAD0 JUMP JUMPDEST DUP2 ADD PUSH1 0x20 DUP6 LT ISZERO PUSH3 0xC2C JUMPI DUP2 SWAP1 POP JUMPDEST PUSH3 0xC44 PUSH3 0xC3B DUP6 PUSH3 0xAD0 JUMP JUMPDEST DUP4 ADD DUP3 PUSH3 0xBD5 JUMP JUMPDEST POP POP JUMPDEST POP POP POP JUMP JUMPDEST PUSH1 0x0 DUP3 DUP3 SHR SWAP1 POP SWAP3 SWAP2 POP POP JUMP JUMPDEST PUSH1 0x0 PUSH3 0xC6C PUSH1 0x0 NOT DUP5 PUSH1 0x8 MUL PUSH3 0xC4C JUMP JUMPDEST NOT DUP1 DUP4 AND SWAP2 POP POP SWAP3 SWAP2 POP POP JUMP JUMPDEST PUSH1 0x0 PUSH3 0xC87 DUP4 DUP4 PUSH3 0xC59 JUMP JUMPDEST SWAP2 POP DUP3 PUSH1 0x2 MUL DUP3 OR SWAP1 POP SWAP3 SWAP2 POP POP JUMP JUMPDEST PUSH3 0xCA2 DUP3 PUSH3 0xA1D JUMP JUMPDEST PUSH8 0xFFFFFFFFFFFFFFFF DUP2 GT ISZERO PUSH3 0xCBE JUMPI PUSH3 0xCBD PUSH3 0xA28 JUMP JUMPDEST JUMPDEST PUSH3 0xCCA DUP3 SLOAD PUSH3 0xA86 JUMP JUMPDEST PUSH3 0xCD7 DUP3 DUP3 DUP6 PUSH3 0xBFC JUMP JUMPDEST PUSH1 0x0 PUSH1 0x20 SWAP1 POP PUSH1 0x1F DUP4 GT PUSH1 0x1 DUP2 EQ PUSH3 0xD0F JUMPI PUSH1 0x0 DUP5 ISZERO PUSH3 0xCFA JUMPI DUP3 DUP8 ADD MLOAD SWAP1 POP JUMPDEST PUSH3 0xD06 DUP6 DUP3 PUSH3 0xC79 JUMP JUMPDEST DUP7 SSTORE POP PUSH3 0xD76 JUMP JUMPDEST PUSH1 0x1F NOT DUP5 AND PUSH3 0xD1F DUP7 PUSH3 0xABB JUMP JUMPDEST PUSH1 0x0 JUMPDEST DUP3 DUP2 LT ISZERO PUSH3 0xD49 JUMPI DUP5 DUP10 ADD MLOAD DUP3 SSTORE PUSH1 0x1 DUP3 ADD SWAP2 POP PUSH1 0x20 DUP6 ADD SWAP5 POP PUSH1 0x20 DUP2 ADD SWAP1 POP PUSH3 0xD22 JUMP JUMPDEST DUP7 DUP4 LT ISZERO PUSH3 0xD69 JUMPI DUP5 DUP10 ADD MLOAD PUSH3 0xD65 PUSH1 0x1F DUP10 AND DUP3 PUSH3 0xC59 JUMP JUMPDEST DUP4 SSTORE POP JUMPDEST PUSH1 0x1 PUSH1 0x2 DUP9 MUL ADD DUP9 SSTORE POP POP POP JUMPDEST POP POP POP POP POP POP JUMP JUMPDEST PUSH32 0x4E487B7100000000000000000000000000000000000000000000000000000000 PUSH1 0x0 MSTORE PUSH1 0x32 PUSH1 0x4 MSTORE PUSH1 0x24 PUSH1 0x0 REVERT JUMPDEST PUSH32 0x4E487B7100000000000000000000000000000000000000000000000000000000 PUSH1 0x0 MSTORE PUSH1 0x11 PUSH1 0x4 MSTORE PUSH1 0x24 PUSH1 0x0 REVERT JUMPDEST PUSH1 0x0 PUSH3 0xDE9 DUP3 PUSH3 0xB43 JUMP JUMPDEST SWAP2 POP PUSH32 0xFFFFFFFFFFFFFFFFFFFFFFFFFFFFFFFFFFFFFFFFFFFFFFFFFFFFFFFFFFFFFFFF DUP3 SUB PUSH3 0xE1E JUMPI PUSH3 0xE1D PUSH3 0xDAD JUMP JUMPDEST JUMPDEST PUSH1 0x1 DUP3 ADD SWAP1 POP SWAP2 SWAP1 POP JUMP JUMPDEST PUSH1 0x0 DUP2 PUSH1 0x1 SHR SWAP1 POP SWAP2 SWAP1 POP JUMP JUMPDEST PUSH1 0x0 DUP1 DUP3 SWAP2 POP DUP4 SWAP1 POP JUMPDEST PUSH1 0x1 DUP6 GT ISZERO PUSH3 0xE88 JUMPI DUP1 DUP7 DIV DUP2 GT ISZERO PUSH3 0xE60 JUMPI PUSH3 0xE5F PUSH3 0xDAD JUMP JUMPDEST JUMPDEST PUSH1 0x1 DUP6 AND ISZERO PUSH3 0xE70 JUMPI DUP1 DUP3 MUL SWAP2 POP JUMPDEST DUP1 DUP2 MUL SWAP1 POP PUSH3 0xE80 DUP6 PUSH3 0xE29 JUMP JUMPDEST SWAP5 POP PUSH3 0xE40 JUMP JUMPDEST SWAP5 POP SWAP5 SWAP3 POP POP POP JUMP JUMPDEST PUSH1 0x0 DUP3 PUSH3 0xEA3 JUMPI PUSH1 0x1 SWAP1 POP PUSH3 0xF76 JUMP JUMPDEST DUP2 PUSH3 0xEB3 JUMPI PUSH1 0x0 SWAP1 POP PUSH3 0xF76 JUMP JUMPDEST DUP2 PUSH1 0x1 DUP2 EQ PUSH3 0xECC JUMPI PUSH1 0x2 DUP2 EQ PUSH3 0xED7 JUMPI PUSH3 0xF0D JUMP JUMPDEST PUSH1 0x1 SWAP2 POP POP PUSH3 0xF76 JUMP JUMPDEST PUSH1 0xFF DUP5 GT ISZERO PUSH3 0xEEC JUMPI PUSH3 0xEEB PUSH3 0xDAD JUMP JUMPDEST JUMPDEST DUP4 PUSH1 0x2 EXP SWAP2 POP DUP5 DUP3 GT ISZERO PUSH3 0xF06 JUMPI PUSH3 0xF05 PUSH3 0xDAD JUMP JUMPDEST JUMPDEST POP PUSH3 0xF76 JUMP JUMPDEST POP PUSH1 0x20 DUP4 LT PUSH2 0x133 DUP4 LT AND PUSH1 0x4E DUP5 LT PUSH1 0xB DUP5 LT AND OR ISZERO PUSH3 0xF47 JUMPI DUP3 DUP3 EXP SWAP1 POP DUP4 DUP2 GT ISZERO PUSH3 0xF41 JUMPI PUSH3 0xF40 PUSH3 0xDAD JUMP JUMPDEST JUMPDEST PUSH3 0xF76 JUMP JUMPDEST PUSH3 0xF56 DUP5 DUP5 DUP5 PUSH1 0x1 PUSH3 0xE36 JUMP JUMPDEST SWAP3 POP SWAP1 POP DUP2 DUP5 DIV DUP2 GT ISZERO PUSH3 0xF70 JUMPI PUSH3 0xF6F PUSH3 0xDAD JUMP JUMPDEST JUMPDEST DUP2 DUP2 MUL SWAP1 POP JUMPDEST SWAP4 SWAP3 POP POP POP JUMP JUMPDEST PUSH1 0x0 PUSH3 0xF8A DUP3 PUSH3 0xB43 JUMP JUMPDEST SWAP2 POP PUSH3 0xF97 DUP4 PUSH3 0xB43 JUMP JUMPDEST SWAP3 POP PUSH3 0xFC6 PUSH32 0xFFFFFFFFFFFFFFFFFFFFFFFFFFFFFFFFFFFFFFFFFFFFFFFFFFFFFFFFFFFFFFFF DUP5 DUP5 PUSH3 0xE91 JUMP JUMPDEST SWAP1 POP SWAP3 SWAP2 POP POP JUMP JUMPDEST PUSH1 0x0 PUSH3 0xFDB DUP3 PUSH3 0xB43 JUMP JUMPDEST SWAP2 POP PUSH3 0xFE8 DUP4 PUSH3 0xB43 JUMP JUMPDEST SWAP3 POP DUP3 DUP3 MUL PUSH3 0xFF8 DUP2 PUSH3 0xB43 JUMP JUMPDEST SWAP2 POP DUP3 DUP3 DIV DUP5 EQ DUP4 ISZERO OR PUSH3 0x1012 JUMPI PUSH3 0x1011 PUSH3 0xDAD JUMP JUMPDEST JUMPDEST POP SWAP3 SWAP2 POP POP JUMP JUMPDEST PUSH1 0x0 DUP3 DUP3 MSTORE PUSH1 0x20 DUP3 ADD SWAP1 POP SWAP3 SWAP2 POP POP JUMP JUMPDEST PUSH32 0x45524332303A206D696E7420746F20746865207A65726F206164647265737300 PUSH1 0x0 DUP3 ADD MSTORE POP JUMP JUMPDEST PUSH1 0x0 PUSH3 0x1062 PUSH1 0x1F DUP4 PUSH3 0x1019 JUMP JUMPDEST SWAP2 POP PUSH3 0x106F DUP3 PUSH3 0x102A JUMP JUMPDEST PUSH1 0x20 DUP3 ADD SWAP1 POP SWAP2 SWAP1 POP JUMP JUMPDEST PUSH1 0x0 PUSH1 0x20 DUP3 ADD SWAP1 POP DUP2 DUP2 SUB PUSH1 0x0 DUP4 ADD MSTORE PUSH3 0x1095 DUP2 PUSH3 0x1053 JUMP JUMPDEST SWAP1 POP SWAP2 SWAP1 POP JUMP JUMPDEST PUSH1 0x0 PUSH3 0x10A9 DUP3 PUSH3 0xB43 JUMP JUMPDEST SWAP2 POP PUSH3 0x10B6 DUP4 PUSH3 0xB43 JUMP JUMPDEST SWAP3 POP DUP3 DUP3 ADD SWAP1 POP DUP1 DUP3 GT ISZERO PUSH3 0x10D1 JUMPI PUSH3 0x10D0 PUSH3 0xDAD JUMP JUMPDEST JUMPDEST SWAP3 SWAP2 POP POP JUMP JUMPDEST PUSH3 0x10E2 DUP2 PUSH3 0xB43 JUMP JUMPDEST DUP3 MSTORE POP POP JUMP JUMPDEST PUSH1 0x0 PUSH1 0x20 DUP3 ADD SWAP1 POP PUSH3 0x10FF PUSH1 0x0 DUP4 ADD DUP5 PUSH3 0x10D7 JUMP JUMPDEST SWAP3 SWAP2 POP POP JUMP JUMPDEST PUSH2 0x531A DUP1 PUSH3 0x1115 PUSH1 0x0 CODECOPY PUSH1 0x0 RETURN INVALID PUSH1 0x80 PUSH1 0x40 MSTORE CALLVALUE DUP1 ISZERO PUSH2 0x10 JUMPI PUSH1 0x0 DUP1 REVERT JUMPDEST POP PUSH1 0x4 CALLDATASIZE LT PUSH2 0x21C JUMPI PUSH1 0x0 CALLDATALOAD PUSH1 0xE0 SHR DUP1 PUSH4 0x70A08231 GT PUSH2 0x125 JUMPI DUP1 PUSH4 0xA9059CBB GT PUSH2 0xAD JUMPI DUP1 PUSH4 0xD83623DD GT PUSH2 0x7C JUMPI DUP1 PUSH4 0xD83623DD EQ PUSH2 0x660 JUMPI DUP1 PUSH4 0xDAB950A7 EQ PUSH2 0x66A JUMPI DUP1 PUSH4 0xDD62ED3E EQ PUSH2 0x688 JUMPI DUP1 PUSH4 0xEA4F74D7 EQ PUSH2 0x6B8 JUMPI DUP1 PUSH4 0xFFF5982B EQ PUSH2 0x6D6 JUMPI PUSH2 0x21C JUMP JUMPDEST DUP1 PUSH4 0xA9059CBB EQ PUSH2 0x5C4 JUMPI DUP1 PUSH4 0xA94BEEE2 EQ PUSH2 0x5F4 JUMPI DUP1 PUSH4 0xC4215398 EQ PUSH2 0x612 JUMPI DUP1 PUSH4 0xC8BBE68D EQ PUSH2 0x630 JUMPI PUSH2 0x21C JUMP JUMPDEST DUP1 PUSH4 0x95D89B41 GT PUSH2 0xF4 JUMPI DUP1 PUSH4 0x95D89B41 EQ PUSH2 0x51B JUMPI DUP1 PUSH4 0x973EA9D5 EQ PUSH2 0x539 JUMPI DUP1 PUSH4 0x9EAE005F EQ PUSH2 0x557 JUMPI DUP1 PUSH4 0xA1B140B6 EQ PUSH2 0x575 JUMPI DUP1 PUSH4 0xA457C2D7 EQ PUSH2 0x594 JUMPI PUSH2 0x21C JUMP JUMPDEST DUP1 PUSH4 0x70A08231 EQ PUSH2 0x4A7 JUMPI DUP1 PUSH4 0x742887FF EQ PUSH2 0x4D7 JUMPI DUP1 PUSH4 0x8A190C01 EQ PUSH2 0x4F3 JUMPI DUP1 PUSH4 0x8DB351D9 EQ PUSH2 0x4FD JUMPI PUSH2 0x21C JUMP JUMPDEST DUP1 PUSH4 0x3891786B GT PUSH2 0x1A8 JUMPI DUP1 PUSH4 0x4811C070 GT PUSH2 0x177 JUMPI DUP1 PUSH4 0x4811C070 EQ PUSH2 0x3ED JUMPI DUP1 PUSH4 0x5652E6CA EQ PUSH2 0x40B JUMPI DUP1 PUSH4 0x5B9DE1D3 EQ PUSH2 0x429 JUMPI DUP1 PUSH4 0x6735B3A7 EQ PUSH2 0x447 JUMPI DUP1 PUSH4 0x6C9CD097 EQ PUSH2 0x477 JUMPI PUSH2 0x21C JUMP JUMPDEST DUP1 PUSH4 0x3891786B EQ PUSH2 0x365 JUMPI DUP1 PUSH4 0x38EADA1C EQ PUSH2 0x383 JUMPI DUP1 PUSH4 0x39509351 EQ PUSH2 0x39F JUMPI DUP1 PUSH4 0x3DA3364D EQ PUSH2 0x3CF JUMPI PUSH2 0x21C JUMP JUMPDEST DUP1 PUSH4 0x20C09E24 GT PUSH2 0x1EF JUMPI DUP1 PUSH4 0x20C09E24 EQ PUSH2 0x2AB JUMPI DUP1 PUSH4 0x230B3790 EQ PUSH2 0x2C9 JUMPI DUP1 PUSH4 0x23B872DD EQ PUSH2 0x2F9 JUMPI DUP1 PUSH4 0x25C722BB EQ PUSH2 0x329 JUMPI DUP1 PUSH4 0x313CE567 EQ PUSH2 0x347 JUMPI PUSH2 0x21C JUMP JUMPDEST DUP1 PUSH4 0x6FDDE03 EQ PUSH2 0x221 JUMPI DUP1 PUSH4 0x95EA7B3 EQ PUSH2 0x23F JUMPI DUP1 PUSH4 0x10069F3E EQ PUSH2 0x26F JUMPI DUP1 PUSH4 0x18160DDD EQ PUSH2 0x28D JUMPI JUMPDEST PUSH1 0x0 DUP1 REVERT JUMPDEST PUSH2 0x229 PUSH2 0x6F4 JUMP JUMPDEST PUSH1 0x40 MLOAD PUSH2 0x236 SWAP2 SWAP1 PUSH2 0x3C4B JUMP JUMPDEST PUSH1 0x40 MLOAD DUP1 SWAP2 SUB SWAP1 RETURN JUMPDEST PUSH2 0x259 PUSH1 0x4 DUP1 CALLDATASIZE SUB DUP2 ADD SWAP1 PUSH2 0x254 SWAP2 SWAP1 PUSH2 0x3D15 JUMP JUMPDEST PUSH2 0x786 JUMP JUMPDEST PUSH1 0x40 MLOAD PUSH2 0x266 SWAP2 SWAP1 PUSH2 0x3D70 JUMP JUMPDEST PUSH1 0x40 MLOAD DUP1 SWAP2 SUB SWAP1 RETURN JUMPDEST PUSH2 0x277 PUSH2 0x7A4 JUMP JUMPDEST PUSH1 0x40 MLOAD PUSH2 0x284 SWAP2 SWAP1 PUSH2 0x3D9A JUMP JUMPDEST PUSH1 0x40 MLOAD DUP1 SWAP2 SUB SWAP1 RETURN JUMPDEST PUSH2 0x295 PUSH2 0x7CA JUMP JUMPDEST PUSH1 0x40 MLOAD PUSH2 0x2A2 SWAP2 SWAP1 PUSH2 0x3DC4 JUMP JUMPDEST PUSH1 0x40 MLOAD DUP1 SWAP2 SUB SWAP1 RETURN JUMPDEST PUSH2 0x2B3 PUSH2 0x7D4 JUMP JUMPDEST PUSH1 0x40 MLOAD PUSH2 0x2C0 SWAP2 SWAP1 PUSH2 0x3D9A JUMP JUMPDEST PUSH1 0x40 MLOAD DUP1 SWAP2 SUB SWAP1 RETURN JUMPDEST PUSH2 0x2E3 PUSH1 0x4 DUP1 CALLDATASIZE SUB DUP2 ADD SWAP1 PUSH2 0x2DE SWAP2 SWAP1 PUSH2 0x3DDF JUMP JUMPDEST PUSH2 0x7FA JUMP JUMPDEST PUSH1 0x40 MLOAD PUSH2 0x2F0 SWAP2 SWAP1 PUSH2 0x3D70 JUMP JUMPDEST PUSH1 0x40 MLOAD DUP1 SWAP2 SUB SWAP1 RETURN JUMPDEST PUSH2 0x313 PUSH1 0x4 DUP1 CALLDATASIZE SUB DUP2 ADD SWAP1 PUSH2 0x30E SWAP2 SWAP1 PUSH2 0x3E0C JUMP JUMPDEST PUSH2 0x95A JUMP JUMPDEST PUSH1 0x40 MLOAD PUSH2 0x320 SWAP2 SWAP1 PUSH2 0x3D70 JUMP JUMPDEST PUSH1 0x40 MLOAD DUP1 SWAP2 SUB SWAP1 RETURN JUMPDEST PUSH2 0x331 PUSH2 0xA79 JUMP JUMPDEST PUSH1 0x40 MLOAD PUSH2 0x33E SWAP2 SWAP1 PUSH2 0x3D9A JUMP JUMPDEST PUSH1 0x40 MLOAD DUP1 SWAP2 SUB SWAP1 RETURN JUMPDEST PUSH2 0x34F PUSH2 0xA9F JUMP JUMPDEST PUSH1 0x40 MLOAD PUSH2 0x35C SWAP2 SWAP1 PUSH2 0x3E7B JUMP JUMPDEST PUSH1 0x40 MLOAD DUP1 SWAP2 SUB SWAP1 RETURN JUMPDEST PUSH2 0x36D PUSH2 0xAA8 JUMP JUMPDEST PUSH1 0x40 MLOAD PUSH2 0x37A SWAP2 SWAP1 PUSH2 0x3D70 JUMP JUMPDEST PUSH1 0x40 MLOAD DUP1 SWAP2 SUB SWAP1 RETURN JUMPDEST PUSH2 0x39D PUSH1 0x4 DUP1 CALLDATASIZE SUB DUP2 ADD SWAP1 PUSH2 0x398 SWAP2 SWAP1 PUSH2 0x3DDF JUMP JUMPDEST PUSH2 0xB69 JUMP JUMPDEST STOP JUMPDEST PUSH2 0x3B9 PUSH1 0x4 DUP1 CALLDATASIZE SUB DUP2 ADD SWAP1 PUSH2 0x3B4 SWAP2 SWAP1 PUSH2 0x3D15 JUMP JUMPDEST PUSH2 0xE95 JUMP JUMPDEST PUSH1 0x40 MLOAD PUSH2 0x3C6 SWAP2 SWAP1 PUSH2 0x3D70 JUMP JUMPDEST PUSH1 0x40 MLOAD DUP1 SWAP2 SUB SWAP1 RETURN JUMPDEST PUSH2 0x3D7 PUSH2 0xF41 JUMP JUMPDEST PUSH1 0x40 MLOAD PUSH2 0x3E4 SWAP2 SWAP1 PUSH2 0x3D9A JUMP JUMPDEST PUSH1 0x40 MLOAD DUP1 SWAP2 SUB SWAP1 RETURN JUMPDEST PUSH2 0x3F5 PUSH2 0xF67 JUMP JUMPDEST PUSH1 0x40 MLOAD PUSH2 0x402 SWAP2 SWAP1 PUSH2 0x3D9A JUMP JUMPDEST PUSH1 0x40 MLOAD DUP1 SWAP2 SUB SWAP1 RETURN JUMPDEST PUSH2 0x413 PUSH2 0xF8D JUMP JUMPDEST PUSH1 0x40 MLOAD PUSH2 0x420 SWAP2 SWAP1 PUSH2 0x3D9A JUMP JUMPDEST PUSH1 0x40 MLOAD DUP1 SWAP2 SUB SWAP1 RETURN JUMPDEST PUSH2 0x431 PUSH2 0xFB3 JUMP JUMPDEST PUSH1 0x40 MLOAD PUSH2 0x43E SWAP2 SWAP1 PUSH2 0x3D9A JUMP JUMPDEST PUSH1 0x40 MLOAD DUP1 SWAP2 SUB SWAP1 RETURN JUMPDEST PUSH2 0x461 PUSH1 0x4 DUP1 CALLDATASIZE SUB DUP2 ADD SWAP1 PUSH2 0x45C SWAP2 SWAP1 PUSH2 0x3FCB JUMP JUMPDEST PUSH2 0xFD9 JUMP JUMPDEST PUSH1 0x40 MLOAD PUSH2 0x46E SWAP2 SWAP1 PUSH2 0x3D70 JUMP JUMPDEST PUSH1 0x40 MLOAD DUP1 SWAP2 SUB SWAP1 RETURN JUMPDEST PUSH2 0x491 PUSH1 0x4 DUP1 CALLDATASIZE SUB DUP2 ADD SWAP1 PUSH2 0x48C SWAP2 SWAP1 PUSH2 0x3FCB JUMP JUMPDEST PUSH2 0x13BA JUMP JUMPDEST PUSH1 0x40 MLOAD PUSH2 0x49E SWAP2 SWAP1 PUSH2 0x3D70 JUMP JUMPDEST PUSH1 0x40 MLOAD DUP1 SWAP2 SUB SWAP1 RETURN JUMPDEST PUSH2 0x4C1 PUSH1 0x4 DUP1 CALLDATASIZE SUB DUP2 ADD SWAP1 PUSH2 0x4BC SWAP2 SWAP1 PUSH2 0x3DDF JUMP JUMPDEST PUSH2 0x1721 JUMP JUMPDEST PUSH1 0x40 MLOAD PUSH2 0x4CE SWAP2 SWAP1 PUSH2 0x3DC4 JUMP JUMPDEST PUSH1 0x40 MLOAD DUP1 SWAP2 SUB SWAP1 RETURN JUMPDEST PUSH2 0x4F1 PUSH1 0x4 DUP1 CALLDATASIZE SUB DUP2 ADD SWAP1 PUSH2 0x4EC SWAP2 SWAP1 PUSH2 0x3DDF JUMP JUMPDEST PUSH2 0x1769 JUMP JUMPDEST STOP JUMPDEST PUSH2 0x4FB PUSH2 0x1A1A JUMP JUMPDEST STOP JUMPDEST PUSH2 0x505 PUSH2 0x1C5C JUMP JUMPDEST PUSH1 0x40 MLOAD PUSH2 0x512 SWAP2 SWAP1 PUSH2 0x3D9A JUMP JUMPDEST PUSH1 0x40 MLOAD DUP1 SWAP2 SUB SWAP1 RETURN JUMPDEST PUSH2 0x523 PUSH2 0x1C82 JUMP JUMPDEST PUSH1 0x40 MLOAD PUSH2 0x530 SWAP2 SWAP1 PUSH2 0x3C4B JUMP JUMPDEST PUSH1 0x40 MLOAD DUP1 SWAP2 SUB SWAP1 RETURN JUMPDEST PUSH2 0x541 PUSH2 0x1D14 JUMP JUMPDEST PUSH1 0x40 MLOAD PUSH2 0x54E SWAP2 SWAP1 PUSH2 0x3D9A JUMP JUMPDEST PUSH1 0x40 MLOAD DUP1 SWAP2 SUB SWAP1 RETURN JUMPDEST PUSH2 0x55F PUSH2 0x1D3A JUMP JUMPDEST PUSH1 0x40 MLOAD PUSH2 0x56C SWAP2 SWAP1 PUSH2 0x3C4B JUMP JUMPDEST PUSH1 0x40 MLOAD DUP1 SWAP2 SUB SWAP1 RETURN JUMPDEST PUSH2 0x57D PUSH2 0x2017 JUMP JUMPDEST PUSH1 0x40 MLOAD PUSH2 0x58B SWAP3 SWAP2 SWAP1 PUSH2 0x4027 JUMP JUMPDEST PUSH1 0x40 MLOAD DUP1 SWAP2 SUB SWAP1 RETURN JUMPDEST PUSH2 0x5AE PUSH1 0x4 DUP1 CALLDATASIZE SUB DUP2 ADD SWAP1 PUSH2 0x5A9 SWAP2 SWAP1 PUSH2 0x3D15 JUMP JUMPDEST PUSH2 0x2171 JUMP JUMPDEST PUSH1 0x40 MLOAD PUSH2 0x5BB SWAP2 SWAP1 PUSH2 0x3D70 JUMP JUMPDEST PUSH1 0x40 MLOAD DUP1 SWAP2 SUB SWAP1 RETURN JUMPDEST PUSH2 0x5DE PUSH1 0x4 DUP1 CALLDATASIZE SUB DUP2 ADD SWAP1 PUSH2 0x5D9 SWAP2 SWAP1 PUSH2 0x3D15 JUMP JUMPDEST PUSH2 0x225C JUMP JUMPDEST PUSH1 0x40 MLOAD PUSH2 0x5EB SWAP2 SWAP1 PUSH2 0x3D70 JUMP JUMPDEST PUSH1 0x40 MLOAD DUP1 SWAP2 SUB SWAP1 RETURN JUMPDEST PUSH2 0x5FC PUSH2 0x227A JUMP JUMPDEST PUSH1 0x40 MLOAD PUSH2 0x609 SWAP2 SWAP1 PUSH2 0x3D9A JUMP JUMPDEST PUSH1 0x40 MLOAD DUP1 SWAP2 SUB SWAP1 RETURN JUMPDEST PUSH2 0x61A PUSH2 0x22A0 JUMP JUMPDEST PUSH1 0x40 MLOAD PUSH2 0x627 SWAP2 SWAP1 PUSH2 0x3D9A JUMP JUMPDEST PUSH1 0x40 MLOAD DUP1 SWAP2 SUB SWAP1 RETURN JUMPDEST PUSH2 0x64A PUSH1 0x4 DUP1 CALLDATASIZE SUB DUP2 ADD SWAP1 PUSH2 0x645 SWAP2 SWAP1 PUSH2 0x3FCB JUMP JUMPDEST PUSH2 0x22C6 JUMP JUMPDEST PUSH1 0x40 MLOAD PUSH2 0x657 SWAP2 SWAP1 PUSH2 0x3D70 JUMP JUMPDEST PUSH1 0x40 MLOAD DUP1 SWAP2 SUB SWAP1 RETURN JUMPDEST PUSH2 0x668 PUSH2 0x25E7 JUMP JUMPDEST STOP JUMPDEST PUSH2 0x672 PUSH2 0x2BB8 JUMP JUMPDEST PUSH1 0x40 MLOAD PUSH2 0x67F SWAP2 SWAP1 PUSH2 0x3D9A JUMP JUMPDEST PUSH1 0x40 MLOAD DUP1 SWAP2 SUB SWAP1 RETURN JUMPDEST PUSH2 0x6A2 PUSH1 0x4 DUP1 CALLDATASIZE SUB DUP2 ADD SWAP1 PUSH2 0x69D SWAP2 SWAP1 PUSH2 0x4050 JUMP JUMPDEST PUSH2 0x2BDE JUMP JUMPDEST PUSH1 0x40 MLOAD PUSH2 0x6AF SWAP2 SWAP1 PUSH2 0x3DC4 JUMP JUMPDEST PUSH1 0x40 MLOAD DUP1 SWAP2 SUB SWAP1 RETURN JUMPDEST PUSH2 0x6C0 PUSH2 0x2C65 JUMP JUMPDEST PUSH1 0x40 MLOAD PUSH2 0x6CD SWAP2 SWAP1 PUSH2 0x3D9A JUMP JUMPDEST PUSH1 0x40 MLOAD DUP1 SWAP2 SUB SWAP1 RETURN JUMPDEST PUSH2 0x6DE PUSH2 0x2C8B JUMP JUMPDEST PUSH1 0x40 MLOAD PUSH2 0x6EB SWAP2 SWAP1 PUSH2 0x3D9A JUMP JUMPDEST PUSH1 0x40 MLOAD DUP1 SWAP2 SUB SWAP1 RETURN JUMPDEST PUSH1 0x60 PUSH1 0x3 DUP1 SLOAD PUSH2 0x703 SWAP1 PUSH2 0x40BF JUMP JUMPDEST DUP1 PUSH1 0x1F ADD PUSH1 0x20 DUP1 SWAP2 DIV MUL PUSH1 0x20 ADD PUSH1 0x40 MLOAD SWAP1 DUP2 ADD PUSH1 0x40 MSTORE DUP1 SWAP3 SWAP2 SWAP1 DUP2 DUP2 MSTORE PUSH1 0x20 ADD DUP3 DUP1 SLOAD PUSH2 0x72F SWAP1 PUSH2 0x40BF JUMP JUMPDEST DUP1 ISZERO PUSH2 0x77C JUMPI DUP1 PUSH1 0x1F LT PUSH2 0x751 JUMPI PUSH2 0x100 DUP1 DUP4 SLOAD DIV MUL DUP4 MSTORE SWAP2 PUSH1 0x20 ADD SWAP2 PUSH2 0x77C JUMP JUMPDEST DUP3 ADD SWAP2 SWAP1 PUSH1 0x0 MSTORE PUSH1 0x20 PUSH1 0x0 KECCAK256 SWAP1 JUMPDEST DUP2 SLOAD DUP2 MSTORE SWAP1 PUSH1 0x1 ADD SWAP1 PUSH1 0x20 ADD DUP1 DUP4 GT PUSH2 0x75F JUMPI DUP3 SWAP1 SUB PUSH1 0x1F AND DUP3 ADD SWAP2 JUMPDEST POP POP POP POP POP SWAP1 POP SWAP1 JUMP JUMPDEST PUSH1 0x0 PUSH2 0x79A PUSH2 0x793 PUSH2 0x2CB1 JUMP JUMPDEST DUP5 DUP5 PUSH2 0x2CB9 JUMP JUMPDEST PUSH1 0x1 SWAP1 POP SWAP3 SWAP2 POP POP JUMP JUMPDEST PUSH1 0x12 PUSH1 0x0 SWAP1 SLOAD SWAP1 PUSH2 0x100 EXP SWAP1 DIV PUSH20 0xFFFFFFFFFFFFFFFFFFFFFFFFFFFFFFFFFFFFFFFF AND DUP2 JUMP JUMPDEST PUSH1 0x0 PUSH1 0x2 SLOAD SWAP1 POP SWAP1 JUMP JUMPDEST PUSH1 0x15 PUSH1 0x0 SWAP1 SLOAD SWAP1 PUSH2 0x100 EXP SWAP1 DIV PUSH20 0xFFFFFFFFFFFFFFFFFFFFFFFFFFFFFFFFFFFFFFFF AND DUP2 JUMP JUMPDEST PUSH1 0x0 PUSH1 0x5 PUSH1 0x0 SWAP1 SLOAD SWAP1 PUSH2 0x100 EXP SWAP1 DIV PUSH20 0xFFFFFFFFFFFFFFFFFFFFFFFFFFFFFFFFFFFFFFFF AND PUSH20 0xFFFFFFFFFFFFFFFFFFFFFFFFFFFFFFFFFFFFFFFF AND DUP3 PUSH20 0xFFFFFFFFFFFFFFFFFFFFFFFFFFFFFFFFFFFFFFFF AND EQ DUP1 PUSH2 0x8A5 JUMPI POP PUSH1 0x6 PUSH1 0x0 SWAP1 SLOAD SWAP1 PUSH2 0x100 EXP SWAP1 DIV PUSH20 0xFFFFFFFFFFFFFFFFFFFFFFFFFFFFFFFFFFFFFFFF AND PUSH20 0xFFFFFFFFFFFFFFFFFFFFFFFFFFFFFFFFFFFFFFFF AND DUP3 PUSH20 0xFFFFFFFFFFFFFFFFFFFFFFFFFFFFFFFFFFFFFFFF AND EQ JUMPDEST ISZERO PUSH2 0x8B3 JUMPI PUSH1 0x1 SWAP1 POP PUSH2 0x955 JUMP JUMPDEST PUSH1 0x0 JUMPDEST PUSH1 0x7 DUP1 SLOAD SWAP1 POP DUP2 LT ISZERO PUSH2 0x94F JUMPI DUP3 PUSH20 0xFFFFFFFFFFFFFFFFFFFFFFFFFFFFFFFFFFFFFFFF AND PUSH1 0x7 DUP3 DUP2 SLOAD DUP2 LT PUSH2 0x8EE JUMPI PUSH2 0x8ED PUSH2 0x40F0 JUMP JUMPDEST JUMPDEST SWAP1 PUSH1 0x0 MSTORE PUSH1 0x20 PUSH1 0x0 KECCAK256 ADD PUSH1 0x0 SWAP1 SLOAD SWAP1 PUSH2 0x100 EXP SWAP1 DIV PUSH20 0xFFFFFFFFFFFFFFFFFFFFFFFFFFFFFFFFFFFFFFFF AND PUSH20 0xFFFFFFFFFFFFFFFFFFFFFFFFFFFFFFFFFFFFFFFF AND SUB PUSH2 0x93E JUMPI PUSH1 0x1 SWAP2 POP POP PUSH2 0x955 JUMP JUMPDEST DUP1 PUSH2 0x948 SWAP1 PUSH2 0x414E JUMP JUMPDEST SWAP1 POP PUSH2 0x8B6 JUMP JUMPDEST POP PUSH1 0x0 SWAP1 POP JUMPDEST SWAP2 SWAP1 POP JUMP JUMPDEST PUSH1 0x0 DUP1 PUSH1 0x1 PUSH1 0x0 DUP7 PUSH20 0xFFFFFFFFFFFFFFFFFFFFFFFFFFFFFFFFFFFFFFFF AND PUSH20 0xFFFFFFFFFFFFFFFFFFFFFFFFFFFFFFFFFFFFFFFF AND DUP2 MSTORE PUSH1 0x20 ADD SWAP1 DUP2 MSTORE PUSH1 0x20 ADD PUSH1 0x0 KECCAK256 PUSH1 0x0 PUSH2 0x9A6 PUSH2 0x2CB1 JUMP JUMPDEST PUSH20 0xFFFFFFFFFFFFFFFFFFFFFFFFFFFFFFFFFFFFFFFF AND PUSH20 0xFFFFFFFFFFFFFFFFFFFFFFFFFFFFFFFFFFFFFFFF AND DUP2 MSTORE PUSH1 0x20 ADD SWAP1 DUP2 MSTORE PUSH1 0x20 ADD PUSH1 0x0 KECCAK256 SLOAD SWAP1 POP PUSH32 0xFFFFFFFFFFFFFFFFFFFFFFFFFFFFFFFFFFFFFFFFFFFFFFFFFFFFFFFFFFFFFFFF DUP2 EQ PUSH2 0xA62 JUMPI DUP3 DUP2 LT ISZERO PUSH2 0xA4D JUMPI PUSH1 0x40 MLOAD PUSH32 0x8C379A000000000000000000000000000000000000000000000000000000000 DUP2 MSTORE PUSH1 0x4 ADD PUSH2 0xA44 SWAP1 PUSH2 0x4208 JUMP JUMPDEST PUSH1 0x40 MLOAD DUP1 SWAP2 SUB SWAP1 REVERT JUMPDEST PUSH2 0xA61 DUP6 PUSH2 0xA59 PUSH2 0x2CB1 JUMP JUMPDEST DUP6 DUP5 SUB PUSH2 0x2CB9 JUMP JUMPDEST JUMPDEST PUSH2 0xA6D DUP6 DUP6 DUP6 PUSH2 0x2E82 JUMP JUMPDEST PUSH1 0x1 SWAP2 POP POP SWAP4 SWAP3 POP POP POP JUMP JUMPDEST PUSH1 0xF PUSH1 0x0 SWAP1 SLOAD SWAP1 PUSH2 0x100 EXP SWAP1 DIV PUSH20 0xFFFFFFFFFFFFFFFFFFFFFFFFFFFFFFFFFFFFFFFF AND DUP2 JUMP JUMPDEST PUSH1 0x0 PUSH1 0x12 SWAP1 POP SWAP1 JUMP JUMPDEST PUSH1 0x0 PUSH1 0x5 PUSH1 0x0 SWAP1 SLOAD SWAP1 PUSH2 0x100 EXP SWAP1 DIV PUSH20 0xFFFFFFFFFFFFFFFFFFFFFFFFFFFFFFFFFFFFFFFF AND PUSH20 0xFFFFFFFFFFFFFFFFFFFFFFFFFFFFFFFFFFFFFFFF AND CALLER PUSH20 0xFFFFFFFFFFFFFFFFFFFFFFFFFFFFFFFFFFFFFFFF AND EQ DUP1 PUSH2 0xB53 JUMPI POP PUSH1 0x6 PUSH1 0x0 SWAP1 SLOAD SWAP1 PUSH2 0x100 EXP SWAP1 DIV PUSH20 0xFFFFFFFFFFFFFFFFFFFFFFFFFFFFFFFFFFFFFFFF AND PUSH20 0xFFFFFFFFFFFFFFFFFFFFFFFFFFFFFFFFFFFFFFFF AND CALLER PUSH20 0xFFFFFFFFFFFFFFFFFFFFFFFFFFFFFFFFFFFFFFFF AND EQ JUMPDEST ISZERO PUSH2 0xB61 JUMPI PUSH1 0x1 SWAP1 POP PUSH2 0xB66 JUMP JUMPDEST PUSH1 0x0 SWAP1 POP JUMPDEST SWAP1 JUMP JUMPDEST PUSH1 0x5 PUSH1 0x0 SWAP1 SLOAD SWAP1 PUSH2 0x100 EXP SWAP1 DIV PUSH20 0xFFFFFFFFFFFFFFFFFFFFFFFFFFFFFFFFFFFFFFFF AND PUSH20 0xFFFFFFFFFFFFFFFFFFFFFFFFFFFFFFFFFFFFFFFF AND CALLER PUSH20 0xFFFFFFFFFFFFFFFFFFFFFFFFFFFFFFFFFFFFFFFF AND EQ DUP1 PUSH2 0xC12 JUMPI POP PUSH1 0x6 PUSH1 0x0 SWAP1 SLOAD SWAP1 PUSH2 0x100 EXP SWAP1 DIV PUSH20 0xFFFFFFFFFFFFFFFFFFFFFFFFFFFFFFFFFFFFFFFF AND PUSH20 0xFFFFFFFFFFFFFFFFFFFFFFFFFFFFFFFFFFFFFFFF AND CALLER PUSH20 0xFFFFFFFFFFFFFFFFFFFFFFFFFFFFFFFFFFFFFFFF AND EQ JUMPDEST PUSH2 0xC31 CALLER PUSH20 0xFFFFFFFFFFFFFFFFFFFFFFFFFFFFFFFFFFFFFFFF AND PUSH2 0x3101 JUMP JUMPDEST PUSH1 0x40 MLOAD PUSH1 0x20 ADD PUSH2 0xC41 SWAP2 SWAP1 PUSH2 0x42B0 JUMP JUMPDEST PUSH1 0x40 MLOAD PUSH1 0x20 DUP2 DUP4 SUB SUB DUP2 MSTORE SWAP1 PUSH1 0x40 MSTORE SWAP1 PUSH2 0xC91 JUMPI PUSH1 0x40 MLOAD PUSH32 0x8C379A000000000000000000000000000000000000000000000000000000000 DUP2 MSTORE PUSH1 0x4 ADD PUSH2 0xC88 SWAP2 SWAP1 PUSH2 0x3C4B JUMP JUMPDEST PUSH1 0x40 MLOAD DUP1 SWAP2 SUB SWAP1 REVERT JUMPDEST POP PUSH2 0xC9D DUP2 PUSH1 0x1 PUSH2 0x32E3 JUMP JUMPDEST ISZERO PUSH2 0xE86 JUMPI PUSH2 0xCAD DUP2 PUSH1 0x1 PUSH2 0x33D9 JUMP JUMPDEST ISZERO PUSH2 0xE49 JUMPI PUSH2 0xCBD DUP2 PUSH1 0x1 PUSH2 0x3672 JUMP JUMPDEST PUSH1 0x7 DUP2 SWAP1 DUP1 PUSH1 0x1 DUP2 SLOAD ADD DUP1 DUP3 SSTORE DUP1 SWAP2 POP POP PUSH1 0x1 SWAP1 SUB SWAP1 PUSH1 0x0 MSTORE PUSH1 0x20 PUSH1 0x0 KECCAK256 ADD PUSH1 0x0 SWAP1 SWAP2 SWAP1 SWAP2 SWAP1 SWAP2 PUSH2 0x100 EXP DUP2 SLOAD DUP2 PUSH20 0xFFFFFFFFFFFFFFFFFFFFFFFFFFFFFFFFFFFFFFFF MUL NOT AND SWAP1 DUP4 PUSH20 0xFFFFFFFFFFFFFFFFFFFFFFFFFFFFFFFFFFFFFFFF AND MUL OR SWAP1 SSTORE POP PUSH1 0x8 PUSH1 0x0 DUP3 PUSH20 0xFFFFFFFFFFFFFFFFFFFFFFFFFFFFFFFFFFFFFFFF AND PUSH20 0xFFFFFFFFFFFFFFFFFFFFFFFFFFFFFFFFFFFFFFFF AND DUP2 MSTORE PUSH1 0x20 ADD SWAP1 DUP2 MSTORE PUSH1 0x20 ADD PUSH1 0x0 KECCAK256 PUSH1 0x40 MLOAD DUP1 PUSH1 0x40 ADD PUSH1 0x40 MSTORE DUP1 PUSH1 0x1 ISZERO ISZERO DUP2 MSTORE PUSH1 0x20 ADD PUSH1 0x40 MLOAD DUP1 PUSH1 0x40 ADD PUSH1 0x40 MSTORE DUP1 PUSH1 0xA DUP2 MSTORE PUSH1 0x20 ADD PUSH32 0x4D41494E5F4F574E455200000000000000000000000000000000000000000000 DUP2 MSTORE POP DUP2 MSTORE POP SWAP1 DUP1 PUSH1 0x1 DUP2 SLOAD ADD DUP1 DUP3 SSTORE DUP1 SWAP2 POP POP PUSH1 0x1 SWAP1 SUB SWAP1 PUSH1 0x0 MSTORE PUSH1 0x20 PUSH1 0x0 KECCAK256 SWAP1 PUSH1 0x2 MUL ADD PUSH1 0x0 SWAP1 SWAP2 SWAP1 SWAP2 SWAP1 SWAP2 POP PUSH1 0x0 DUP3 ADD MLOAD DUP2 PUSH1 0x0 ADD PUSH1 0x0 PUSH2 0x100 EXP DUP2 SLOAD DUP2 PUSH1 0xFF MUL NOT AND SWAP1 DUP4 ISZERO ISZERO MUL OR SWAP1 SSTORE POP PUSH1 0x20 DUP3 ADD MLOAD DUP2 PUSH1 0x1 ADD SWAP1 DUP2 PUSH2 0xE0A SWAP2 SWAP1 PUSH2 0x447E JUMP JUMPDEST POP POP POP PUSH32 0xD2754BB25F80D82F28983DAEF636E09DD633511ED87D9A247D9982C495912DD3 DUP2 PUSH1 0x40 MLOAD PUSH2 0xE3C SWAP2 SWAP1 PUSH2 0x459C JUMP JUMPDEST PUSH1 0x40 MLOAD DUP1 SWAP2 SUB SWAP1 LOG1 PUSH2 0xE81 JUMP JUMPDEST PUSH32 0xE8FAADD3EA95010CEE81735CF90A770207ADD83D51E5309C696F9C23EC5D75CD DUP2 PUSH1 0x40 MLOAD PUSH2 0xE78 SWAP2 SWAP1 PUSH2 0x4616 JUMP JUMPDEST PUSH1 0x40 MLOAD DUP1 SWAP2 SUB SWAP1 LOG1 JUMPDEST PUSH2 0xE92 JUMP JUMPDEST PUSH2 0xE91 DUP2 PUSH1 0x1 PUSH2 0x38BA JUMP JUMPDEST JUMPDEST POP JUMP JUMPDEST PUSH1 0x0 PUSH2 0xF37 PUSH2 0xEA2 PUSH2 0x2CB1 JUMP JUMPDEST DUP5 DUP5 PUSH1 0x1 PUSH1 0x0 PUSH2 0xEB0 PUSH2 0x2CB1 JUMP JUMPDEST PUSH20 0xFFFFFFFFFFFFFFFFFFFFFFFFFFFFFFFFFFFFFFFF AND PUSH20 0xFFFFFFFFFFFFFFFFFFFFFFFFFFFFFFFFFFFFFFFF AND DUP2 MSTORE PUSH1 0x20 ADD SWAP1 DUP2 MSTORE PUSH1 0x20 ADD PUSH1 0x0 KECCAK256 PUSH1 0x0 DUP9 PUSH20 0xFFFFFFFFFFFFFFFFFFFFFFFFFFFFFFFFFFFFFFFF AND PUSH20 0xFFFFFFFFFFFFFFFFFFFFFFFFFFFFFFFFFFFFFFFF AND DUP2 MSTORE PUSH1 0x20 ADD SWAP1 DUP2 MSTORE PUSH1 0x20 ADD PUSH1 0x0 KECCAK256 SLOAD PUSH2 0xF32 SWAP2 SWAP1 PUSH2 0x4644 JUMP JUMPDEST PUSH2 0x2CB9 JUMP JUMPDEST PUSH1 0x1 SWAP1 POP SWAP3 SWAP2 POP POP JUMP JUMPDEST PUSH1 0x11 PUSH1 0x0 SWAP1 SLOAD SWAP1 PUSH2 0x100 EXP SWAP1 DIV PUSH20 0xFFFFFFFFFFFFFFFFFFFFFFFFFFFFFFFFFFFFFFFF AND DUP2 JUMP JUMPDEST PUSH1 0x16 PUSH1 0x0 SWAP1 SLOAD SWAP1 PUSH2 0x100 EXP SWAP1 DIV PUSH20 0xFFFFFFFFFFFFFFFFFFFFFFFFFFFFFFFFFFFFFFFF AND DUP2 JUMP JUMPDEST PUSH1 0xE PUSH1 0x0 SWAP1 SLOAD SWAP1 PUSH2 0x100 EXP SWAP1 DIV PUSH20 0xFFFFFFFFFFFFFFFFFFFFFFFFFFFFFFFFFFFFFFFF AND DUP2 JUMP JUMPDEST PUSH1 0x18 PUSH1 0x0 SWAP1 SLOAD SWAP1 PUSH2 0x100 EXP SWAP1 DIV PUSH20 0xFFFFFFFFFFFFFFFFFFFFFFFFFFFFFFFFFFFFFFFF AND DUP2 JUMP JUMPDEST PUSH1 0x0 PUSH2 0x101A PUSH1 0x40 MLOAD DUP1 PUSH1 0x40 ADD PUSH1 0x40 MSTORE DUP1 PUSH1 0xC DUP2 MSTORE PUSH1 0x20 ADD PUSH32 0x43414E5F4144445F524F4C450000000000000000000000000000000000000000 DUP2 MSTORE POP CALLER PUSH2 0x13BA JUMP JUMPDEST PUSH2 0x1039 CALLER PUSH20 0xFFFFFFFFFFFFFFFFFFFFFFFFFFFFFFFFFFFFFFFF AND PUSH2 0x3101 JUMP JUMPDEST PUSH1 0x40 MLOAD PUSH1 0x20 ADD PUSH2 0x1049 SWAP2 SWAP1 PUSH2 0x46C4 JUMP JUMPDEST PUSH1 0x40 MLOAD PUSH1 0x20 DUP2 DUP4 SUB SUB DUP2 MSTORE SWAP1 PUSH1 0x40 MSTORE SWAP1 PUSH2 0x1099 JUMPI PUSH1 0x40 MLOAD PUSH32 0x8C379A000000000000000000000000000000000000000000000000000000000 DUP2 MSTORE PUSH1 0x4 ADD PUSH2 0x1090 SWAP2 SWAP1 PUSH2 0x3C4B JUMP JUMPDEST PUSH1 0x40 MLOAD DUP1 SWAP2 SUB SWAP1 REVERT JUMPDEST POP PUSH1 0x0 JUMPDEST PUSH1 0x8 PUSH1 0x0 DUP5 PUSH20 0xFFFFFFFFFFFFFFFFFFFFFFFFFFFFFFFFFFFFFFFF AND PUSH20 0xFFFFFFFFFFFFFFFFFFFFFFFFFFFFFFFFFFFFFFFF AND DUP2 MSTORE PUSH1 0x20 ADD SWAP1 DUP2 MSTORE PUSH1 0x20 ADD PUSH1 0x0 KECCAK256 DUP1 SLOAD SWAP1 POP DUP2 GT PUSH2 0x12BD JUMPI PUSH1 0x0 PUSH1 0x8 PUSH1 0x0 DUP6 PUSH20 0xFFFFFFFFFFFFFFFFFFFFFFFFFFFFFFFFFFFFFFFF AND PUSH20 0xFFFFFFFFFFFFFFFFFFFFFFFFFFFFFFFFFFFFFFFF AND DUP2 MSTORE PUSH1 0x20 ADD SWAP1 DUP2 MSTORE PUSH1 0x20 ADD PUSH1 0x0 KECCAK256 DUP3 DUP2 SLOAD DUP2 LT PUSH2 0x1139 JUMPI PUSH2 0x1138 PUSH2 0x40F0 JUMP JUMPDEST JUMPDEST SWAP1 PUSH1 0x0 MSTORE PUSH1 0x20 PUSH1 0x0 KECCAK256 SWAP1 PUSH1 0x2 MUL ADD PUSH1 0x1 ADD DUP1 SLOAD PUSH2 0x1155 SWAP1 PUSH2 0x40BF JUMP JUMPDEST DUP1 PUSH1 0x1F ADD PUSH1 0x20 DUP1 SWAP2 DIV MUL PUSH1 0x20 ADD PUSH1 0x40 MLOAD SWAP1 DUP2 ADD PUSH1 0x40 MSTORE DUP1 SWAP3 SWAP2 SWAP1 DUP2 DUP2 MSTORE PUSH1 0x20 ADD DUP3 DUP1 SLOAD PUSH2 0x1181 SWAP1 PUSH2 0x40BF JUMP JUMPDEST DUP1 ISZERO PUSH2 0x11CE JUMPI DUP1 PUSH1 0x1F LT PUSH2 0x11A3 JUMPI PUSH2 0x100 DUP1 DUP4 SLOAD DIV MUL DUP4 MSTORE SWAP2 PUSH1 0x20 ADD SWAP2 PUSH2 0x11CE JUMP JUMPDEST DUP3 ADD SWAP2 SWAP1 PUSH1 0x0 MSTORE PUSH1 0x20 PUSH1 0x0 KECCAK256 SWAP1 JUMPDEST DUP2 SLOAD DUP2 MSTORE SWAP1 PUSH1 0x1 ADD SWAP1 PUSH1 0x20 ADD DUP1 DUP4 GT PUSH2 0x11B1 JUMPI DUP3 SWAP1 SUB PUSH1 0x1F AND DUP3 ADD SWAP2 JUMPDEST POP POP POP POP POP SWAP1 POP DUP5 PUSH1 0x40 MLOAD PUSH1 0x20 ADD PUSH2 0x11E6 SWAP2 SWAP1 PUSH2 0x46E6 JUMP JUMPDEST PUSH1 0x40 MLOAD PUSH1 0x20 DUP2 DUP4 SUB SUB DUP2 MSTORE SWAP1 PUSH1 0x40 MSTORE DUP1 MLOAD SWAP1 PUSH1 0x20 ADD KECCAK256 DUP2 PUSH1 0x40 MLOAD PUSH1 0x20 ADD PUSH2 0x120D SWAP2 SWAP1 PUSH2 0x46E6 JUMP JUMPDEST PUSH1 0x40 MLOAD PUSH1 0x20 DUP2 DUP4 SUB SUB DUP2 MSTORE SWAP1 PUSH1 0x40 MSTORE DUP1 MLOAD SWAP1 PUSH1 0x20 ADD KECCAK256 SUB PUSH2 0x12AB JUMPI PUSH1 0x1 PUSH1 0x8 PUSH1 0x0 DUP7 PUSH20 0xFFFFFFFFFFFFFFFFFFFFFFFFFFFFFFFFFFFFFFFF AND PUSH20 0xFFFFFFFFFFFFFFFFFFFFFFFFFFFFFFFFFFFFFFFF AND DUP2 MSTORE PUSH1 0x20 ADD SWAP1 DUP2 MSTORE PUSH1 0x20 ADD PUSH1 0x0 KECCAK256 DUP4 DUP2 SLOAD DUP2 LT PUSH2 0x127B JUMPI PUSH2 0x127A PUSH2 0x40F0 JUMP JUMPDEST JUMPDEST SWAP1 PUSH1 0x0 MSTORE PUSH1 0x20 PUSH1 0x0 KECCAK256 SWAP1 PUSH1 0x2 MUL ADD PUSH1 0x0 ADD PUSH1 0x0 PUSH2 0x100 EXP DUP2 SLOAD DUP2 PUSH1 0xFF MUL NOT AND SWAP1 DUP4 ISZERO ISZERO MUL OR SWAP1 SSTORE SWAP3 POP POP POP PUSH2 0x13B4 JUMP JUMPDEST POP DUP1 PUSH2 0x12B6 SWAP1 PUSH2 0x414E JUMP JUMPDEST SWAP1 POP PUSH2 0x109D JUMP JUMPDEST POP PUSH1 0x8 PUSH1 0x0 DUP4 PUSH20 0xFFFFFFFFFFFFFFFFFFFFFFFFFFFFFFFFFFFFFFFF AND PUSH20 0xFFFFFFFFFFFFFFFFFFFFFFFFFFFFFFFFFFFFFFFF AND DUP2 MSTORE PUSH1 0x20 ADD SWAP1 DUP2 MSTORE PUSH1 0x20 ADD PUSH1 0x0 KECCAK256 PUSH1 0x40 MLOAD DUP1 PUSH1 0x40 ADD PUSH1 0x40 MSTORE DUP1 PUSH1 0x1 ISZERO ISZERO DUP2 MSTORE PUSH1 0x20 ADD DUP6 DUP2 MSTORE POP SWAP1 DUP1 PUSH1 0x1 DUP2 SLOAD ADD DUP1 DUP3 SSTORE DUP1 SWAP2 POP POP PUSH1 0x1 SWAP1 SUB SWAP1 PUSH1 0x0 MSTORE PUSH1 0x20 PUSH1 0x0 KECCAK256 SWAP1 PUSH1 0x2 MUL ADD PUSH1 0x0 SWAP1 SWAP2 SWAP1 SWAP2 SWAP1 SWAP2 POP PUSH1 0x0 DUP3 ADD MLOAD DUP2 PUSH1 0x0 ADD PUSH1 0x0 PUSH2 0x100 EXP DUP2 SLOAD DUP2 PUSH1 0xFF MUL NOT AND SWAP1 DUP4 ISZERO ISZERO MUL OR SWAP1 SSTORE POP PUSH1 0x20 DUP3 ADD MLOAD DUP2 PUSH1 0x1 ADD SWAP1 DUP2 PUSH2 0x1373 SWAP2 SWAP1 PUSH2 0x447E JUMP JUMPDEST POP POP POP PUSH32 0x795998F47A4310517E8BFE9BB111B3315FC737453DDA161C0B583F1DA9353398 DUP4 DUP4 PUSH1 0x40 MLOAD PUSH2 0x13A7 SWAP3 SWAP2 SWAP1 PUSH2 0x4749 JUMP JUMPDEST PUSH1 0x40 MLOAD DUP1 SWAP2 SUB SWAP1 LOG1 PUSH1 0x1 SWAP1 POP JUMPDEST SWAP3 SWAP2 POP POP JUMP JUMPDEST PUSH1 0x0 PUSH2 0x13C5 DUP3 PUSH2 0x7FA JUMP JUMPDEST PUSH2 0x13E4 DUP4 PUSH20 0xFFFFFFFFFFFFFFFFFFFFFFFFFFFFFFFFFFFFFFFF AND PUSH2 0x3101 JUMP JUMPDEST PUSH1 0x40 MLOAD PUSH1 0x20 ADD PUSH2 0x13F4 SWAP2 SWAP1 PUSH2 0x47D8 JUMP JUMPDEST PUSH1 0x40 MLOAD PUSH1 0x20 DUP2 DUP4 SUB SUB DUP2 MSTORE SWAP1 PUSH1 0x40 MSTORE SWAP1 PUSH2 0x1444 JUMPI PUSH1 0x40 MLOAD PUSH32 0x8C379A000000000000000000000000000000000000000000000000000000000 DUP2 MSTORE PUSH1 0x4 ADD PUSH2 0x143B SWAP2 SWAP1 PUSH2 0x3C4B JUMP JUMPDEST PUSH1 0x40 MLOAD DUP1 SWAP2 SUB SWAP1 REVERT JUMPDEST POP PUSH1 0x5 PUSH1 0x0 SWAP1 SLOAD SWAP1 PUSH2 0x100 EXP SWAP1 DIV PUSH20 0xFFFFFFFFFFFFFFFFFFFFFFFFFFFFFFFFFFFFFFFF AND PUSH20 0xFFFFFFFFFFFFFFFFFFFFFFFFFFFFFFFFFFFFFFFF AND DUP3 PUSH20 0xFFFFFFFFFFFFFFFFFFFFFFFFFFFFFFFFFFFFFFFF AND EQ DUP1 PUSH2 0x14EE JUMPI POP PUSH1 0x6 PUSH1 0x0 SWAP1 SLOAD SWAP1 PUSH2 0x100 EXP SWAP1 DIV PUSH20 0xFFFFFFFFFFFFFFFFFFFFFFFFFFFFFFFFFFFFFFFF AND PUSH20 0xFFFFFFFFFFFFFFFFFFFFFFFFFFFFFFFFFFFFFFFF AND DUP3 PUSH20 0xFFFFFFFFFFFFFFFFFFFFFFFFFFFFFFFFFFFFFFFF AND EQ JUMPDEST ISZERO PUSH2 0x14FC JUMPI PUSH1 0x1 SWAP1 POP PUSH2 0x171B JUMP JUMPDEST PUSH1 0x0 JUMPDEST PUSH1 0x8 PUSH1 0x0 DUP5 PUSH20 0xFFFFFFFFFFFFFFFFFFFFFFFFFFFFFFFFFFFFFFFF AND PUSH20 0xFFFFFFFFFFFFFFFFFFFFFFFFFFFFFFFFFFFFFFFF AND DUP2 MSTORE PUSH1 0x20 ADD SWAP1 DUP2 MSTORE PUSH1 0x20 ADD PUSH1 0x0 KECCAK256 DUP1 SLOAD SWAP1 POP DUP2 GT PUSH2 0x1715 JUMPI PUSH1 0x0 PUSH1 0x8 PUSH1 0x0 DUP6 PUSH20 0xFFFFFFFFFFFFFFFFFFFFFFFFFFFFFFFFFFFFFFFF AND PUSH20 0xFFFFFFFFFFFFFFFFFFFFFFFFFFFFFFFFFFFFFFFF AND DUP2 MSTORE PUSH1 0x20 ADD SWAP1 DUP2 MSTORE PUSH1 0x20 ADD PUSH1 0x0 KECCAK256 DUP3 DUP2 SLOAD DUP2 LT PUSH2 0x159B JUMPI PUSH2 0x159A PUSH2 0x40F0 JUMP JUMPDEST JUMPDEST SWAP1 PUSH1 0x0 MSTORE PUSH1 0x20 PUSH1 0x0 KECCAK256 SWAP1 PUSH1 0x2 MUL ADD PUSH1 0x1 ADD DUP1 SLOAD PUSH2 0x15B7 SWAP1 PUSH2 0x40BF JUMP JUMPDEST DUP1 PUSH1 0x1F ADD PUSH1 0x20 DUP1 SWAP2 DIV MUL PUSH1 0x20 ADD PUSH1 0x40 MLOAD SWAP1 DUP2 ADD PUSH1 0x40 MSTORE DUP1 SWAP3 SWAP2 SWAP1 DUP2 DUP2 MSTORE PUSH1 0x20 ADD DUP3 DUP1 SLOAD PUSH2 0x15E3 SWAP1 PUSH2 0x40BF JUMP JUMPDEST DUP1 ISZERO PUSH2 0x1630 JUMPI DUP1 PUSH1 0x1F LT PUSH2 0x1605 JUMPI PUSH2 0x100 DUP1 DUP4 SLOAD DIV MUL DUP4 MSTORE SWAP2 PUSH1 0x20 ADD SWAP2 PUSH2 0x1630 JUMP JUMPDEST DUP3 ADD SWAP2 SWAP1 PUSH1 0x0 MSTORE PUSH1 0x20 PUSH1 0x0 KECCAK256 SWAP1 JUMPDEST DUP2 SLOAD DUP2 MSTORE SWAP1 PUSH1 0x1 ADD SWAP1 PUSH1 0x20 ADD DUP1 DUP4 GT PUSH2 0x1613 JUMPI DUP3 SWAP1 SUB PUSH1 0x1F AND DUP3 ADD SWAP2 JUMPDEST POP POP POP POP POP SWAP1 POP DUP5 PUSH1 0x40 MLOAD PUSH1 0x20 ADD PUSH2 0x1648 SWAP2 SWAP1 PUSH2 0x46E6 JUMP JUMPDEST PUSH1 0x40 MLOAD PUSH1 0x20 DUP2 DUP4 SUB SUB DUP2 MSTORE SWAP1 PUSH1 0x40 MSTORE DUP1 MLOAD SWAP1 PUSH1 0x20 ADD KECCAK256 DUP2 PUSH1 0x40 MLOAD PUSH1 0x20 ADD PUSH2 0x166F SWAP2 SWAP1 PUSH2 0x46E6 JUMP JUMPDEST PUSH1 0x40 MLOAD PUSH1 0x20 DUP2 DUP4 SUB SUB DUP2 MSTORE SWAP1 PUSH1 0x40 MSTORE DUP1 MLOAD SWAP1 PUSH1 0x20 ADD KECCAK256 SUB PUSH2 0x1703 JUMPI PUSH1 0x8 PUSH1 0x0 DUP6 PUSH20 0xFFFFFFFFFFFFFFFFFFFFFFFFFFFFFFFFFFFFFFFF AND PUSH20 0xFFFFFFFFFFFFFFFFFFFFFFFFFFFFFFFFFFFFFFFF AND DUP2 MSTORE PUSH1 0x20 ADD SWAP1 DUP2 MSTORE PUSH1 0x20 ADD PUSH1 0x0 KECCAK256 DUP3 DUP2 SLOAD DUP2 LT PUSH2 0x16DB JUMPI PUSH2 0x16DA PUSH2 0x40F0 JUMP JUMPDEST JUMPDEST SWAP1 PUSH1 0x0 MSTORE PUSH1 0x20 PUSH1 0x0 KECCAK256 SWAP1 PUSH1 0x2 MUL ADD PUSH1 0x0 ADD PUSH1 0x0 SWAP1 SLOAD SWAP1 PUSH2 0x100 EXP SWAP1 DIV PUSH1 0xFF AND SWAP3 POP POP POP PUSH2 0x171B JUMP JUMPDEST POP DUP1 PUSH2 0x170E SWAP1 PUSH2 0x414E JUMP JUMPDEST SWAP1 POP PUSH2 0x14FF JUMP JUMPDEST POP PUSH1 0x0 SWAP1 POP JUMPDEST SWAP3 SWAP2 POP POP JUMP JUMPDEST PUSH1 0x0 DUP1 PUSH1 0x0 DUP4 PUSH20 0xFFFFFFFFFFFFFFFFFFFFFFFFFFFFFFFFFFFFFFFF AND PUSH20 0xFFFFFFFFFFFFFFFFFFFFFFFFFFFFFFFFFFFFFFFF AND DUP2 MSTORE PUSH1 0x20 ADD SWAP1 DUP2 MSTORE PUSH1 0x20 ADD PUSH1 0x0 KECCAK256 SLOAD SWAP1 POP SWAP2 SWAP1 POP JUMP JUMPDEST PUSH1 0x5 PUSH1 0x0 SWAP1 SLOAD SWAP1 PUSH2 0x100 EXP SWAP1 DIV PUSH20 0xFFFFFFFFFFFFFFFFFFFFFFFFFFFFFFFFFFFFFFFF AND PUSH20 0xFFFFFFFFFFFFFFFFFFFFFFFFFFFFFFFFFFFFFFFF AND CALLER PUSH20 0xFFFFFFFFFFFFFFFFFFFFFFFFFFFFFFFFFFFFFFFF AND EQ DUP1 PUSH2 0x1812 JUMPI POP PUSH1 0x6 PUSH1 0x0 SWAP1 SLOAD SWAP1 PUSH2 0x100 EXP SWAP1 DIV PUSH20 0xFFFFFFFFFFFFFFFFFFFFFFFFFFFFFFFFFFFFFFFF AND PUSH20 0xFFFFFFFFFFFFFFFFFFFFFFFFFFFFFFFFFFFFFFFF AND CALLER PUSH20 0xFFFFFFFFFFFFFFFFFFFFFFFFFFFFFFFFFFFFFFFF AND EQ JUMPDEST PUSH2 0x1831 CALLER PUSH20 0xFFFFFFFFFFFFFFFFFFFFFFFFFFFFFFFFFFFFFFFF AND PUSH2 0x3101 JUMP JUMPDEST PUSH1 0x40 MLOAD PUSH1 0x20 ADD PUSH2 0x1841 SWAP2 SWAP1 PUSH2 0x42B0 JUMP JUMPDEST PUSH1 0x40 MLOAD PUSH1 0x20 DUP2 DUP4 SUB SUB DUP2 MSTORE SWAP1 PUSH1 0x40 MSTORE SWAP1 PUSH2 0x1891 JUMPI PUSH1 0x40 MLOAD PUSH32 0x8C379A000000000000000000000000000000000000000000000000000000000 DUP2 MSTORE PUSH1 0x4 ADD PUSH2 0x1888 SWAP2 SWAP1 PUSH2 0x3C4B JUMP JUMPDEST PUSH1 0x40 MLOAD DUP1 SWAP2 SUB SWAP1 REVERT JUMPDEST POP PUSH2 0x189D DUP2 PUSH1 0x0 PUSH2 0x32E3 JUMP JUMPDEST ISZERO PUSH2 0x1A0B JUMPI PUSH2 0x18AD DUP2 PUSH1 0x0 PUSH2 0x33D9 JUMP JUMPDEST ISZERO PUSH2 0x19CE JUMPI PUSH2 0x18BD DUP2 PUSH1 0x0 PUSH2 0x3672 JUMP JUMPDEST PUSH1 0x0 JUMPDEST PUSH1 0x7 DUP1 SLOAD SWAP1 POP DUP2 LT ISZERO PUSH2 0x19C8 JUMPI DUP2 PUSH20 0xFFFFFFFFFFFFFFFFFFFFFFFFFFFFFFFFFFFFFFFF AND PUSH1 0x7 DUP3 DUP2 SLOAD DUP2 LT PUSH2 0x18F8 JUMPI PUSH2 0x18F7 PUSH2 0x40F0 JUMP JUMPDEST JUMPDEST SWAP1 PUSH1 0x0 MSTORE PUSH1 0x20 PUSH1 0x0 KECCAK256 ADD PUSH1 0x0 SWAP1 SLOAD SWAP1 PUSH2 0x100 EXP SWAP1 DIV PUSH20 0xFFFFFFFFFFFFFFFFFFFFFFFFFFFFFFFFFFFFFFFF AND PUSH20 0xFFFFFFFFFFFFFFFFFFFFFFFFFFFFFFFFFFFFFFFF AND SUB PUSH2 0x19B7 JUMPI PUSH1 0x7 DUP2 DUP2 SLOAD DUP2 LT PUSH2 0x1952 JUMPI PUSH2 0x1951 PUSH2 0x40F0 JUMP JUMPDEST JUMPDEST SWAP1 PUSH1 0x0 MSTORE PUSH1 0x20 PUSH1 0x0 KECCAK256 ADD PUSH1 0x0 PUSH2 0x100 EXP DUP2 SLOAD SWAP1 PUSH20 0xFFFFFFFFFFFFFFFFFFFFFFFFFFFFFFFFFFFFFFFF MUL NOT AND SWAP1 SSTORE PUSH32 0xD2754BB25F80D82F28983DAEF636E09DD633511ED87D9A247D9982C495912DD3 DUP3 PUSH1 0x40 MLOAD PUSH2 0x19AE SWAP2 SWAP1 PUSH2 0x4846 JUMP JUMPDEST PUSH1 0x40 MLOAD DUP1 SWAP2 SUB SWAP1 LOG1 JUMPDEST DUP1 PUSH2 0x19C1 SWAP1 PUSH2 0x414E JUMP JUMPDEST SWAP1 POP PUSH2 0x18C0 JUMP JUMPDEST POP PUSH2 0x1A06 JUMP JUMPDEST PUSH32 0xE8FAADD3EA95010CEE81735CF90A770207ADD83D51E5309C696F9C23EC5D75CD DUP2 PUSH1 0x40 MLOAD PUSH2 0x19FD SWAP2 SWAP1 PUSH2 0x4616 JUMP JUMPDEST PUSH1 0x40 MLOAD DUP1 SWAP2 SUB SWAP1 LOG1 JUMPDEST PUSH2 0x1A17 JUMP JUMPDEST PUSH2 0x1A16 DUP2 PUSH1 0x0 PUSH2 0x38BA JUMP JUMPDEST JUMPDEST POP JUMP JUMPDEST PUSH1 0x60 DUP1 PUSH1 0x0 JUMPDEST PUSH1 0x7 DUP1 SLOAD SWAP1 POP DUP2 LT ISZERO PUSH2 0x1C1E JUMPI PUSH1 0x0 PUSH1 0x7 DUP3 DUP2 SLOAD DUP2 LT PUSH2 0x1A43 JUMPI PUSH2 0x1A42 PUSH2 0x40F0 JUMP JUMPDEST JUMPDEST SWAP1 PUSH1 0x0 MSTORE PUSH1 0x20 PUSH1 0x0 KECCAK256 ADD PUSH1 0x0 SWAP1 SLOAD SWAP1 PUSH2 0x100 EXP SWAP1 DIV PUSH20 0xFFFFFFFFFFFFFFFFFFFFFFFFFFFFFFFFFFFFFFFF AND SWAP1 POP PUSH1 0x0 JUMPDEST PUSH1 0x8 PUSH1 0x0 DUP4 PUSH20 0xFFFFFFFFFFFFFFFFFFFFFFFFFFFFFFFFFFFFFFFF AND PUSH20 0xFFFFFFFFFFFFFFFFFFFFFFFFFFFFFFFFFFFFFFFF AND DUP2 MSTORE PUSH1 0x20 ADD SWAP1 DUP2 MSTORE PUSH1 0x20 ADD PUSH1 0x0 KECCAK256 DUP1 SLOAD SWAP1 POP DUP2 LT ISZERO PUSH2 0x1C0B JUMPI PUSH1 0x8 PUSH1 0x0 DUP4 PUSH20 0xFFFFFFFFFFFFFFFFFFFFFFFFFFFFFFFFFFFFFFFF AND PUSH20 0xFFFFFFFFFFFFFFFFFFFFFFFFFFFFFFFFFFFFFFFF AND DUP2 MSTORE PUSH1 0x20 ADD SWAP1 DUP2 MSTORE PUSH1 0x20 ADD PUSH1 0x0 KECCAK256 DUP2 DUP2 SLOAD DUP2 LT PUSH2 0x1B0E JUMPI PUSH2 0x1B0D PUSH2 0x40F0 JUMP JUMPDEST JUMPDEST SWAP1 PUSH1 0x0 MSTORE PUSH1 0x20 PUSH1 0x0 KECCAK256 SWAP1 PUSH1 0x2 MUL ADD PUSH1 0x0 ADD PUSH1 0x0 SWAP1 SLOAD SWAP1 PUSH2 0x100 EXP SWAP1 DIV PUSH1 0xFF AND ISZERO PUSH2 0x1BFA JUMPI DUP5 PUSH1 0x8 PUSH1 0x0 DUP5 PUSH20 0xFFFFFFFFFFFFFFFFFFFFFFFFFFFFFFFFFFFFFFFF AND PUSH20 0xFFFFFFFFFFFFFFFFFFFFFFFFFFFFFFFFFFFFFFFF AND DUP2 MSTORE PUSH1 0x20 ADD SWAP1 DUP2 MSTORE PUSH1 0x20 ADD PUSH1 0x0 KECCAK256 DUP3 DUP2 SLOAD DUP2 LT PUSH2 0x1B84 JUMPI PUSH2 0x1B83 PUSH2 0x40F0 JUMP JUMPDEST JUMPDEST SWAP1 PUSH1 0x0 MSTORE PUSH1 0x20 PUSH1 0x0 KECCAK256 SWAP1 PUSH1 0x2 MUL ADD PUSH1 0x1 ADD PUSH1 0x40 MLOAD PUSH1 0x20 ADD PUSH2 0x1BA6 SWAP3 SWAP2 SWAP1 PUSH2 0x4943 JUMP JUMPDEST PUSH1 0x40 MLOAD PUSH1 0x20 DUP2 DUP4 SUB SUB DUP2 MSTORE SWAP1 PUSH1 0x40 MSTORE SWAP5 POP DUP4 PUSH2 0x1BD7 DUP4 PUSH20 0xFFFFFFFFFFFFFFFFFFFFFFFFFFFFFFFFFFFFFFFF AND PUSH2 0x3101 JUMP JUMPDEST PUSH1 0x40 MLOAD PUSH1 0x20 ADD PUSH2 0x1BE8 SWAP3 SWAP2 SWAP1 PUSH2 0x4972 JUMP JUMPDEST PUSH1 0x40 MLOAD PUSH1 0x20 DUP2 DUP4 SUB SUB DUP2 MSTORE SWAP1 PUSH1 0x40 MSTORE SWAP4 POP JUMPDEST DUP1 PUSH2 0x1C04 SWAP1 PUSH2 0x414E JUMP JUMPDEST SWAP1 POP PUSH2 0x1A73 JUMP JUMPDEST POP POP DUP1 PUSH2 0x1C17 SWAP1 PUSH2 0x414E JUMP JUMPDEST SWAP1 POP PUSH2 0x1A20 JUMP JUMPDEST POP PUSH32 0x38E29C2B389E0D0636FA66727ABB2EE4BC9BF0EB49DE128BABD1EBC9CA6F7292 DUP2 DUP4 PUSH1 0x40 MLOAD PUSH2 0x1C50 SWAP3 SWAP2 SWAP1 PUSH2 0x49A1 JUMP JUMPDEST PUSH1 0x40 MLOAD DUP1 SWAP2 SUB SWAP1 LOG1 POP POP JUMP JUMPDEST PUSH1 0xD PUSH1 0x0 SWAP1 SLOAD SWAP1 PUSH2 0x100 EXP SWAP1 DIV PUSH20 0xFFFFFFFFFFFFFFFFFFFFFFFFFFFFFFFFFFFFFFFF AND DUP2 JUMP JUMPDEST PUSH1 0x60 PUSH1 0x4 DUP1 SLOAD PUSH2 0x1C91 SWAP1 PUSH2 0x40BF JUMP JUMPDEST DUP1 PUSH1 0x1F ADD PUSH1 0x20 DUP1 SWAP2 DIV MUL PUSH1 0x20 ADD PUSH1 0x40 MLOAD SWAP1 DUP2 ADD PUSH1 0x40 MSTORE DUP1 SWAP3 SWAP2 SWAP1 DUP2 DUP2 MSTORE PUSH1 0x20 ADD DUP3 DUP1 SLOAD PUSH2 0x1CBD SWAP1 PUSH2 0x40BF JUMP JUMPDEST DUP1 ISZERO PUSH2 0x1D0A JUMPI DUP1 PUSH1 0x1F LT PUSH2 0x1CDF JUMPI PUSH2 0x100 DUP1 DUP4 SLOAD DIV MUL DUP4 MSTORE SWAP2 PUSH1 0x20 ADD SWAP2 PUSH2 0x1D0A JUMP JUMPDEST DUP3 ADD SWAP2 SWAP1 PUSH1 0x0 MSTORE PUSH1 0x20 PUSH1 0x0 KECCAK256 SWAP1 JUMPDEST DUP2 SLOAD DUP2 MSTORE SWAP1 PUSH1 0x1 ADD SWAP1 PUSH1 0x20 ADD DUP1 DUP4 GT PUSH2 0x1CED JUMPI DUP3 SWAP1 SUB PUSH1 0x1F AND DUP3 ADD SWAP2 JUMPDEST POP POP POP POP POP SWAP1 POP SWAP1 JUMP JUMPDEST PUSH1 0x17 PUSH1 0x0 SWAP1 SLOAD SWAP1 PUSH2 0x100 EXP SWAP1 DIV PUSH20 0xFFFFFFFFFFFFFFFFFFFFFFFFFFFFFFFFFFFFFFFF AND DUP2 JUMP JUMPDEST PUSH1 0x60 PUSH2 0x1D44 PUSH2 0xAA8 JUMP JUMPDEST ISZERO PUSH2 0x2014 JUMPI PUSH1 0x0 JUMPDEST PUSH1 0xA DUP1 SLOAD SWAP1 POP DUP2 LT ISZERO PUSH2 0x2012 JUMPI DUP2 PUSH2 0x1DBE PUSH1 0xA DUP4 DUP2 SLOAD DUP2 LT PUSH2 0x1D71 JUMPI PUSH2 0x1D70 PUSH2 0x40F0 JUMP JUMPDEST JUMPDEST SWAP1 PUSH1 0x0 MSTORE PUSH1 0x20 PUSH1 0x0 KECCAK256 SWAP1 PUSH1 0x2 MUL ADD PUSH1 0x0 ADD PUSH1 0x0 SWAP1 SLOAD SWAP1 PUSH2 0x100 EXP SWAP1 DIV PUSH20 0xFFFFFFFFFFFFFFFFFFFFFFFFFFFFFFFFFFFFFFFF AND PUSH20 0xFFFFFFFFFFFFFFFFFFFFFFFFFFFFFFFFFFFFFFFF AND PUSH2 0x3101 JUMP JUMPDEST PUSH1 0x40 MLOAD PUSH1 0x20 ADD PUSH2 0x1DCF SWAP3 SWAP2 SWAP1 PUSH2 0x4972 JUMP JUMPDEST PUSH1 0x40 MLOAD PUSH1 0x20 DUP2 DUP4 SUB SUB DUP2 MSTORE SWAP1 PUSH1 0x40 MSTORE SWAP2 POP DUP2 PUSH2 0x1E45 PUSH1 0xA DUP4 DUP2 SLOAD DUP2 LT PUSH2 0x1DF8 JUMPI PUSH2 0x1DF7 PUSH2 0x40F0 JUMP JUMPDEST JUMPDEST SWAP1 PUSH1 0x0 MSTORE PUSH1 0x20 PUSH1 0x0 KECCAK256 SWAP1 PUSH1 0x2 MUL ADD PUSH1 0x1 ADD PUSH1 0x0 SWAP1 SLOAD SWAP1 PUSH2 0x100 EXP SWAP1 DIV PUSH20 0xFFFFFFFFFFFFFFFFFFFFFFFFFFFFFFFFFFFFFFFF AND PUSH20 0xFFFFFFFFFFFFFFFFFFFFFFFFFFFFFFFFFFFFFFFF AND PUSH2 0x3101 JUMP JUMPDEST PUSH1 0x40 MLOAD PUSH1 0x20 ADD PUSH2 0x1E56 SWAP3 SWAP2 SWAP1 PUSH2 0x4972 JUMP JUMPDEST PUSH1 0x40 MLOAD PUSH1 0x20 DUP2 DUP4 SUB SUB DUP2 MSTORE SWAP1 PUSH1 0x40 MSTORE SWAP2 POP DUP2 PUSH1 0xA DUP3 DUP2 SLOAD DUP2 LT PUSH2 0x1E7C JUMPI PUSH2 0x1E7B PUSH2 0x40F0 JUMP JUMPDEST JUMPDEST SWAP1 PUSH1 0x0 MSTORE PUSH1 0x20 PUSH1 0x0 KECCAK256 SWAP1 PUSH1 0x2 MUL ADD PUSH1 0x1 ADD PUSH1 0x14 SWAP1 SLOAD SWAP1 PUSH2 0x100 EXP SWAP1 DIV PUSH1 0xFF AND PUSH2 0x1EDA JUMPI PUSH1 0x40 MLOAD DUP1 PUSH1 0x40 ADD PUSH1 0x40 MSTORE DUP1 PUSH1 0x1 DUP2 MSTORE PUSH1 0x20 ADD PUSH32 0x3000000000000000000000000000000000000000000000000000000000000000 DUP2 MSTORE POP PUSH2 0x1F11 JUMP JUMPDEST PUSH1 0x40 MLOAD DUP1 PUSH1 0x40 ADD PUSH1 0x40 MSTORE DUP1 PUSH1 0x1 DUP2 MSTORE PUSH1 0x20 ADD PUSH32 0x3100000000000000000000000000000000000000000000000000000000000000 DUP2 MSTORE POP JUMPDEST PUSH1 0x40 MLOAD PUSH1 0x20 ADD PUSH2 0x1F22 SWAP3 SWAP2 SWAP1 PUSH2 0x4972 JUMP JUMPDEST PUSH1 0x40 MLOAD PUSH1 0x20 DUP2 DUP4 SUB SUB DUP2 MSTORE SWAP1 PUSH1 0x40 MSTORE SWAP2 POP DUP2 PUSH1 0xA DUP3 DUP2 SLOAD DUP2 LT PUSH2 0x1F48 JUMPI PUSH2 0x1F47 PUSH2 0x40F0 JUMP JUMPDEST JUMPDEST SWAP1 PUSH1 0x0 MSTORE PUSH1 0x20 PUSH1 0x0 KECCAK256 SWAP1 PUSH1 0x2 MUL ADD PUSH1 0x1 ADD PUSH1 0x15 SWAP1 SLOAD SWAP1 PUSH2 0x100 EXP SWAP1 DIV PUSH1 0xFF AND PUSH2 0x1FA6 JUMPI PUSH1 0x40 MLOAD DUP1 PUSH1 0x40 ADD PUSH1 0x40 MSTORE DUP1 PUSH1 0x1 DUP2 MSTORE PUSH1 0x20 ADD PUSH32 0x3000000000000000000000000000000000000000000000000000000000000000 DUP2 MSTORE POP PUSH2 0x1FDD JUMP JUMPDEST PUSH1 0x40 MLOAD DUP1 PUSH1 0x40 ADD PUSH1 0x40 MSTORE DUP1 PUSH1 0x1 DUP2 MSTORE PUSH1 0x20 ADD PUSH32 0x3100000000000000000000000000000000000000000000000000000000000000 DUP2 MSTORE POP JUMPDEST PUSH1 0x40 MLOAD PUSH1 0x20 ADD PUSH2 0x1FEE SWAP3 SWAP2 SWAP1 PUSH2 0x4A24 JUMP JUMPDEST PUSH1 0x40 MLOAD PUSH1 0x20 DUP2 DUP4 SUB SUB DUP2 MSTORE SWAP1 PUSH1 0x40 MSTORE SWAP2 POP DUP1 DUP1 PUSH2 0x200A SWAP1 PUSH2 0x414E JUMP JUMPDEST SWAP2 POP POP PUSH2 0x1D4C JUMP JUMPDEST POP JUMPDEST SWAP1 JUMP JUMPDEST PUSH1 0x0 DUP1 PUSH1 0x5 PUSH1 0x0 SWAP1 SLOAD SWAP1 PUSH2 0x100 EXP SWAP1 DIV PUSH20 0xFFFFFFFFFFFFFFFFFFFFFFFFFFFFFFFFFFFFFFFF AND PUSH20 0xFFFFFFFFFFFFFFFFFFFFFFFFFFFFFFFFFFFFFFFF AND CALLER PUSH20 0xFFFFFFFFFFFFFFFFFFFFFFFFFFFFFFFFFFFFFFFF AND EQ DUP1 PUSH2 0x20C3 JUMPI POP PUSH1 0x6 PUSH1 0x0 SWAP1 SLOAD SWAP1 PUSH2 0x100 EXP SWAP1 DIV PUSH20 0xFFFFFFFFFFFFFFFFFFFFFFFFFFFFFFFFFFFFFFFF AND PUSH20 0xFFFFFFFFFFFFFFFFFFFFFFFFFFFFFFFFFFFFFFFF AND CALLER PUSH20 0xFFFFFFFFFFFFFFFFFFFFFFFFFFFFFFFFFFFFFFFF AND EQ JUMPDEST PUSH2 0x20E2 CALLER PUSH20 0xFFFFFFFFFFFFFFFFFFFFFFFFFFFFFFFFFFFFFFFF AND PUSH2 0x3101 JUMP JUMPDEST PUSH1 0x40 MLOAD PUSH1 0x20 ADD PUSH2 0x20F2 SWAP2 SWAP1 PUSH2 0x42B0 JUMP JUMPDEST PUSH1 0x40 MLOAD PUSH1 0x20 DUP2 DUP4 SUB SUB DUP2 MSTORE SWAP1 PUSH1 0x40 MSTORE SWAP1 PUSH2 0x2142 JUMPI PUSH1 0x40 MLOAD PUSH32 0x8C379A000000000000000000000000000000000000000000000000000000000 DUP2 MSTORE PUSH1 0x4 ADD PUSH2 0x2139 SWAP2 SWAP1 PUSH2 0x3C4B JUMP JUMPDEST PUSH1 0x40 MLOAD DUP1 SWAP2 SUB SWAP1 REVERT JUMPDEST POP PUSH1 0x1A SLOAD PUSH1 0x1B PUSH1 0x0 SWAP1 SLOAD SWAP1 PUSH2 0x100 EXP SWAP1 DIV PUSH20 0xFFFFFFFFFFFFFFFFFFFFFFFFFFFFFFFFFFFFFFFF AND SWAP2 POP SWAP2 POP SWAP1 SWAP2 JUMP JUMPDEST PUSH1 0x0 DUP1 PUSH1 0x1 PUSH1 0x0 PUSH2 0x2180 PUSH2 0x2CB1 JUMP JUMPDEST PUSH20 0xFFFFFFFFFFFFFFFFFFFFFFFFFFFFFFFFFFFFFFFF AND PUSH20 0xFFFFFFFFFFFFFFFFFFFFFFFFFFFFFFFFFFFFFFFF AND DUP2 MSTORE PUSH1 0x20 ADD SWAP1 DUP2 MSTORE PUSH1 0x20 ADD PUSH1 0x0 KECCAK256 PUSH1 0x0 DUP6 PUSH20 0xFFFFFFFFFFFFFFFFFFFFFFFFFFFFFFFFFFFFFFFF AND PUSH20 0xFFFFFFFFFFFFFFFFFFFFFFFFFFFFFFFFFFFFFFFF AND DUP2 MSTORE PUSH1 0x20 ADD SWAP1 DUP2 MSTORE PUSH1 0x20 ADD PUSH1 0x0 KECCAK256 SLOAD SWAP1 POP DUP3 DUP2 LT ISZERO PUSH2 0x223D JUMPI PUSH1 0x40 MLOAD PUSH32 0x8C379A000000000000000000000000000000000000000000000000000000000 DUP2 MSTORE PUSH1 0x4 ADD PUSH2 0x2234 SWAP1 PUSH2 0x4AC5 JUMP JUMPDEST PUSH1 0x40 MLOAD DUP1 SWAP2 SUB SWAP1 REVERT JUMPDEST PUSH2 0x2251 PUSH2 0x2248 PUSH2 0x2CB1 JUMP JUMPDEST DUP6 DUP6 DUP5 SUB PUSH2 0x2CB9 JUMP JUMPDEST PUSH1 0x1 SWAP2 POP POP SWAP3 SWAP2 POP POP JUMP JUMPDEST PUSH1 0x0 PUSH2 0x2270 PUSH2 0x2269 PUSH2 0x2CB1 JUMP JUMPDEST DUP5 DUP5 PUSH2 0x2E82 JUMP JUMPDEST PUSH1 0x1 SWAP1 POP SWAP3 SWAP2 POP POP JUMP JUMPDEST PUSH1 0x19 PUSH1 0x0 SWAP1 SLOAD SWAP1 PUSH2 0x100 EXP SWAP1 DIV PUSH20 0xFFFFFFFFFFFFFFFFFFFFFFFFFFFFFFFFFFFFFFFF AND DUP2 JUMP JUMPDEST PUSH1 0x13 PUSH1 0x0 SWAP1 SLOAD SWAP1 PUSH2 0x100 EXP SWAP1 DIV PUSH20 0xFFFFFFFFFFFFFFFFFFFFFFFFFFFFFFFFFFFFFFFF AND DUP2 JUMP JUMPDEST PUSH1 0x0 PUSH2 0x2307 PUSH1 0x40 MLOAD DUP1 PUSH1 0x40 ADD PUSH1 0x40 MSTORE DUP1 PUSH1 0xF DUP2 MSTORE PUSH1 0x20 ADD PUSH32 0x43414E5F44454C4554455F524F4C450000000000000000000000000000000000 DUP2 MSTORE POP CALLER PUSH2 0x13BA JUMP JUMPDEST PUSH2 0x2326 CALLER PUSH20 0xFFFFFFFFFFFFFFFFFFFFFFFFFFFFFFFFFFFFFFFF AND PUSH2 0x3101 JUMP JUMPDEST PUSH1 0x40 MLOAD PUSH1 0x20 ADD PUSH2 0x2336 SWAP2 SWAP1 PUSH2 0x46C4 JUMP JUMPDEST PUSH1 0x40 MLOAD PUSH1 0x20 DUP2 DUP4 SUB SUB DUP2 MSTORE SWAP1 PUSH1 0x40 MSTORE SWAP1 PUSH2 0x2386 JUMPI PUSH1 0x40 MLOAD PUSH32 0x8C379A000000000000000000000000000000000000000000000000000000000 DUP2 MSTORE PUSH1 0x4 ADD PUSH2 0x237D SWAP2 SWAP1 PUSH2 0x3C4B JUMP JUMPDEST PUSH1 0x40 MLOAD DUP1 SWAP2 SUB SWAP1 REVERT JUMPDEST POP PUSH1 0x0 JUMPDEST PUSH1 0x8 PUSH1 0x0 DUP5 PUSH20 0xFFFFFFFFFFFFFFFFFFFFFFFFFFFFFFFFFFFFFFFF AND PUSH20 0xFFFFFFFFFFFFFFFFFFFFFFFFFFFFFFFFFFFFFFFF AND DUP2 MSTORE PUSH1 0x20 ADD SWAP1 DUP2 MSTORE PUSH1 0x20 ADD PUSH1 0x0 KECCAK256 DUP1 SLOAD SWAP1 POP DUP2 GT PUSH2 0x25A3 JUMPI PUSH1 0x0 PUSH1 0x8 PUSH1 0x0 DUP6 PUSH20 0xFFFFFFFFFFFFFFFFFFFFFFFFFFFFFFFFFFFFFFFF AND PUSH20 0xFFFFFFFFFFFFFFFFFFFFFFFFFFFFFFFFFFFFFFFF AND DUP2 MSTORE PUSH1 0x20 ADD SWAP1 DUP2 MSTORE PUSH1 0x20 ADD PUSH1 0x0 KECCAK256 DUP3 DUP2 SLOAD DUP2 LT PUSH2 0x2426 JUMPI PUSH2 0x2425 PUSH2 0x40F0 JUMP JUMPDEST JUMPDEST SWAP1 PUSH1 0x0 MSTORE PUSH1 0x20 PUSH1 0x0 KECCAK256 SWAP1 PUSH1 0x2 MUL ADD PUSH1 0x1 ADD DUP1 SLOAD PUSH2 0x2442 SWAP1 PUSH2 0x40BF JUMP JUMPDEST DUP1 PUSH1 0x1F ADD PUSH1 0x20 DUP1 SWAP2 DIV MUL PUSH1 0x20 ADD PUSH1 0x40 MLOAD SWAP1 DUP2 ADD PUSH1 0x40 MSTORE DUP1 SWAP3 SWAP2 SWAP1 DUP2 DUP2 MSTORE PUSH1 0x20 ADD DUP3 DUP1 SLOAD PUSH2 0x246E SWAP1 PUSH2 0x40BF JUMP JUMPDEST DUP1 ISZERO PUSH2 0x24BB JUMPI DUP1 PUSH1 0x1F LT PUSH2 0x2490 JUMPI PUSH2 0x100 DUP1 DUP4 SLOAD DIV MUL DUP4 MSTORE SWAP2 PUSH1 0x20 ADD SWAP2 PUSH2 0x24BB JUMP JUMPDEST DUP3 ADD SWAP2 SWAP1 PUSH1 0x0 MSTORE PUSH1 0x20 PUSH1 0x0 KECCAK256 SWAP1 JUMPDEST DUP2 SLOAD DUP2 MSTORE SWAP1 PUSH1 0x1 ADD SWAP1 PUSH1 0x20 ADD DUP1 DUP4 GT PUSH2 0x249E JUMPI DUP3 SWAP1 SUB PUSH1 0x1F AND DUP3 ADD SWAP2 JUMPDEST POP POP POP POP POP SWAP1 POP DUP5 PUSH1 0x40 MLOAD PUSH1 0x20 ADD PUSH2 0x24D3 SWAP2 SWAP1 PUSH2 0x46E6 JUMP JUMPDEST PUSH1 0x40 MLOAD PUSH1 0x20 DUP2 DUP4 SUB SUB DUP2 MSTORE SWAP1 PUSH1 0x40 MSTORE DUP1 MLOAD SWAP1 PUSH1 0x20 ADD KECCAK256 DUP2 PUSH1 0x40 MLOAD PUSH1 0x20 ADD PUSH2 0x24FA SWAP2 SWAP1 PUSH2 0x46E6 JUMP JUMPDEST PUSH1 0x40 MLOAD PUSH1 0x20 DUP2 DUP4 SUB SUB DUP2 MSTORE SWAP1 PUSH1 0x40 MSTORE DUP1 MLOAD SWAP1 PUSH1 0x20 ADD KECCAK256 SUB PUSH2 0x2591 JUMPI PUSH1 0x0 PUSH1 0x8 PUSH1 0x0 DUP7 PUSH20 0xFFFFFFFFFFFFFFFFFFFFFFFFFFFFFFFFFFFFFFFF AND PUSH20 0xFFFFFFFFFFFFFFFFFFFFFFFFFFFFFFFFFFFFFFFF AND DUP2 MSTORE PUSH1 0x20 ADD SWAP1 DUP2 MSTORE PUSH1 0x20 ADD PUSH1 0x0 KECCAK256 DUP4 DUP2 SLOAD DUP2 LT PUSH2 0x2568 JUMPI PUSH2 0x2567 PUSH2 0x40F0 JUMP JUMPDEST JUMPDEST SWAP1 PUSH1 0x0 MSTORE PUSH1 0x20 PUSH1 0x0 KECCAK256 SWAP1 PUSH1 0x2 MUL ADD PUSH1 0x0 ADD PUSH1 0x0 PUSH2 0x100 EXP DUP2 SLOAD DUP2 PUSH1 0xFF MUL NOT AND SWAP1 DUP4 ISZERO ISZERO MUL OR SWAP1 SSTORE POP JUMPDEST POP DUP1 PUSH2 0x259C SWAP1 PUSH2 0x414E JUMP JUMPDEST SWAP1 POP PUSH2 0x238A JUMP JUMPDEST POP PUSH32 0xA201AD061C273E6FF5E8C40BE1CA5C0354F990D8600FECFDDE5E670DCF120FE5 DUP4 DUP4 PUSH1 0x40 MLOAD PUSH2 0x25D5 SWAP3 SWAP2 SWAP1 PUSH2 0x4749 JUMP JUMPDEST PUSH1 0x40 MLOAD DUP1 SWAP2 SUB SWAP1 LOG1 PUSH1 0x1 SWAP1 POP SWAP3 SWAP2 POP POP JUMP JUMPDEST PUSH1 0x5 PUSH1 0x0 SWAP1 SLOAD SWAP1 PUSH2 0x100 EXP SWAP1 DIV PUSH20 0xFFFFFFFFFFFFFFFFFFFFFFFFFFFFFFFFFFFFFFFF AND PUSH20 0xFFFFFFFFFFFFFFFFFFFFFFFFFFFFFFFFFFFFFFFF AND CALLER PUSH20 0xFFFFFFFFFFFFFFFFFFFFFFFFFFFFFFFFFFFFFFFF AND EQ DUP1 PUSH2 0x2690 JUMPI POP PUSH1 0x6 PUSH1 0x0 SWAP1 SLOAD SWAP1 PUSH2 0x100 EXP SWAP1 DIV PUSH20 0xFFFFFFFFFFFFFFFFFFFFFFFFFFFFFFFFFFFFFFFF AND PUSH20 0xFFFFFFFFFFFFFFFFFFFFFFFFFFFFFFFFFFFFFFFF AND CALLER PUSH20 0xFFFFFFFFFFFFFFFFFFFFFFFFFFFFFFFFFFFFFFFF AND EQ JUMPDEST PUSH2 0x26AF CALLER PUSH20 0xFFFFFFFFFFFFFFFFFFFFFFFFFFFFFFFFFFFFFFFF AND PUSH2 0x3101 JUMP JUMPDEST PUSH1 0x40 MLOAD PUSH1 0x20 ADD PUSH2 0x26BF SWAP2 SWAP1 PUSH2 0x42B0 JUMP JUMPDEST PUSH1 0x40 MLOAD PUSH1 0x20 DUP2 DUP4 SUB SUB DUP2 MSTORE SWAP1 PUSH1 0x40 MSTORE SWAP1 PUSH2 0x270F JUMPI PUSH1 0x40 MLOAD PUSH32 0x8C379A000000000000000000000000000000000000000000000000000000000 DUP2 MSTORE PUSH1 0x4 ADD PUSH2 0x2706 SWAP2 SWAP1 PUSH2 0x3C4B JUMP JUMPDEST PUSH1 0x40 MLOAD DUP1 SWAP2 SUB SWAP1 REVERT JUMPDEST POP PUSH1 0x2 PUSH1 0x1A SLOAD SUB PUSH2 0x2755 JUMPI PUSH1 0x40 MLOAD PUSH32 0x8C379A000000000000000000000000000000000000000000000000000000000 DUP2 MSTORE PUSH1 0x4 ADD PUSH2 0x274C SWAP1 PUSH2 0x4B31 JUMP JUMPDEST PUSH1 0x40 MLOAD DUP1 SWAP2 SUB SWAP1 REVERT JUMPDEST PUSH1 0x0 PUSH1 0x1A SLOAD SUB PUSH2 0x27E2 JUMPI CALLER PUSH1 0x1B PUSH1 0x0 PUSH2 0x100 EXP DUP2 SLOAD DUP2 PUSH20 0xFFFFFFFFFFFFFFFFFFFFFFFFFFFFFFFFFFFFFFFF MUL NOT AND SWAP1 DUP4 PUSH20 0xFFFFFFFFFFFFFFFFFFFFFFFFFFFFFFFFFFFFFFFF AND MUL OR SWAP1 SSTORE POP PUSH1 0x1 PUSH1 0x1A DUP2 SWAP1 SSTORE POP PUSH32 0x4D2C662F44D9F484269A689B31B12C74BAA2BB8AC9590E253A0EAA4EAFB166FA PUSH1 0x40 MLOAD PUSH2 0x27D5 SWAP1 PUSH2 0x4B9D JUMP JUMPDEST PUSH1 0x40 MLOAD DUP1 SWAP2 SUB SWAP1 LOG1 PUSH2 0x2BB6 JUMP JUMPDEST PUSH1 0x1 PUSH1 0x1A SLOAD EQ DUP1 ISZERO PUSH2 0x2842 JUMPI POP CALLER PUSH20 0xFFFFFFFFFFFFFFFFFFFFFFFFFFFFFFFFFFFFFFFF AND PUSH1 0x1B PUSH1 0x0 SWAP1 SLOAD SWAP1 PUSH2 0x100 EXP SWAP1 DIV PUSH20 0xFFFFFFFFFFFFFFFFFFFFFFFFFFFFFFFFFFFFFFFF AND PUSH20 0xFFFFFFFFFFFFFFFFFFFFFFFFFFFFFFFFFFFFFFFF AND EQ ISZERO JUMPDEST ISZERO PUSH2 0x2B7F JUMPI PUSH1 0x0 PUSH12 0x37643D337915FAB1E8C0000 SWAP1 POP PUSH2 0x288C PUSH2 0x2863 PUSH2 0x2CB1 JUMP JUMPDEST PUSH1 0xC PUSH1 0x0 SWAP1 SLOAD SWAP1 PUSH2 0x100 EXP SWAP1 DIV PUSH20 0xFFFFFFFFFFFFFFFFFFFFFFFFFFFFFFFFFFFFFFFF AND DUP4 PUSH2 0x2E82 JUMP JUMPDEST PUSH2 0x28C0 PUSH2 0x2897 PUSH2 0x2CB1 JUMP JUMPDEST PUSH1 0xD PUSH1 0x0 SWAP1 SLOAD SWAP1 PUSH2 0x100 EXP SWAP1 DIV PUSH20 0xFFFFFFFFFFFFFFFFFFFFFFFFFFFFFFFFFFFFFFFF AND DUP4 PUSH2 0x2E82 JUMP JUMPDEST PUSH2 0x28F4 PUSH2 0x28CB PUSH2 0x2CB1 JUMP JUMPDEST PUSH1 0xE PUSH1 0x0 SWAP1 SLOAD SWAP1 PUSH2 0x100 EXP SWAP1 DIV PUSH20 0xFFFFFFFFFFFFFFFFFFFFFFFFFFFFFFFFFFFFFFFF AND DUP4 PUSH2 0x2E82 JUMP JUMPDEST PUSH2 0x2928 PUSH2 0x28FF PUSH2 0x2CB1 JUMP JUMPDEST PUSH1 0xF PUSH1 0x0 SWAP1 SLOAD SWAP1 PUSH2 0x100 EXP SWAP1 DIV PUSH20 0xFFFFFFFFFFFFFFFFFFFFFFFFFFFFFFFFFFFFFFFF AND DUP4 PUSH2 0x2E82 JUMP JUMPDEST PUSH2 0x295C PUSH2 0x2933 PUSH2 0x2CB1 JUMP JUMPDEST PUSH1 0x10 PUSH1 0x0 SWAP1 SLOAD SWAP1 PUSH2 0x100 EXP SWAP1 DIV PUSH20 0xFFFFFFFFFFFFFFFFFFFFFFFFFFFFFFFFFFFFFFFF AND DUP4 PUSH2 0x2E82 JUMP JUMPDEST PUSH2 0x2990 PUSH2 0x2967 PUSH2 0x2CB1 JUMP JUMPDEST PUSH1 0x11 PUSH1 0x0 SWAP1 SLOAD SWAP1 PUSH2 0x100 EXP SWAP1 DIV PUSH20 0xFFFFFFFFFFFFFFFFFFFFFFFFFFFFFFFFFFFFFFFF AND DUP4 PUSH2 0x2E82 JUMP JUMPDEST PUSH2 0x29C4 PUSH2 0x299B PUSH2 0x2CB1 JUMP JUMPDEST PUSH1 0x12 PUSH1 0x0 SWAP1 SLOAD SWAP1 PUSH2 0x100 EXP SWAP1 DIV PUSH20 0xFFFFFFFFFFFFFFFFFFFFFFFFFFFFFFFFFFFFFFFF AND DUP4 PUSH2 0x2E82 JUMP JUMPDEST PUSH2 0x29F8 PUSH2 0x29CF PUSH2 0x2CB1 JUMP JUMPDEST PUSH1 0x13 PUSH1 0x0 SWAP1 SLOAD SWAP1 PUSH2 0x100 EXP SWAP1 DIV PUSH20 0xFFFFFFFFFFFFFFFFFFFFFFFFFFFFFFFFFFFFFFFF AND DUP4 PUSH2 0x2E82 JUMP JUMPDEST PUSH2 0x2A2C PUSH2 0x2A03 PUSH2 0x2CB1 JUMP JUMPDEST PUSH1 0x14 PUSH1 0x0 SWAP1 SLOAD SWAP1 PUSH2 0x100 EXP SWAP1 DIV PUSH20 0xFFFFFFFFFFFFFFFFFFFFFFFFFFFFFFFFFFFFFFFF AND DUP4 PUSH2 0x2E82 JUMP JUMPDEST PUSH2 0x2A60 PUSH2 0x2A37 PUSH2 0x2CB1 JUMP JUMPDEST PUSH1 0x15 PUSH1 0x0 SWAP1 SLOAD SWAP1 PUSH2 0x100 EXP SWAP1 DIV PUSH20 0xFFFFFFFFFFFFFFFFFFFFFFFFFFFFFFFFFFFFFFFF AND DUP4 PUSH2 0x2E82 JUMP JUMPDEST PUSH2 0x2A94 PUSH2 0x2A6B PUSH2 0x2CB1 JUMP JUMPDEST PUSH1 0x16 PUSH1 0x0 SWAP1 SLOAD SWAP1 PUSH2 0x100 EXP SWAP1 DIV PUSH20 0xFFFFFFFFFFFFFFFFFFFFFFFFFFFFFFFFFFFFFFFF AND DUP4 PUSH2 0x2E82 JUMP JUMPDEST PUSH2 0x2AC8 PUSH2 0x2A9F PUSH2 0x2CB1 JUMP JUMPDEST PUSH1 0x17 PUSH1 0x0 SWAP1 SLOAD SWAP1 PUSH2 0x100 EXP SWAP1 DIV PUSH20 0xFFFFFFFFFFFFFFFFFFFFFFFFFFFFFFFFFFFFFFFF AND DUP4 PUSH2 0x2E82 JUMP JUMPDEST PUSH2 0x2AFC PUSH2 0x2AD3 PUSH2 0x2CB1 JUMP JUMPDEST PUSH1 0x18 PUSH1 0x0 SWAP1 SLOAD SWAP1 PUSH2 0x100 EXP SWAP1 DIV PUSH20 0xFFFFFFFFFFFFFFFFFFFFFFFFFFFFFFFFFFFFFFFF AND DUP4 PUSH2 0x2E82 JUMP JUMPDEST PUSH2 0x2B3C PUSH2 0x2B07 PUSH2 0x2CB1 JUMP JUMPDEST PUSH1 0x19 PUSH1 0x0 SWAP1 SLOAD SWAP1 PUSH2 0x100 EXP SWAP1 DIV PUSH20 0xFFFFFFFFFFFFFFFFFFFFFFFFFFFFFFFFFFFFFFFF AND PUSH12 0x37643D38AD5A7E10AE40000 PUSH2 0x2E82 JUMP JUMPDEST PUSH1 0x2 PUSH1 0x1A DUP2 SWAP1 SSTORE POP PUSH32 0x4D2C662F44D9F484269A689B31B12C74BAA2BB8AC9590E253A0EAA4EAFB166FA PUSH1 0x40 MLOAD PUSH2 0x2B71 SWAP1 PUSH2 0x4C09 JUMP JUMPDEST PUSH1 0x40 MLOAD DUP1 SWAP2 SUB SWAP1 LOG1 POP PUSH2 0x2BB5 JUMP JUMPDEST PUSH32 0x4D2C662F44D9F484269A689B31B12C74BAA2BB8AC9590E253A0EAA4EAFB166FA PUSH1 0x40 MLOAD PUSH2 0x2BAC SWAP1 PUSH2 0x4B9D JUMP JUMPDEST PUSH1 0x40 MLOAD DUP1 SWAP2 SUB SWAP1 LOG1 JUMPDEST JUMPDEST JUMP JUMPDEST PUSH1 0xC PUSH1 0x0 SWAP1 SLOAD SWAP1 PUSH2 0x100 EXP SWAP1 DIV PUSH20 0xFFFFFFFFFFFFFFFFFFFFFFFFFFFFFFFFFFFFFFFF AND DUP2 JUMP JUMPDEST PUSH1 0x0 PUSH1 0x1 PUSH1 0x0 DUP5 PUSH20 0xFFFFFFFFFFFFFFFFFFFFFFFFFFFFFFFFFFFFFFFF AND PUSH20 0xFFFFFFFFFFFFFFFFFFFFFFFFFFFFFFFFFFFFFFFF AND DUP2 MSTORE PUSH1 0x20 ADD SWAP1 DUP2 MSTORE PUSH1 0x20 ADD PUSH1 0x0 KECCAK256 PUSH1 0x0 DUP4 PUSH20 0xFFFFFFFFFFFFFFFFFFFFFFFFFFFFFFFFFFFFFFFF AND PUSH20 0xFFFFFFFFFFFFFFFFFFFFFFFFFFFFFFFFFFFFFFFF AND DUP2 MSTORE PUSH1 0x20 ADD SWAP1 DUP2 MSTORE PUSH1 0x20 ADD PUSH1 0x0 KECCAK256 SLOAD SWAP1 POP SWAP3 SWAP2 POP POP JUMP JUMPDEST PUSH1 0x10 PUSH1 0x0 SWAP1 SLOAD SWAP1 PUSH2 0x100 EXP SWAP1 DIV PUSH20 0xFFFFFFFFFFFFFFFFFFFFFFFFFFFFFFFFFFFFFFFF AND DUP2 JUMP JUMPDEST PUSH1 0x14 PUSH1 0x0 SWAP1 SLOAD SWAP1 PUSH2 0x100 EXP SWAP1 DIV PUSH20 0xFFFFFFFFFFFFFFFFFFFFFFFFFFFFFFFFFFFFFFFF AND DUP2 JUMP JUMPDEST PUSH1 0x0 CALLER SWAP1 POP SWAP1 JUMP JUMPDEST PUSH1 0x0 PUSH20 0xFFFFFFFFFFFFFFFFFFFFFFFFFFFFFFFFFFFFFFFF AND DUP4 PUSH20 0xFFFFFFFFFFFFFFFFFFFFFFFFFFFFFFFFFFFFFFFF AND SUB PUSH2 0x2D28 JUMPI PUSH1 0x40 MLOAD PUSH32 0x8C379A000000000000000000000000000000000000000000000000000000000 DUP2 MSTORE PUSH1 0x4 ADD PUSH2 0x2D1F SWAP1 PUSH2 0x4C9B JUMP JUMPDEST PUSH1 0x40 MLOAD DUP1 SWAP2 SUB SWAP1 REVERT JUMPDEST PUSH1 0x0 PUSH20 0xFFFFFFFFFFFFFFFFFFFFFFFFFFFFFFFFFFFFFFFF AND DUP3 PUSH20 0xFFFFFFFFFFFFFFFFFFFFFFFFFFFFFFFFFFFFFFFF AND SUB PUSH2 0x2D97 JUMPI PUSH1 0x40 MLOAD PUSH32 0x8C379A000000000000000000000000000000000000000000000000000000000 DUP2 MSTORE PUSH1 0x4 ADD PUSH2 0x2D8E SWAP1 PUSH2 0x4D2D JUMP JUMPDEST PUSH1 0x40 MLOAD DUP1 SWAP2 SUB SWAP1 REVERT JUMPDEST DUP1 PUSH1 0x1 PUSH1 0x0 DUP6 PUSH20 0xFFFFFFFFFFFFFFFFFFFFFFFFFFFFFFFFFFFFFFFF AND PUSH20 0xFFFFFFFFFFFFFFFFFFFFFFFFFFFFFFFFFFFFFFFF AND DUP2 MSTORE PUSH1 0x20 ADD SWAP1 DUP2 MSTORE PUSH1 0x20 ADD PUSH1 0x0 KECCAK256 PUSH1 0x0 DUP5 PUSH20 0xFFFFFFFFFFFFFFFFFFFFFFFFFFFFFFFFFFFFFFFF AND PUSH20 0xFFFFFFFFFFFFFFFFFFFFFFFFFFFFFFFFFFFFFFFF AND DUP2 MSTORE PUSH1 0x20 ADD SWAP1 DUP2 MSTORE PUSH1 0x20 ADD PUSH1 0x0 KECCAK256 DUP2 SWAP1 SSTORE POP DUP2 PUSH20 0xFFFFFFFFFFFFFFFFFFFFFFFFFFFFFFFFFFFFFFFF AND DUP4 PUSH20 0xFFFFFFFFFFFFFFFFFFFFFFFFFFFFFFFFFFFFFFFF AND PUSH32 0x8C5BE1E5EBEC7D5BD14F71427D1E84F3DD0314C0F7B2291E5B200AC8C7C3B925 DUP4 PUSH1 0x40 MLOAD PUSH2 0x2E75 SWAP2 SWAP1 PUSH2 0x3DC4 JUMP JUMPDEST PUSH1 0x40 MLOAD DUP1 SWAP2 SUB SWAP1 LOG3 POP POP POP JUMP JUMPDEST PUSH1 0x0 PUSH20 0xFFFFFFFFFFFFFFFFFFFFFFFFFFFFFFFFFFFFFFFF AND DUP4 PUSH20 0xFFFFFFFFFFFFFFFFFFFFFFFFFFFFFFFFFFFFFFFF AND SUB PUSH2 0x2EF1 JUMPI PUSH1 0x40 MLOAD PUSH32 0x8C379A000000000000000000000000000000000000000000000000000000000 DUP2 MSTORE PUSH1 0x4 ADD PUSH2 0x2EE8 SWAP1 PUSH2 0x4DBF JUMP JUMPDEST PUSH1 0x40 MLOAD DUP1 SWAP2 SUB SWAP1 REVERT JUMPDEST PUSH1 0x0 PUSH20 0xFFFFFFFFFFFFFFFFFFFFFFFFFFFFFFFFFFFFFFFF AND DUP3 PUSH20 0xFFFFFFFFFFFFFFFFFFFFFFFFFFFFFFFFFFFFFFFF AND SUB PUSH2 0x2F60 JUMPI PUSH1 0x40 MLOAD PUSH32 0x8C379A000000000000000000000000000000000000000000000000000000000 DUP2 MSTORE PUSH1 0x4 ADD PUSH2 0x2F57 SWAP1 PUSH2 0x4E51 JUMP JUMPDEST PUSH1 0x40 MLOAD DUP1 SWAP2 SUB SWAP1 REVERT JUMPDEST PUSH2 0x2F6B DUP4 DUP4 DUP4 PUSH2 0x3B6B JUMP JUMPDEST PUSH1 0x0 DUP1 PUSH1 0x0 DUP6 PUSH20 0xFFFFFFFFFFFFFFFFFFFFFFFFFFFFFFFFFFFFFFFF AND PUSH20 0xFFFFFFFFFFFFFFFFFFFFFFFFFFFFFFFFFFFFFFFF AND DUP2 MSTORE PUSH1 0x20 ADD SWAP1 DUP2 MSTORE PUSH1 0x20 ADD PUSH1 0x0 KECCAK256 SLOAD SWAP1 POP DUP2 DUP2 LT ISZERO PUSH2 0x2FF1 JUMPI PUSH1 0x40 MLOAD PUSH32 0x8C379A000000000000000000000000000000000000000000000000000000000 DUP2 MSTORE PUSH1 0x4 ADD PUSH2 0x2FE8 SWAP1 PUSH2 0x4EE3 JUMP JUMPDEST PUSH1 0x40 MLOAD DUP1 SWAP2 SUB SWAP1 REVERT JUMPDEST DUP2 DUP2 SUB PUSH1 0x0 DUP1 DUP7 PUSH20 0xFFFFFFFFFFFFFFFFFFFFFFFFFFFFFFFFFFFFFFFF AND PUSH20 0xFFFFFFFFFFFFFFFFFFFFFFFFFFFFFFFFFFFFFFFF AND DUP2 MSTORE PUSH1 0x20 ADD SWAP1 DUP2 MSTORE PUSH1 0x20 ADD PUSH1 0x0 KECCAK256 DUP2 SWAP1 SSTORE POP DUP2 PUSH1 0x0 DUP1 DUP6 PUSH20 0xFFFFFFFFFFFFFFFFFFFFFFFFFFFFFFFFFFFFFFFF AND PUSH20 0xFFFFFFFFFFFFFFFFFFFFFFFFFFFFFFFFFFFFFFFF AND DUP2 MSTORE PUSH1 0x20 ADD SWAP1 DUP2 MSTORE PUSH1 0x20 ADD PUSH1 0x0 KECCAK256 PUSH1 0x0 DUP3 DUP3 SLOAD PUSH2 0x3084 SWAP2 SWAP1 PUSH2 0x4644 JUMP JUMPDEST SWAP3 POP POP DUP2 SWAP1 SSTORE POP DUP3 PUSH20 0xFFFFFFFFFFFFFFFFFFFFFFFFFFFFFFFFFFFFFFFF AND DUP5 PUSH20 0xFFFFFFFFFFFFFFFFFFFFFFFFFFFFFFFFFFFFFFFF AND PUSH32 0xDDF252AD1BE2C89B69C2B068FC378DAA952BA7F163C4A11628F55A4DF523B3EF DUP5 PUSH1 0x40 MLOAD PUSH2 0x30E8 SWAP2 SWAP1 PUSH2 0x3DC4 JUMP JUMPDEST PUSH1 0x40 MLOAD DUP1 SWAP2 SUB SWAP1 LOG3 PUSH2 0x30FB DUP5 DUP5 DUP5 PUSH2 0x3B70 JUMP JUMPDEST POP POP POP POP JUMP JUMPDEST PUSH1 0x60 PUSH1 0x0 PUSH1 0x28 PUSH8 0xFFFFFFFFFFFFFFFF DUP2 GT ISZERO PUSH2 0x3120 JUMPI PUSH2 0x311F PUSH2 0x3EA0 JUMP JUMPDEST JUMPDEST PUSH1 0x40 MLOAD SWAP1 DUP1 DUP3 MSTORE DUP1 PUSH1 0x1F ADD PUSH1 0x1F NOT AND PUSH1 0x20 ADD DUP3 ADD PUSH1 0x40 MSTORE DUP1 ISZERO PUSH2 0x3152 JUMPI DUP2 PUSH1 0x20 ADD PUSH1 0x1 DUP3 MUL DUP1 CALLDATASIZE DUP4 CALLDATACOPY DUP1 DUP3 ADD SWAP2 POP POP SWAP1 POP JUMPDEST POP SWAP1 POP PUSH1 0x0 JUMPDEST PUSH1 0x14 DUP2 LT ISZERO PUSH2 0x32BA JUMPI PUSH1 0x0 DUP2 PUSH1 0x13 PUSH2 0x3170 SWAP2 SWAP1 PUSH2 0x4F03 JUMP JUMPDEST PUSH1 0x8 PUSH2 0x317C SWAP2 SWAP1 PUSH2 0x4F37 JUMP JUMPDEST PUSH1 0x2 PUSH2 0x3188 SWAP2 SWAP1 PUSH2 0x50AC JUMP JUMPDEST DUP6 PUSH20 0xFFFFFFFFFFFFFFFFFFFFFFFFFFFFFFFFFFFFFFFF AND PUSH2 0x31A9 SWAP2 SWAP1 PUSH2 0x5126 JUMP JUMPDEST PUSH1 0xF8 SHL SWAP1 POP PUSH1 0x0 PUSH1 0x10 DUP3 PUSH1 0xF8 SHR PUSH2 0x31C0 SWAP2 SWAP1 PUSH2 0x5157 JUMP JUMPDEST PUSH1 0xF8 SHL SWAP1 POP PUSH1 0x0 DUP2 PUSH1 0xF8 SHR PUSH1 0x10 PUSH2 0x31D7 SWAP2 SWAP1 PUSH2 0x5188 JUMP JUMPDEST DUP4 PUSH1 0xF8 SHR PUSH2 0x31E5 SWAP2 SWAP1 PUSH2 0x51C5 JUMP JUMPDEST PUSH1 0xF8 SHL SWAP1 POP PUSH2 0x31F3 DUP3 PUSH2 0x3B75 JUMP JUMPDEST DUP6 DUP6 PUSH1 0x2 PUSH2 0x3201 SWAP2 SWAP1 PUSH2 0x4F37 JUMP JUMPDEST DUP2 MLOAD DUP2 LT PUSH2 0x3212 JUMPI PUSH2 0x3211 PUSH2 0x40F0 JUMP JUMPDEST JUMPDEST PUSH1 0x20 ADD ADD SWAP1 PUSH31 0xFFFFFFFFFFFFFFFFFFFFFFFFFFFFFFFFFFFFFFFFFFFFFFFFFFFFFFFFFFFFFF NOT AND SWAP1 DUP2 PUSH1 0x0 BYTE SWAP1 MSTORE8 POP PUSH2 0x324A DUP2 PUSH2 0x3B75 JUMP JUMPDEST DUP6 PUSH1 0x1 DUP7 PUSH1 0x2 PUSH2 0x325A SWAP2 SWAP1 PUSH2 0x4F37 JUMP JUMPDEST PUSH2 0x3264 SWAP2 SWAP1 PUSH2 0x4644 JUMP JUMPDEST DUP2 MLOAD DUP2 LT PUSH2 0x3275 JUMPI PUSH2 0x3274 PUSH2 0x40F0 JUMP JUMPDEST JUMPDEST PUSH1 0x20 ADD ADD SWAP1 PUSH31 0xFFFFFFFFFFFFFFFFFFFFFFFFFFFFFFFFFFFFFFFFFFFFFFFFFFFFFFFFFFFFFF NOT AND SWAP1 DUP2 PUSH1 0x0 BYTE SWAP1 MSTORE8 POP POP POP POP DUP1 DUP1 PUSH2 0x32B2 SWAP1 PUSH2 0x414E JUMP JUMPDEST SWAP2 POP POP PUSH2 0x3158 JUMP JUMPDEST POP DUP1 PUSH1 0x40 MLOAD PUSH1 0x20 ADD PUSH2 0x32CC SWAP2 SWAP1 PUSH2 0x528D JUMP JUMPDEST PUSH1 0x40 MLOAD PUSH1 0x20 DUP2 DUP4 SUB SUB DUP2 MSTORE SWAP1 PUSH1 0x40 MSTORE SWAP2 POP POP SWAP2 SWAP1 POP JUMP JUMPDEST PUSH1 0x0 DUP1 PUSH1 0x0 SWAP1 POP JUMPDEST PUSH1 0xA DUP1 SLOAD SWAP1 POP DUP2 LT ISZERO PUSH2 0x33CD JUMPI DUP4 PUSH20 0xFFFFFFFFFFFFFFFFFFFFFFFFFFFFFFFFFFFFFFFF AND PUSH1 0xA DUP3 DUP2 SLOAD DUP2 LT PUSH2 0x3323 JUMPI PUSH2 0x3322 PUSH2 0x40F0 JUMP JUMPDEST JUMPDEST SWAP1 PUSH1 0x0 MSTORE PUSH1 0x20 PUSH1 0x0 KECCAK256 SWAP1 PUSH1 0x2 MUL ADD PUSH1 0x1 ADD PUSH1 0x0 SWAP1 SLOAD SWAP1 PUSH2 0x100 EXP SWAP1 DIV PUSH20 0xFFFFFFFFFFFFFFFFFFFFFFFFFFFFFFFFFFFFFFFF AND PUSH20 0xFFFFFFFFFFFFFFFFFFFFFFFFFFFFFFFFFFFFFFFF AND EQ DUP1 ISZERO PUSH2 0x33AD JUMPI POP DUP3 ISZERO ISZERO PUSH1 0xA DUP3 DUP2 SLOAD DUP2 LT PUSH2 0x338A JUMPI PUSH2 0x3389 PUSH2 0x40F0 JUMP JUMPDEST JUMPDEST SWAP1 PUSH1 0x0 MSTORE PUSH1 0x20 PUSH1 0x0 KECCAK256 SWAP1 PUSH1 0x2 MUL ADD PUSH1 0x1 ADD PUSH1 0x15 SWAP1 SLOAD SWAP1 PUSH2 0x100 EXP SWAP1 DIV PUSH1 0xFF AND ISZERO ISZERO EQ JUMPDEST ISZERO PUSH2 0x33BC JUMPI PUSH1 0x1 SWAP2 POP POP PUSH2 0x33D3 JUMP JUMPDEST DUP1 PUSH2 0x33C6 SWAP1 PUSH2 0x414E JUMP JUMPDEST SWAP1 POP PUSH2 0x32EB JUMP JUMPDEST POP PUSH1 0x0 SWAP1 POP JUMPDEST SWAP3 SWAP2 POP POP JUMP JUMPDEST PUSH1 0x0 PUSH1 0x5 PUSH1 0x0 SWAP1 SLOAD SWAP1 PUSH2 0x100 EXP SWAP1 DIV PUSH20 0xFFFFFFFFFFFFFFFFFFFFFFFFFFFFFFFFFFFFFFFF AND PUSH20 0xFFFFFFFFFFFFFFFFFFFFFFFFFFFFFFFFFFFFFFFF AND CALLER PUSH20 0xFFFFFFFFFFFFFFFFFFFFFFFFFFFFFFFFFFFFFFFF AND EQ DUP1 PUSH2 0x3484 JUMPI POP PUSH1 0x6 PUSH1 0x0 SWAP1 SLOAD SWAP1 PUSH2 0x100 EXP SWAP1 DIV PUSH20 0xFFFFFFFFFFFFFFFFFFFFFFFFFFFFFFFFFFFFFFFF AND PUSH20 0xFFFFFFFFFFFFFFFFFFFFFFFFFFFFFFFFFFFFFFFF AND CALLER PUSH20 0xFFFFFFFFFFFFFFFFFFFFFFFFFFFFFFFFFFFFFFFF AND EQ JUMPDEST PUSH2 0x34A3 CALLER PUSH20 0xFFFFFFFFFFFFFFFFFFFFFFFFFFFFFFFFFFFFFFFF AND PUSH2 0x3101 JUMP JUMPDEST PUSH1 0x40 MLOAD PUSH1 0x20 ADD PUSH2 0x34B3 SWAP2 SWAP1 PUSH2 0x42B0 JUMP JUMPDEST PUSH1 0x40 MLOAD PUSH1 0x20 DUP2 DUP4 SUB SUB DUP2 MSTORE SWAP1 PUSH1 0x40 MSTORE SWAP1 PUSH2 0x3503 JUMPI PUSH1 0x40 MLOAD PUSH32 0x8C379A000000000000000000000000000000000000000000000000000000000 DUP2 MSTORE PUSH1 0x4 ADD PUSH2 0x34FA SWAP2 SWAP1 PUSH2 0x3C4B JUMP JUMPDEST PUSH1 0x40 MLOAD DUP1 SWAP2 SUB SWAP1 REVERT JUMPDEST POP PUSH1 0x0 JUMPDEST PUSH1 0xA DUP1 SLOAD SWAP1 POP DUP2 LT ISZERO PUSH2 0x3666 JUMPI DUP4 PUSH20 0xFFFFFFFFFFFFFFFFFFFFFFFFFFFFFFFFFFFFFFFF AND PUSH1 0xA DUP3 DUP2 SLOAD DUP2 LT PUSH2 0x353F JUMPI PUSH2 0x353E PUSH2 0x40F0 JUMP JUMPDEST JUMPDEST SWAP1 PUSH1 0x0 MSTORE PUSH1 0x20 PUSH1 0x0 KECCAK256 SWAP1 PUSH1 0x2 MUL ADD PUSH1 0x1 ADD PUSH1 0x0 SWAP1 SLOAD SWAP1 PUSH2 0x100 EXP SWAP1 DIV PUSH20 0xFFFFFFFFFFFFFFFFFFFFFFFFFFFFFFFFFFFFFFFF AND PUSH20 0xFFFFFFFFFFFFFFFFFFFFFFFFFFFFFFFFFFFFFFFF AND EQ DUP1 ISZERO PUSH2 0x35C9 JUMPI POP DUP3 ISZERO ISZERO PUSH1 0xA DUP3 DUP2 SLOAD DUP2 LT PUSH2 0x35A6 JUMPI PUSH2 0x35A5 PUSH2 0x40F0 JUMP JUMPDEST JUMPDEST SWAP1 PUSH1 0x0 MSTORE PUSH1 0x20 PUSH1 0x0 KECCAK256 SWAP1 PUSH1 0x2 MUL ADD PUSH1 0x1 ADD PUSH1 0x15 SWAP1 SLOAD SWAP1 PUSH2 0x100 EXP SWAP1 DIV PUSH1 0xFF AND ISZERO ISZERO EQ JUMPDEST DUP1 ISZERO PUSH2 0x3646 JUMPI POP CALLER PUSH20 0xFFFFFFFFFFFFFFFFFFFFFFFFFFFFFFFFFFFFFFFF AND PUSH1 0xA DUP3 DUP2 SLOAD DUP2 LT PUSH2 0x35FB JUMPI PUSH2 0x35FA PUSH2 0x40F0 JUMP JUMPDEST JUMPDEST SWAP1 PUSH1 0x0 MSTORE PUSH1 0x20 PUSH1 0x0 KECCAK256 SWAP1 PUSH1 0x2 MUL ADD PUSH1 0x0 ADD PUSH1 0x0 SWAP1 SLOAD SWAP1 PUSH2 0x100 EXP SWAP1 DIV PUSH20 0xFFFFFFFFFFFFFFFFFFFFFFFFFFFFFFFFFFFFFFFF AND PUSH20 0xFFFFFFFFFFFFFFFFFFFFFFFFFFFFFFFFFFFFFFFF AND EQ ISZERO JUMPDEST ISZERO PUSH2 0x3655 JUMPI PUSH1 0x1 SWAP2 POP POP PUSH2 0x366C JUMP JUMPDEST DUP1 PUSH2 0x365F SWAP1 PUSH2 0x414E JUMP JUMPDEST SWAP1 POP PUSH2 0x3507 JUMP JUMPDEST POP PUSH1 0x0 SWAP1 POP JUMPDEST SWAP3 SWAP2 POP POP JUMP JUMPDEST PUSH1 0x5 PUSH1 0x0 SWAP1 SLOAD SWAP1 PUSH2 0x100 EXP SWAP1 DIV PUSH20 0xFFFFFFFFFFFFFFFFFFFFFFFFFFFFFFFFFFFFFFFF AND PUSH20 0xFFFFFFFFFFFFFFFFFFFFFFFFFFFFFFFFFFFFFFFF AND CALLER PUSH20 0xFFFFFFFFFFFFFFFFFFFFFFFFFFFFFFFFFFFFFFFF AND EQ DUP1 PUSH2 0x371B JUMPI POP PUSH1 0x6 PUSH1 0x0 SWAP1 SLOAD SWAP1 PUSH2 0x100 EXP SWAP1 DIV PUSH20 0xFFFFFFFFFFFFFFFFFFFFFFFFFFFFFFFFFFFFFFFF AND PUSH20 0xFFFFFFFFFFFFFFFFFFFFFFFFFFFFFFFFFFFFFFFF AND CALLER PUSH20 0xFFFFFFFFFFFFFFFFFFFFFFFFFFFFFFFFFFFFFFFF AND EQ JUMPDEST PUSH2 0x373A CALLER PUSH20 0xFFFFFFFFFFFFFFFFFFFFFFFFFFFFFFFFFFFFFFFF AND PUSH2 0x3101 JUMP JUMPDEST PUSH1 0x40 MLOAD PUSH1 0x20 ADD PUSH2 0x374A SWAP2 SWAP1 PUSH2 0x42B0 JUMP JUMPDEST PUSH1 0x40 MLOAD PUSH1 0x20 DUP2 DUP4 SUB SUB DUP2 MSTORE SWAP1 PUSH1 0x40 MSTORE SWAP1 PUSH2 0x379A JUMPI PUSH1 0x40 MLOAD PUSH32 0x8C379A000000000000000000000000000000000000000000000000000000000 DUP2 MSTORE PUSH1 0x4 ADD PUSH2 0x3791 SWAP2 SWAP1 PUSH2 0x3C4B JUMP JUMPDEST PUSH1 0x40 MLOAD DUP1 SWAP2 SUB SWAP1 REVERT JUMPDEST POP PUSH1 0x0 JUMPDEST PUSH1 0xA DUP1 SLOAD SWAP1 POP DUP2 LT ISZERO PUSH2 0x38B5 JUMPI DUP3 PUSH20 0xFFFFFFFFFFFFFFFFFFFFFFFFFFFFFFFFFFFFFFFF AND PUSH1 0xA DUP3 DUP2 SLOAD DUP2 LT PUSH2 0x37D6 JUMPI PUSH2 0x37D5 PUSH2 0x40F0 JUMP JUMPDEST JUMPDEST SWAP1 PUSH1 0x0 MSTORE PUSH1 0x20 PUSH1 0x0 KECCAK256 SWAP1 PUSH1 0x2 MUL ADD PUSH1 0x1 ADD PUSH1 0x0 SWAP1 SLOAD SWAP1 PUSH2 0x100 EXP SWAP1 DIV PUSH20 0xFFFFFFFFFFFFFFFFFFFFFFFFFFFFFFFFFFFFFFFF AND PUSH20 0xFFFFFFFFFFFFFFFFFFFFFFFFFFFFFFFFFFFFFFFF AND EQ DUP1 ISZERO PUSH2 0x3860 JUMPI POP DUP2 ISZERO ISZERO PUSH1 0xA DUP3 DUP2 SLOAD DUP2 LT PUSH2 0x383D JUMPI PUSH2 0x383C PUSH2 0x40F0 JUMP JUMPDEST JUMPDEST SWAP1 PUSH1 0x0 MSTORE PUSH1 0x20 PUSH1 0x0 KECCAK256 SWAP1 PUSH1 0x2 MUL ADD PUSH1 0x1 ADD PUSH1 0x15 SWAP1 SLOAD SWAP1 PUSH2 0x100 EXP SWAP1 DIV PUSH1 0xFF AND ISZERO ISZERO EQ JUMPDEST ISZERO PUSH2 0x38A4 JUMPI PUSH1 0x1 PUSH1 0xA DUP3 DUP2 SLOAD DUP2 LT PUSH2 0x387B JUMPI PUSH2 0x387A PUSH2 0x40F0 JUMP JUMPDEST JUMPDEST SWAP1 PUSH1 0x0 MSTORE PUSH1 0x20 PUSH1 0x0 KECCAK256 SWAP1 PUSH1 0x2 MUL ADD PUSH1 0x1 ADD PUSH1 0x14 PUSH2 0x100 EXP DUP2 SLOAD DUP2 PUSH1 0xFF MUL NOT AND SWAP1 DUP4 ISZERO ISZERO MUL OR SWAP1 SSTORE POP JUMPDEST DUP1 PUSH2 0x38AE SWAP1 PUSH2 0x414E JUMP JUMPDEST SWAP1 POP PUSH2 0x379E JUMP JUMPDEST POP POP POP JUMP JUMPDEST PUSH1 0x5 PUSH1 0x0 SWAP1 SLOAD SWAP1 PUSH2 0x100 EXP SWAP1 DIV PUSH20 0xFFFFFFFFFFFFFFFFFFFFFFFFFFFFFFFFFFFFFFFF AND PUSH20 0xFFFFFFFFFFFFFFFFFFFFFFFFFFFFFFFFFFFFFFFF AND CALLER PUSH20 0xFFFFFFFFFFFFFFFFFFFFFFFFFFFFFFFFFFFFFFFF AND EQ DUP1 PUSH2 0x3963 JUMPI POP PUSH1 0x6 PUSH1 0x0 SWAP1 SLOAD SWAP1 PUSH2 0x100 EXP SWAP1 DIV PUSH20 0xFFFFFFFFFFFFFFFFFFFFFFFFFFFFFFFFFFFFFFFF AND PUSH20 0xFFFFFFFFFFFFFFFFFFFFFFFFFFFFFFFFFFFFFFFF AND CALLER PUSH20 0xFFFFFFFFFFFFFFFFFFFFFFFFFFFFFFFFFFFFFFFF AND EQ JUMPDEST PUSH2 0x3982 CALLER PUSH20 0xFFFFFFFFFFFFFFFFFFFFFFFFFFFFFFFFFFFFFFFF AND PUSH2 0x3101 JUMP JUMPDEST PUSH1 0x40 MLOAD PUSH1 0x20 ADD PUSH2 0x3992 SWAP2 SWAP1 PUSH2 0x42B0 JUMP JUMPDEST PUSH1 0x40 MLOAD PUSH1 0x20 DUP2 DUP4 SUB SUB DUP2 MSTORE SWAP1 PUSH1 0x40 MSTORE SWAP1 PUSH2 0x39E2 JUMPI PUSH1 0x40 MLOAD PUSH32 0x8C379A000000000000000000000000000000000000000000000000000000000 DUP2 MSTORE PUSH1 0x4 ADD PUSH2 0x39D9 SWAP2 SWAP1 PUSH2 0x3C4B JUMP JUMPDEST PUSH1 0x40 MLOAD DUP1 SWAP2 SUB SWAP1 REVERT JUMPDEST POP PUSH1 0xA PUSH1 0x40 MLOAD DUP1 PUSH1 0x80 ADD PUSH1 0x40 MSTORE DUP1 CALLER PUSH20 0xFFFFFFFFFFFFFFFFFFFFFFFFFFFFFFFFFFFFFFFF AND DUP2 MSTORE PUSH1 0x20 ADD DUP5 PUSH20 0xFFFFFFFFFFFFFFFFFFFFFFFFFFFFFFFFFFFFFFFF AND DUP2 MSTORE PUSH1 0x20 ADD PUSH1 0x0 ISZERO ISZERO DUP2 MSTORE PUSH1 0x20 ADD DUP4 ISZERO ISZERO DUP2 MSTORE POP SWAP1 DUP1 PUSH1 0x1 DUP2 SLOAD ADD DUP1 DUP3 SSTORE DUP1 SWAP2 POP POP PUSH1 0x1 SWAP1 SUB SWAP1 PUSH1 0x0 MSTORE PUSH1 0x20 PUSH1 0x0 KECCAK256 SWAP1 PUSH1 0x2 MUL ADD PUSH1 0x0 SWAP1 SWAP2 SWAP1 SWAP2 SWAP1 SWAP2 POP PUSH1 0x0 DUP3 ADD MLOAD DUP2 PUSH1 0x0 ADD PUSH1 0x0 PUSH2 0x100 EXP DUP2 SLOAD DUP2 PUSH20 0xFFFFFFFFFFFFFFFFFFFFFFFFFFFFFFFFFFFFFFFF MUL NOT AND SWAP1 DUP4 PUSH20 0xFFFFFFFFFFFFFFFFFFFFFFFFFFFFFFFFFFFFFFFF AND MUL OR SWAP1 SSTORE POP PUSH1 0x20 DUP3 ADD MLOAD DUP2 PUSH1 0x1 ADD PUSH1 0x0 PUSH2 0x100 EXP DUP2 SLOAD DUP2 PUSH20 0xFFFFFFFFFFFFFFFFFFFFFFFFFFFFFFFFFFFFFFFF MUL NOT AND SWAP1 DUP4 PUSH20 0xFFFFFFFFFFFFFFFFFFFFFFFFFFFFFFFFFFFFFFFF AND MUL OR SWAP1 SSTORE POP PUSH1 0x40 DUP3 ADD MLOAD DUP2 PUSH1 0x1 ADD PUSH1 0x14 PUSH2 0x100 EXP DUP2 SLOAD DUP2 PUSH1 0xFF MUL NOT AND SWAP1 DUP4 ISZERO ISZERO MUL OR SWAP1 SSTORE POP PUSH1 0x60 DUP3 ADD MLOAD DUP2 PUSH1 0x1 ADD PUSH1 0x15 PUSH2 0x100 EXP DUP2 SLOAD DUP2 PUSH1 0xFF MUL NOT AND SWAP1 DUP4 ISZERO ISZERO MUL OR SWAP1 SSTORE POP POP POP PUSH32 0xE8FAADD3EA95010CEE81735CF90A770207ADD83D51E5309C696F9C23EC5D75CD DUP3 PUSH1 0x40 MLOAD PUSH2 0x3B5F SWAP2 SWAP1 PUSH2 0x4616 JUMP JUMPDEST PUSH1 0x40 MLOAD DUP1 SWAP2 SUB SWAP1 LOG1 POP POP JUMP JUMPDEST POP POP POP JUMP JUMPDEST POP POP POP JUMP JUMPDEST PUSH1 0x0 PUSH1 0xA DUP3 PUSH1 0xF8 SHR PUSH1 0xFF AND LT ISZERO PUSH2 0x3BA0 JUMPI PUSH1 0x30 DUP3 PUSH1 0xF8 SHR PUSH2 0x3B96 SWAP2 SWAP1 PUSH2 0x52AF JUMP JUMPDEST PUSH1 0xF8 SHL SWAP1 POP PUSH2 0x3BB6 JUMP JUMPDEST PUSH1 0x57 DUP3 PUSH1 0xF8 SHR PUSH2 0x3BB0 SWAP2 SWAP1 PUSH2 0x52AF JUMP JUMPDEST PUSH1 0xF8 SHL SWAP1 POP JUMPDEST SWAP2 SWAP1 POP JUMP JUMPDEST PUSH1 0x0 DUP2 MLOAD SWAP1 POP SWAP2 SWAP1 POP JUMP JUMPDEST PUSH1 0x0 DUP3 DUP3 MSTORE PUSH1 0x20 DUP3 ADD SWAP1 POP SWAP3 SWAP2 POP POP JUMP JUMPDEST PUSH1 0x0 JUMPDEST DUP4 DUP2 LT ISZERO PUSH2 0x3BF5 JUMPI DUP1 DUP3 ADD MLOAD DUP2 DUP5 ADD MSTORE PUSH1 0x20 DUP2 ADD SWAP1 POP PUSH2 0x3BDA JUMP JUMPDEST PUSH1 0x0 DUP5 DUP5 ADD MSTORE POP POP POP POP JUMP JUMPDEST PUSH1 0x0 PUSH1 0x1F NOT PUSH1 0x1F DUP4 ADD AND SWAP1 POP SWAP2 SWAP1 POP JUMP JUMPDEST PUSH1 0x0 PUSH2 0x3C1D DUP3 PUSH2 0x3BBB JUMP JUMPDEST PUSH2 0x3C27 DUP2 DUP6 PUSH2 0x3BC6 JUMP JUMPDEST SWAP4 POP PUSH2 0x3C37 DUP2 DUP6 PUSH1 0x20 DUP7 ADD PUSH2 0x3BD7 JUMP JUMPDEST PUSH2 0x3C40 DUP2 PUSH2 0x3C01 JUMP JUMPDEST DUP5 ADD SWAP2 POP POP SWAP3 SWAP2 POP POP JUMP JUMPDEST PUSH1 0x0 PUSH1 0x20 DUP3 ADD SWAP1 POP DUP2 DUP2 SUB PUSH1 0x0 DUP4 ADD MSTORE PUSH2 0x3C65 DUP2 DUP5 PUSH2 0x3C12 JUMP JUMPDEST SWAP1 POP SWAP3 SWAP2 POP POP JUMP JUMPDEST PUSH1 0x0 PUSH1 0x40 MLOAD SWAP1 POP SWAP1 JUMP JUMPDEST PUSH1 0x0 DUP1 REVERT JUMPDEST PUSH1 0x0 DUP1 REVERT JUMPDEST PUSH1 0x0 PUSH20 0xFFFFFFFFFFFFFFFFFFFFFFFFFFFFFFFFFFFFFFFF DUP3 AND SWAP1 POP SWAP2 SWAP1 POP JUMP JUMPDEST PUSH1 0x0 PUSH2 0x3CAC DUP3 PUSH2 0x3C81 JUMP JUMPDEST SWAP1 POP SWAP2 SWAP1 POP JUMP JUMPDEST PUSH2 0x3CBC DUP2 PUSH2 0x3CA1 JUMP JUMPDEST DUP2 EQ PUSH2 0x3CC7 JUMPI PUSH1 0x0 DUP1 REVERT JUMPDEST POP JUMP JUMPDEST PUSH1 0x0 DUP2 CALLDATALOAD SWAP1 POP PUSH2 0x3CD9 DUP2 PUSH2 0x3CB3 JUMP JUMPDEST SWAP3 SWAP2 POP POP JUMP JUMPDEST PUSH1 0x0 DUP2 SWAP1 POP SWAP2 SWAP1 POP JUMP JUMPDEST PUSH2 0x3CF2 DUP2 PUSH2 0x3CDF JUMP JUMPDEST DUP2 EQ PUSH2 0x3CFD JUMPI PUSH1 0x0 DUP1 REVERT JUMPDEST POP JUMP JUMPDEST PUSH1 0x0 DUP2 CALLDATALOAD SWAP1 POP PUSH2 0x3D0F DUP2 PUSH2 0x3CE9 JUMP JUMPDEST SWAP3 SWAP2 POP POP JUMP JUMPDEST PUSH1 0x0 DUP1 PUSH1 0x40 DUP4 DUP6 SUB SLT ISZERO PUSH2 0x3D2C JUMPI PUSH2 0x3D2B PUSH2 0x3C77 JUMP JUMPDEST JUMPDEST PUSH1 0x0 PUSH2 0x3D3A DUP6 DUP3 DUP7 ADD PUSH2 0x3CCA JUMP JUMPDEST SWAP3 POP POP PUSH1 0x20 PUSH2 0x3D4B DUP6 DUP3 DUP7 ADD PUSH2 0x3D00 JUMP JUMPDEST SWAP2 POP POP SWAP3 POP SWAP3 SWAP1 POP JUMP JUMPDEST PUSH1 0x0 DUP2 ISZERO ISZERO SWAP1 POP SWAP2 SWAP1 POP JUMP JUMPDEST PUSH2 0x3D6A DUP2 PUSH2 0x3D55 JUMP JUMPDEST DUP3 MSTORE POP POP JUMP JUMPDEST PUSH1 0x0 PUSH1 0x20 DUP3 ADD SWAP1 POP PUSH2 0x3D85 PUSH1 0x0 DUP4 ADD DUP5 PUSH2 0x3D61 JUMP JUMPDEST SWAP3 SWAP2 POP POP JUMP JUMPDEST PUSH2 0x3D94 DUP2 PUSH2 0x3CA1 JUMP JUMPDEST DUP3 MSTORE POP POP JUMP JUMPDEST PUSH1 0x0 PUSH1 0x20 DUP3 ADD SWAP1 POP PUSH2 0x3DAF PUSH1 0x0 DUP4 ADD DUP5 PUSH2 0x3D8B JUMP JUMPDEST SWAP3 SWAP2 POP POP JUMP JUMPDEST PUSH2 0x3DBE DUP2 PUSH2 0x3CDF JUMP JUMPDEST DUP3 MSTORE POP POP JUMP JUMPDEST PUSH1 0x0 PUSH1 0x20 DUP3 ADD SWAP1 POP PUSH2 0x3DD9 PUSH1 0x0 DUP4 ADD DUP5 PUSH2 0x3DB5 JUMP JUMPDEST SWAP3 SWAP2 POP POP JUMP JUMPDEST PUSH1 0x0 PUSH1 0x20 DUP3 DUP5 SUB SLT ISZERO PUSH2 0x3DF5 JUMPI PUSH2 0x3DF4 PUSH2 0x3C77 JUMP JUMPDEST JUMPDEST PUSH1 0x0 PUSH2 0x3E03 DUP5 DUP3 DUP6 ADD PUSH2 0x3CCA JUMP JUMPDEST SWAP2 POP POP SWAP3 SWAP2 POP POP JUMP JUMPDEST PUSH1 0x0 DUP1 PUSH1 0x0 PUSH1 0x60 DUP5 DUP7 SUB SLT ISZERO PUSH2 0x3E25 JUMPI PUSH2 0x3E24 PUSH2 0x3C77 JUMP JUMPDEST JUMPDEST PUSH1 0x0 PUSH2 0x3E33 DUP7 DUP3 DUP8 ADD PUSH2 0x3CCA JUMP JUMPDEST SWAP4 POP POP PUSH1 0x20 PUSH2 0x3E44 DUP7 DUP3 DUP8 ADD PUSH2 0x3CCA JUMP JUMPDEST SWAP3 POP POP PUSH1 0x40 PUSH2 0x3E55 DUP7 DUP3 DUP8 ADD PUSH2 0x3D00 JUMP JUMPDEST SWAP2 POP POP SWAP3 POP SWAP3 POP SWAP3 JUMP JUMPDEST PUSH1 0x0 PUSH1 0xFF DUP3 AND SWAP1 POP SWAP2 SWAP1 POP JUMP JUMPDEST PUSH2 0x3E75 DUP2 PUSH2 0x3E5F JUMP JUMPDEST DUP3 MSTORE POP POP JUMP JUMPDEST PUSH1 0x0 PUSH1 0x20 DUP3 ADD SWAP1 POP PUSH2 0x3E90 PUSH1 0x0 DUP4 ADD DUP5 PUSH2 0x3E6C JUMP JUMPDEST SWAP3 SWAP2 POP POP JUMP JUMPDEST PUSH1 0x0 DUP1 REVERT JUMPDEST PUSH1 0x0 DUP1 REVERT JUMPDEST PUSH32 0x4E487B7100000000000000000000000000000000000000000000000000000000 PUSH1 0x0 MSTORE PUSH1 0x41 PUSH1 0x4 MSTORE PUSH1 0x24 PUSH1 0x0 REVERT JUMPDEST PUSH2 0x3ED8 DUP3 PUSH2 0x3C01 JUMP JUMPDEST DUP2 ADD DUP2 DUP2 LT PUSH8 0xFFFFFFFFFFFFFFFF DUP3 GT OR ISZERO PUSH2 0x3EF7 JUMPI PUSH2 0x3EF6 PUSH2 0x3EA0 JUMP JUMPDEST JUMPDEST DUP1 PUSH1 0x40 MSTORE POP POP POP JUMP JUMPDEST PUSH1 0x0 PUSH2 0x3F0A PUSH2 0x3C6D JUMP JUMPDEST SWAP1 POP PUSH2 0x3F16 DUP3 DUP3 PUSH2 0x3ECF JUMP JUMPDEST SWAP2 SWAP1 POP JUMP JUMPDEST PUSH1 0x0 PUSH8 0xFFFFFFFFFFFFFFFF DUP3 GT ISZERO PUSH2 0x3F36 JUMPI PUSH2 0x3F35 PUSH2 0x3EA0 JUMP JUMPDEST JUMPDEST PUSH2 0x3F3F DUP3 PUSH2 0x3C01 JUMP JUMPDEST SWAP1 POP PUSH1 0x20 DUP2 ADD SWAP1 POP SWAP2 SWAP1 POP JUMP JUMPDEST DUP3 DUP2 DUP4 CALLDATACOPY PUSH1 0x0 DUP4 DUP4 ADD MSTORE POP POP POP JUMP JUMPDEST PUSH1 0x0 PUSH2 0x3F6E PUSH2 0x3F69 DUP5 PUSH2 0x3F1B JUMP JUMPDEST PUSH2 0x3F00 JUMP JUMPDEST SWAP1 POP DUP3 DUP2 MSTORE PUSH1 0x20 DUP2 ADD DUP5 DUP5 DUP5 ADD GT ISZERO PUSH2 0x3F8A JUMPI PUSH2 0x3F89 PUSH2 0x3E9B JUMP JUMPDEST JUMPDEST PUSH2 0x3F95 DUP5 DUP3 DUP6 PUSH2 0x3F4C JUMP JUMPDEST POP SWAP4 SWAP3 POP POP POP JUMP JUMPDEST PUSH1 0x0 DUP3 PUSH1 0x1F DUP4 ADD SLT PUSH2 0x3FB2 JUMPI PUSH2 0x3FB1 PUSH2 0x3E96 JUMP JUMPDEST JUMPDEST DUP2 CALLDATALOAD PUSH2 0x3FC2 DUP5 DUP3 PUSH1 0x20 DUP7 ADD PUSH2 0x3F5B JUMP JUMPDEST SWAP2 POP POP SWAP3 SWAP2 POP POP JUMP JUMPDEST PUSH1 0x0 DUP1 PUSH1 0x40 DUP4 DUP6 SUB SLT ISZERO PUSH2 0x3FE2 JUMPI PUSH2 0x3FE1 PUSH2 0x3C77 JUMP JUMPDEST JUMPDEST PUSH1 0x0 DUP4 ADD CALLDATALOAD PUSH8 0xFFFFFFFFFFFFFFFF DUP2 GT ISZERO PUSH2 0x4000 JUMPI PUSH2 0x3FFF PUSH2 0x3C7C JUMP JUMPDEST JUMPDEST PUSH2 0x400C DUP6 DUP3 DUP7 ADD PUSH2 0x3F9D JUMP JUMPDEST SWAP3 POP POP PUSH1 0x20 PUSH2 0x401D DUP6 DUP3 DUP7 ADD PUSH2 0x3CCA JUMP JUMPDEST SWAP2 POP POP SWAP3 POP SWAP3 SWAP1 POP JUMP JUMPDEST PUSH1 0x0 PUSH1 0x40 DUP3 ADD SWAP1 POP PUSH2 0x403C PUSH1 0x0 DUP4 ADD DUP6 PUSH2 0x3DB5 JUMP JUMPDEST PUSH2 0x4049 PUSH1 0x20 DUP4 ADD DUP5 PUSH2 0x3D8B JUMP JUMPDEST SWAP4 SWAP3 POP POP POP JUMP JUMPDEST PUSH1 0x0 DUP1 PUSH1 0x40 DUP4 DUP6 SUB SLT ISZERO PUSH2 0x4067 JUMPI PUSH2 0x4066 PUSH2 0x3C77 JUMP JUMPDEST JUMPDEST PUSH1 0x0 PUSH2 0x4075 DUP6 DUP3 DUP7 ADD PUSH2 0x3CCA JUMP JUMPDEST SWAP3 POP POP PUSH1 0x20 PUSH2 0x4086 DUP6 DUP3 DUP7 ADD PUSH2 0x3CCA JUMP JUMPDEST SWAP2 POP POP SWAP3 POP SWAP3 SWAP1 POP JUMP JUMPDEST PUSH32 0x4E487B7100000000000000000000000000000000000000000000000000000000 PUSH1 0x0 MSTORE PUSH1 0x22 PUSH1 0x4 MSTORE PUSH1 0x24 PUSH1 0x0 REVERT JUMPDEST PUSH1 0x0 PUSH1 0x2 DUP3 DIV SWAP1 POP PUSH1 0x1 DUP3 AND DUP1 PUSH2 0x40D7 JUMPI PUSH1 0x7F DUP3 AND SWAP2 POP JUMPDEST PUSH1 0x20 DUP3 LT DUP2 SUB PUSH2 0x40EA JUMPI PUSH2 0x40E9 PUSH2 0x4090 JUMP JUMPDEST JUMPDEST POP SWAP2 SWAP1 POP JUMP JUMPDEST PUSH32 0x4E487B7100000000000000000000000000000000000000000000000000000000 PUSH1 0x0 MSTORE PUSH1 0x32 PUSH1 0x4 MSTORE PUSH1 0x24 PUSH1 0x0 REVERT JUMPDEST PUSH32 0x4E487B7100000000000000000000000000000000000000000000000000000000 PUSH1 0x0 MSTORE PUSH1 0x11 PUSH1 0x4 MSTORE PUSH1 0x24 PUSH1 0x0 REVERT JUMPDEST PUSH1 0x0 PUSH2 0x4159 DUP3 PUSH2 0x3CDF JUMP JUMPDEST SWAP2 POP PUSH32 0xFFFFFFFFFFFFFFFFFFFFFFFFFFFFFFFFFFFFFFFFFFFFFFFFFFFFFFFFFFFFFFFF DUP3 SUB PUSH2 0x418B JUMPI PUSH2 0x418A PUSH2 0x411F JUMP JUMPDEST JUMPDEST PUSH1 0x1 DUP3 ADD SWAP1 POP SWAP2 SWAP1 POP JUMP JUMPDEST PUSH32 0x45524332303A207472616E7366657220616D6F756E7420657863656564732061 PUSH1 0x0 DUP3 ADD MSTORE PUSH32 0x6C6C6F77616E6365000000000000000000000000000000000000000000000000 PUSH1 0x20 DUP3 ADD MSTORE POP JUMP JUMPDEST PUSH1 0x0 PUSH2 0x41F2 PUSH1 0x28 DUP4 PUSH2 0x3BC6 JUMP JUMPDEST SWAP2 POP PUSH2 0x41FD DUP3 PUSH2 0x4196 JUMP JUMPDEST PUSH1 0x40 DUP3 ADD SWAP1 POP SWAP2 SWAP1 POP JUMP JUMPDEST PUSH1 0x0 PUSH1 0x20 DUP3 ADD SWAP1 POP DUP2 DUP2 SUB PUSH1 0x0 DUP4 ADD MSTORE PUSH2 0x4221 DUP2 PUSH2 0x41E5 JUMP JUMPDEST SWAP1 POP SWAP2 SWAP1 POP JUMP JUMPDEST PUSH1 0x0 DUP2 SWAP1 POP SWAP3 SWAP2 POP POP JUMP JUMPDEST PUSH32 0x43616C6C6572206973206E6F74207375706572206F776E657220000000000000 PUSH1 0x0 DUP3 ADD MSTORE POP JUMP JUMPDEST PUSH1 0x0 PUSH2 0x4269 PUSH1 0x1A DUP4 PUSH2 0x4228 JUMP JUMPDEST SWAP2 POP PUSH2 0x4274 DUP3 PUSH2 0x4233 JUMP JUMPDEST PUSH1 0x1A DUP3 ADD SWAP1 POP SWAP2 SWAP1 POP JUMP JUMPDEST PUSH1 0x0 PUSH2 0x428A DUP3 PUSH2 0x3BBB JUMP JUMPDEST PUSH2 0x4294 DUP2 DUP6 PUSH2 0x4228 JUMP JUMPDEST SWAP4 POP PUSH2 0x42A4 DUP2 DUP6 PUSH1 0x20 DUP7 ADD PUSH2 0x3BD7 JUMP JUMPDEST DUP1 DUP5 ADD SWAP2 POP POP SWAP3 SWAP2 POP POP JUMP JUMPDEST PUSH1 0x0 PUSH2 0x42BB DUP3 PUSH2 0x425C JUMP JUMPDEST SWAP2 POP PUSH2 0x42C7 DUP3 DUP5 PUSH2 0x427F JUMP JUMPDEST SWAP2 POP DUP2 SWAP1 POP SWAP3 SWAP2 POP POP JUMP JUMPDEST PUSH1 0x0 DUP2 SWAP1 POP DUP2 PUSH1 0x0 MSTORE PUSH1 0x20 PUSH1 0x0 KECCAK256 SWAP1 POP SWAP2 SWAP1 POP JUMP JUMPDEST PUSH1 0x0 PUSH1 0x20 PUSH1 0x1F DUP4 ADD DIV SWAP1 POP SWAP2 SWAP1 POP JUMP JUMPDEST PUSH1 0x0 DUP3 DUP3 SHL SWAP1 POP SWAP3 SWAP2 POP POP JUMP JUMPDEST PUSH1 0x0 PUSH1 0x8 DUP4 MUL PUSH2 0x4334 PUSH32 0xFFFFFFFFFFFFFFFFFFFFFFFFFFFFFFFFFFFFFFFFFFFFFFFFFFFFFFFFFFFFFFFF DUP3 PUSH2 0x42F7 JUMP JUMPDEST PUSH2 0x433E DUP7 DUP4 PUSH2 0x42F7 JUMP JUMPDEST SWAP6 POP DUP1 NOT DUP5 AND SWAP4 POP DUP1 DUP7 AND DUP5 OR SWAP3 POP POP POP SWAP4 SWAP3 POP POP POP JUMP JUMPDEST PUSH1 0x0 DUP2 SWAP1 POP SWAP2 SWAP1 POP JUMP JUMPDEST PUSH1 0x0 PUSH2 0x437B PUSH2 0x4376 PUSH2 0x4371 DUP5 PUSH2 0x3CDF JUMP JUMPDEST PUSH2 0x4356 JUMP JUMPDEST PUSH2 0x3CDF JUMP JUMPDEST SWAP1 POP SWAP2 SWAP1 POP JUMP JUMPDEST PUSH1 0x0 DUP2 SWAP1 POP SWAP2 SWAP1 POP JUMP JUMPDEST PUSH2 0x4395 DUP4 PUSH2 0x4360 JUMP JUMPDEST PUSH2 0x43A9 PUSH2 0x43A1 DUP3 PUSH2 0x4382 JUMP JUMPDEST DUP5 DUP5 SLOAD PUSH2 0x4304 JUMP JUMPDEST DUP3 SSTORE POP POP POP POP JUMP JUMPDEST PUSH1 0x0 SWAP1 JUMP JUMPDEST PUSH2 0x43BE PUSH2 0x43B1 JUMP JUMPDEST PUSH2 0x43C9 DUP2 DUP5 DUP5 PUSH2 0x438C JUMP JUMPDEST POP POP POP JUMP JUMPDEST JUMPDEST DUP2 DUP2 LT ISZERO PUSH2 0x43ED JUMPI PUSH2 0x43E2 PUSH1 0x0 DUP3 PUSH2 0x43B6 JUMP JUMPDEST PUSH1 0x1 DUP2 ADD SWAP1 POP PUSH2 0x43CF JUMP JUMPDEST POP POP JUMP JUMPDEST PUSH1 0x1F DUP3 GT ISZERO PUSH2 0x4432 JUMPI PUSH2 0x4403 DUP2 PUSH2 0x42D2 JUMP JUMPDEST PUSH2 0x440C DUP5 PUSH2 0x42E7 JUMP JUMPDEST DUP2 ADD PUSH1 0x20 DUP6 LT ISZERO PUSH2 0x441B JUMPI DUP2 SWAP1 POP JUMPDEST PUSH2 0x442F PUSH2 0x4427 DUP6 PUSH2 0x42E7 JUMP JUMPDEST DUP4 ADD DUP3 PUSH2 0x43CE JUMP JUMPDEST POP POP JUMPDEST POP POP POP JUMP JUMPDEST PUSH1 0x0 DUP3 DUP3 SHR SWAP1 POP SWAP3 SWAP2 POP POP JUMP JUMPDEST PUSH1 0x0 PUSH2 0x4455 PUSH1 0x0 NOT DUP5 PUSH1 0x8 MUL PUSH2 0x4437 JUMP JUMPDEST NOT DUP1 DUP4 AND SWAP2 POP POP SWAP3 SWAP2 POP POP JUMP JUMPDEST PUSH1 0x0 PUSH2 0x446E DUP4 DUP4 PUSH2 0x4444 JUMP JUMPDEST SWAP2 POP DUP3 PUSH1 0x2 MUL DUP3 OR SWAP1 POP SWAP3 SWAP2 POP POP JUMP JUMPDEST PUSH2 0x4487 DUP3 PUSH2 0x3BBB JUMP JUMPDEST PUSH8 0xFFFFFFFFFFFFFFFF DUP2 GT ISZERO PUSH2 0x44A0 JUMPI PUSH2 0x449F PUSH2 0x3EA0 JUMP JUMPDEST JUMPDEST PUSH2 0x44AA DUP3 SLOAD PUSH2 0x40BF JUMP JUMPDEST PUSH2 0x44B5 DUP3 DUP3 DUP6 PUSH2 0x43F1 JUMP JUMPDEST PUSH1 0x0 PUSH1 0x20 SWAP1 POP PUSH1 0x1F DUP4 GT PUSH1 0x1 DUP2 EQ PUSH2 0x44E8 JUMPI PUSH1 0x0 DUP5 ISZERO PUSH2 0x44D6 JUMPI DUP3 DUP8 ADD MLOAD SWAP1 POP JUMPDEST PUSH2 0x44E0 DUP6 DUP3 PUSH2 0x4462 JUMP JUMPDEST DUP7 SSTORE POP PUSH2 0x4548 JUMP JUMPDEST PUSH1 0x1F NOT DUP5 AND PUSH2 0x44F6 DUP7 PUSH2 0x42D2 JUMP JUMPDEST PUSH1 0x0 JUMPDEST DUP3 DUP2 LT ISZERO PUSH2 0x451E JUMPI DUP5 DUP10 ADD MLOAD DUP3 SSTORE PUSH1 0x1 DUP3 ADD SWAP2 POP PUSH1 0x20 DUP6 ADD SWAP5 POP PUSH1 0x20 DUP2 ADD SWAP1 POP PUSH2 0x44F9 JUMP JUMPDEST DUP7 DUP4 LT ISZERO PUSH2 0x453B JUMPI DUP5 DUP10 ADD MLOAD PUSH2 0x4537 PUSH1 0x1F DUP10 AND DUP3 PUSH2 0x4444 JUMP JUMPDEST DUP4 SSTORE POP JUMPDEST PUSH1 0x1 PUSH1 0x2 DUP9 MUL ADD DUP9 SSTORE POP POP POP JUMPDEST POP POP POP POP POP POP JUMP JUMPDEST PUSH32 0x4164647265737320616464656400000000000000000000000000000000000000 PUSH1 0x0 DUP3 ADD MSTORE POP JUMP JUMPDEST PUSH1 0x0 PUSH2 0x4586 PUSH1 0xD DUP4 PUSH2 0x3BC6 JUMP JUMPDEST SWAP2 POP PUSH2 0x4591 DUP3 PUSH2 0x4550 JUMP JUMPDEST PUSH1 0x20 DUP3 ADD SWAP1 POP SWAP2 SWAP1 POP JUMP JUMPDEST PUSH1 0x0 PUSH1 0x40 DUP3 ADD SWAP1 POP DUP2 DUP2 SUB PUSH1 0x0 DUP4 ADD MSTORE PUSH2 0x45B5 DUP2 PUSH2 0x4579 JUMP JUMPDEST SWAP1 POP PUSH2 0x45C4 PUSH1 0x20 DUP4 ADD DUP5 PUSH2 0x3D8B JUMP JUMPDEST SWAP3 SWAP2 POP POP JUMP JUMPDEST PUSH32 0x416464726573732077616974696E6720666F7220636F6E6669726D6174696F6E PUSH1 0x0 DUP3 ADD MSTORE POP JUMP JUMPDEST PUSH1 0x0 PUSH2 0x4600 PUSH1 0x20 DUP4 PUSH2 0x3BC6 JUMP JUMPDEST SWAP2 POP PUSH2 0x460B DUP3 PUSH2 0x45CA JUMP JUMPDEST PUSH1 0x20 DUP3 ADD SWAP1 POP SWAP2 SWAP1 POP JUMP JUMPDEST PUSH1 0x0 PUSH1 0x40 DUP3 ADD SWAP1 POP DUP2 DUP2 SUB PUSH1 0x0 DUP4 ADD MSTORE PUSH2 0x462F DUP2 PUSH2 0x45F3 JUMP JUMPDEST SWAP1 POP PUSH2 0x463E PUSH1 0x20 DUP4 ADD DUP5 PUSH2 0x3D8B JUMP JUMPDEST SWAP3 SWAP2 POP POP JUMP JUMPDEST PUSH1 0x0 PUSH2 0x464F DUP3 PUSH2 0x3CDF JUMP JUMPDEST SWAP2 POP PUSH2 0x465A DUP4 PUSH2 0x3CDF JUMP JUMPDEST SWAP3 POP DUP3 DUP3 ADD SWAP1 POP DUP1 DUP3 GT ISZERO PUSH2 0x4672 JUMPI PUSH2 0x4671 PUSH2 0x411F JUMP JUMPDEST JUMPDEST SWAP3 SWAP2 POP POP JUMP JUMPDEST PUSH32 0x43616C6C657220686173206E6F207065726D697373696F6E2000000000000000 PUSH1 0x0 DUP3 ADD MSTORE POP JUMP JUMPDEST PUSH1 0x0 PUSH2 0x46AE PUSH1 0x19 DUP4 PUSH2 0x4228 JUMP JUMPDEST SWAP2 POP PUSH2 0x46B9 DUP3 PUSH2 0x4678 JUMP JUMPDEST PUSH1 0x19 DUP3 ADD SWAP1 POP SWAP2 SWAP1 POP JUMP JUMPDEST PUSH1 0x0 PUSH2 0x46CF DUP3 PUSH2 0x46A1 JUMP JUMPDEST SWAP2 POP PUSH2 0x46DB DUP3 DUP5 PUSH2 0x427F JUMP JUMPDEST SWAP2 POP DUP2 SWAP1 POP SWAP3 SWAP2 POP POP JUMP JUMPDEST PUSH1 0x0 PUSH2 0x46F2 DUP3 DUP5 PUSH2 0x427F JUMP JUMPDEST SWAP2 POP DUP2 SWAP1 POP SWAP3 SWAP2 POP POP JUMP JUMPDEST PUSH32 0x526F6C6520686173206265656E20616464656400000000000000000000000000 PUSH1 0x0 DUP3 ADD MSTORE POP JUMP JUMPDEST PUSH1 0x0 PUSH2 0x4733 PUSH1 0x13 DUP4 PUSH2 0x3BC6 JUMP JUMPDEST SWAP2 POP PUSH2 0x473E DUP3 PUSH2 0x46FD JUMP JUMPDEST PUSH1 0x20 DUP3 ADD SWAP1 POP SWAP2 SWAP1 POP JUMP JUMPDEST PUSH1 0x0 PUSH1 0x60 DUP3 ADD SWAP1 POP DUP2 DUP2 SUB PUSH1 0x0 DUP4 ADD MSTORE PUSH2 0x4762 DUP2 PUSH2 0x4726 JUMP JUMPDEST SWAP1 POP DUP2 DUP2 SUB PUSH1 0x20 DUP4 ADD MSTORE PUSH2 0x4776 DUP2 DUP6 PUSH2 0x3C12 JUMP JUMPDEST SWAP1 POP PUSH2 0x4785 PUSH1 0x40 DUP4 ADD DUP5 PUSH2 0x3D8B JUMP JUMPDEST SWAP4 SWAP3 POP POP POP JUMP JUMPDEST PUSH32 0x43616C6C6572206973206E6F74206F776E657220000000000000000000000000 PUSH1 0x0 DUP3 ADD MSTORE POP JUMP JUMPDEST PUSH1 0x0 PUSH2 0x47C2 PUSH1 0x14 DUP4 PUSH2 0x4228 JUMP JUMPDEST SWAP2 POP PUSH2 0x47CD DUP3 PUSH2 0x478C JUMP JUMPDEST PUSH1 0x14 DUP3 ADD SWAP1 POP SWAP2 SWAP1 POP JUMP JUMPDEST PUSH1 0x0 PUSH2 0x47E3 DUP3 PUSH2 0x47B5 JUMP JUMPDEST SWAP2 POP PUSH2 0x47EF DUP3 DUP5 PUSH2 0x427F JUMP JUMPDEST SWAP2 POP DUP2 SWAP1 POP SWAP3 SWAP2 POP POP JUMP JUMPDEST PUSH32 0x416464726573732064656C657465640000000000000000000000000000000000 PUSH1 0x0 DUP3 ADD MSTORE POP JUMP JUMPDEST PUSH1 0x0 PUSH2 0x4830 PUSH1 0xF DUP4 PUSH2 0x3BC6 JUMP JUMPDEST SWAP2 POP PUSH2 0x483B DUP3 PUSH2 0x47FA JUMP JUMPDEST PUSH1 0x20 DUP3 ADD SWAP1 POP SWAP2 SWAP1 POP JUMP JUMPDEST PUSH1 0x0 PUSH1 0x40 DUP3 ADD SWAP1 POP DUP2 DUP2 SUB PUSH1 0x0 DUP4 ADD MSTORE PUSH2 0x485F DUP2 PUSH2 0x4823 JUMP JUMPDEST SWAP1 POP PUSH2 0x486E PUSH1 0x20 DUP4 ADD DUP5 PUSH2 0x3D8B JUMP JUMPDEST SWAP3 SWAP2 POP POP JUMP JUMPDEST PUSH1 0x0 DUP2 SLOAD PUSH2 0x4881 DUP2 PUSH2 0x40BF JUMP JUMPDEST PUSH2 0x488B DUP2 DUP7 PUSH2 0x4228 JUMP JUMPDEST SWAP5 POP PUSH1 0x1 DUP3 AND PUSH1 0x0 DUP2 EQ PUSH2 0x48A6 JUMPI PUSH1 0x1 DUP2 EQ PUSH2 0x48BB JUMPI PUSH2 0x48EE JUMP JUMPDEST PUSH1 0xFF NOT DUP4 AND DUP7 MSTORE DUP2 ISZERO ISZERO DUP3 MUL DUP7 ADD SWAP4 POP PUSH2 0x48EE JUMP JUMPDEST PUSH2 0x48C4 DUP6 PUSH2 0x42D2 JUMP JUMPDEST PUSH1 0x0 JUMPDEST DUP4 DUP2 LT ISZERO PUSH2 0x48E6 JUMPI DUP2 SLOAD DUP2 DUP10 ADD MSTORE PUSH1 0x1 DUP3 ADD SWAP2 POP PUSH1 0x20 DUP2 ADD SWAP1 POP PUSH2 0x48C7 JUMP JUMPDEST DUP4 DUP9 ADD SWAP6 POP POP POP JUMPDEST POP POP POP SWAP3 SWAP2 POP POP JUMP JUMPDEST PUSH32 0x2000000000000000000000000000000000000000000000000000000000000000 PUSH1 0x0 DUP3 ADD MSTORE POP JUMP JUMPDEST PUSH1 0x0 PUSH2 0x492D PUSH1 0x1 DUP4 PUSH2 0x4228 JUMP JUMPDEST SWAP2 POP PUSH2 0x4938 DUP3 PUSH2 0x48F7 JUMP JUMPDEST PUSH1 0x1 DUP3 ADD SWAP1 POP SWAP2 SWAP1 POP JUMP JUMPDEST PUSH1 0x0 PUSH2 0x494F DUP3 DUP6 PUSH2 0x427F JUMP JUMPDEST SWAP2 POP PUSH2 0x495B DUP3 DUP5 PUSH2 0x4874 JUMP JUMPDEST SWAP2 POP PUSH2 0x4966 DUP3 PUSH2 0x4920 JUMP JUMPDEST SWAP2 POP DUP2 SWAP1 POP SWAP4 SWAP3 POP POP POP JUMP JUMPDEST PUSH1 0x0 PUSH2 0x497E DUP3 DUP6 PUSH2 0x427F JUMP JUMPDEST SWAP2 POP PUSH2 0x498A DUP3 DUP5 PUSH2 0x427F JUMP JUMPDEST SWAP2 POP PUSH2 0x4995 DUP3 PUSH2 0x4920 JUMP JUMPDEST SWAP2 POP DUP2 SWAP1 POP SWAP4 SWAP3 POP POP POP JUMP JUMPDEST PUSH1 0x0 PUSH1 0x40 DUP3 ADD SWAP1 POP DUP2 DUP2 SUB PUSH1 0x0 DUP4 ADD MSTORE PUSH2 0x49BB DUP2 DUP6 PUSH2 0x3C12 JUMP JUMPDEST SWAP1 POP DUP2 DUP2 SUB PUSH1 0x20 DUP4 ADD MSTORE PUSH2 0x49CF DUP2 DUP5 PUSH2 0x3C12 JUMP JUMPDEST SWAP1 POP SWAP4 SWAP3 POP POP POP JUMP JUMPDEST PUSH32 0x3B00000000000000000000000000000000000000000000000000000000000000 PUSH1 0x0 DUP3 ADD MSTORE POP JUMP JUMPDEST PUSH1 0x0 PUSH2 0x4A0E PUSH1 0x1 DUP4 PUSH2 0x4228 JUMP JUMPDEST SWAP2 POP PUSH2 0x4A19 DUP3 PUSH2 0x49D8 JUMP JUMPDEST PUSH1 0x1 DUP3 ADD SWAP1 POP SWAP2 SWAP1 POP JUMP JUMPDEST PUSH1 0x0 PUSH2 0x4A30 DUP3 DUP6 PUSH2 0x427F JUMP JUMPDEST SWAP2 POP PUSH2 0x4A3C DUP3 DUP5 PUSH2 0x427F JUMP JUMPDEST SWAP2 POP PUSH2 0x4A47 DUP3 PUSH2 0x4A01 JUMP JUMPDEST SWAP2 POP DUP2 SWAP1 POP SWAP4 SWAP3 POP POP POP JUMP JUMPDEST PUSH32 0x45524332303A2064656372656173656420616C6C6F77616E63652062656C6F77 PUSH1 0x0 DUP3 ADD MSTORE PUSH32 0x207A65726F000000000000000000000000000000000000000000000000000000 PUSH1 0x20 DUP3 ADD MSTORE POP JUMP JUMPDEST PUSH1 0x0 PUSH2 0x4AAF PUSH1 0x25 DUP4 PUSH2 0x3BC6 JUMP JUMPDEST SWAP2 POP PUSH2 0x4ABA DUP3 PUSH2 0x4A53 JUMP JUMPDEST PUSH1 0x40 DUP3 ADD SWAP1 POP SWAP2 SWAP1 POP JUMP JUMPDEST PUSH1 0x0 PUSH1 0x20 DUP3 ADD SWAP1 POP DUP2 DUP2 SUB PUSH1 0x0 DUP4 ADD MSTORE PUSH2 0x4ADE DUP2 PUSH2 0x4AA2 JUMP JUMPDEST SWAP1 POP SWAP2 SWAP1 POP JUMP JUMPDEST PUSH32 0x446973747269627574696F6E20616C726561647920696E697465640000000000 PUSH1 0x0 DUP3 ADD MSTORE POP JUMP JUMPDEST PUSH1 0x0 PUSH2 0x4B1B PUSH1 0x1B DUP4 PUSH2 0x3BC6 JUMP JUMPDEST SWAP2 POP PUSH2 0x4B26 DUP3 PUSH2 0x4AE5 JUMP JUMPDEST PUSH1 0x20 DUP3 ADD SWAP1 POP SWAP2 SWAP1 POP JUMP JUMPDEST PUSH1 0x0 PUSH1 0x20 DUP3 ADD SWAP1 POP DUP2 DUP2 SUB PUSH1 0x0 DUP4 ADD MSTORE PUSH2 0x4B4A DUP2 PUSH2 0x4B0E JUMP JUMPDEST SWAP1 POP SWAP2 SWAP1 POP JUMP JUMPDEST PUSH32 0x57616974696E6720666F7220636F6E6669726D6174696F6E0000000000000000 PUSH1 0x0 DUP3 ADD MSTORE POP JUMP JUMPDEST PUSH1 0x0 PUSH2 0x4B87 PUSH1 0x18 DUP4 PUSH2 0x3BC6 JUMP JUMPDEST SWAP2 POP PUSH2 0x4B92 DUP3 PUSH2 0x4B51 JUMP JUMPDEST PUSH1 0x20 DUP3 ADD SWAP1 POP SWAP2 SWAP1 POP JUMP JUMPDEST PUSH1 0x0 PUSH1 0x20 DUP3 ADD SWAP1 POP DUP2 DUP2 SUB PUSH1 0x0 DUP4 ADD MSTORE PUSH2 0x4BB6 DUP2 PUSH2 0x4B7A JUMP JUMPDEST SWAP1 POP SWAP2 SWAP1 POP JUMP JUMPDEST PUSH32 0x446973747269627574696F6E20696E6974696174656400000000000000000000 PUSH1 0x0 DUP3 ADD MSTORE POP JUMP JUMPDEST PUSH1 0x0 PUSH2 0x4BF3 PUSH1 0x16 DUP4 PUSH2 0x3BC6 JUMP JUMPDEST SWAP2 POP PUSH2 0x4BFE DUP3 PUSH2 0x4BBD JUMP JUMPDEST PUSH1 0x20 DUP3 ADD SWAP1 POP SWAP2 SWAP1 POP JUMP JUMPDEST PUSH1 0x0 PUSH1 0x20 DUP3 ADD SWAP1 POP DUP2 DUP2 SUB PUSH1 0x0 DUP4 ADD MSTORE PUSH2 0x4C22 DUP2 PUSH2 0x4BE6 JUMP JUMPDEST SWAP1 POP SWAP2 SWAP1 POP JUMP JUMPDEST PUSH32 0x45524332303A20617070726F76652066726F6D20746865207A65726F20616464 PUSH1 0x0 DUP3 ADD MSTORE PUSH32 0x7265737300000000000000000000000000000000000000000000000000000000 PUSH1 0x20 DUP3 ADD MSTORE POP JUMP JUMPDEST PUSH1 0x0 PUSH2 0x4C85 PUSH1 0x24 DUP4 PUSH2 0x3BC6 JUMP JUMPDEST SWAP2 POP PUSH2 0x4C90 DUP3 PUSH2 0x4C29 JUMP JUMPDEST PUSH1 0x40 DUP3 ADD SWAP1 POP SWAP2 SWAP1 POP JUMP JUMPDEST PUSH1 0x0 PUSH1 0x20 DUP3 ADD SWAP1 POP DUP2 DUP2 SUB PUSH1 0x0 DUP4 ADD MSTORE PUSH2 0x4CB4 DUP2 PUSH2 0x4C78 JUMP JUMPDEST SWAP1 POP SWAP2 SWAP1 POP JUMP JUMPDEST PUSH32 0x45524332303A20617070726F766520746F20746865207A65726F206164647265 PUSH1 0x0 DUP3 ADD MSTORE PUSH32 0x7373000000000000000000000000000000000000000000000000000000000000 PUSH1 0x20 DUP3 ADD MSTORE POP JUMP JUMPDEST PUSH1 0x0 PUSH2 0x4D17 PUSH1 0x22 DUP4 PUSH2 0x3BC6 JUMP JUMPDEST SWAP2 POP PUSH2 0x4D22 DUP3 PUSH2 0x4CBB JUMP JUMPDEST PUSH1 0x40 DUP3 ADD SWAP1 POP SWAP2 SWAP1 POP JUMP JUMPDEST PUSH1 0x0 PUSH1 0x20 DUP3 ADD SWAP1 POP DUP2 DUP2 SUB PUSH1 0x0 DUP4 ADD MSTORE PUSH2 0x4D46 DUP2 PUSH2 0x4D0A JUMP JUMPDEST SWAP1 POP SWAP2 SWAP1 POP JUMP JUMPDEST PUSH32 0x45524332303A207472616E736665722066726F6D20746865207A65726F206164 PUSH1 0x0 DUP3 ADD MSTORE PUSH32 0x6472657373000000000000000000000000000000000000000000000000000000 PUSH1 0x20 DUP3 ADD MSTORE POP JUMP JUMPDEST PUSH1 0x0 PUSH2 0x4DA9 PUSH1 0x25 DUP4 PUSH2 0x3BC6 JUMP JUMPDEST SWAP2 POP PUSH2 0x4DB4 DUP3 PUSH2 0x4D4D JUMP JUMPDEST PUSH1 0x40 DUP3 ADD SWAP1 POP SWAP2 SWAP1 POP JUMP JUMPDEST PUSH1 0x0 PUSH1 0x20 DUP3 ADD SWAP1 POP DUP2 DUP2 SUB PUSH1 0x0 DUP4 ADD MSTORE PUSH2 0x4DD8 DUP2 PUSH2 0x4D9C JUMP JUMPDEST SWAP1 POP SWAP2 SWAP1 POP JUMP JUMPDEST PUSH32 0x45524332303A207472616E7366657220746F20746865207A65726F2061646472 PUSH1 0x0 DUP3 ADD MSTORE PUSH32 0x6573730000000000000000000000000000000000000000000000000000000000 PUSH1 0x20 DUP3 ADD MSTORE POP JUMP JUMPDEST PUSH1 0x0 PUSH2 0x4E3B PUSH1 0x23 DUP4 PUSH2 0x3BC6 JUMP JUMPDEST SWAP2 POP PUSH2 0x4E46 DUP3 PUSH2 0x4DDF JUMP JUMPDEST PUSH1 0x40 DUP3 ADD SWAP1 POP SWAP2 SWAP1 POP JUMP JUMPDEST PUSH1 0x0 PUSH1 0x20 DUP3 ADD SWAP1 POP DUP2 DUP2 SUB PUSH1 0x0 DUP4 ADD MSTORE PUSH2 0x4E6A DUP2 PUSH2 0x4E2E JUMP JUMPDEST SWAP1 POP SWAP2 SWAP1 POP JUMP JUMPDEST PUSH32 0x45524332303A207472616E7366657220616D6F756E7420657863656564732062 PUSH1 0x0 DUP3 ADD MSTORE PUSH32 0x616C616E63650000000000000000000000000000000000000000000000000000 PUSH1 0x20 DUP3 ADD MSTORE POP JUMP JUMPDEST PUSH1 0x0 PUSH2 0x4ECD PUSH1 0x26 DUP4 PUSH2 0x3BC6 JUMP JUMPDEST SWAP2 POP PUSH2 0x4ED8 DUP3 PUSH2 0x4E71 JUMP JUMPDEST PUSH1 0x40 DUP3 ADD SWAP1 POP SWAP2 SWAP1 POP JUMP JUMPDEST PUSH1 0x0 PUSH1 0x20 DUP3 ADD SWAP1 POP DUP2 DUP2 SUB PUSH1 0x0 DUP4 ADD MSTORE PUSH2 0x4EFC DUP2 PUSH2 0x4EC0 JUMP JUMPDEST SWAP1 POP SWAP2 SWAP1 POP JUMP JUMPDEST PUSH1 0x0 PUSH2 0x4F0E DUP3 PUSH2 0x3CDF JUMP JUMPDEST SWAP2 POP PUSH2 0x4F19 DUP4 PUSH2 0x3CDF JUMP JUMPDEST SWAP3 POP DUP3 DUP3 SUB SWAP1 POP DUP2 DUP2 GT ISZERO PUSH2 0x4F31 JUMPI PUSH2 0x4F30 PUSH2 0x411F JUMP JUMPDEST JUMPDEST SWAP3 SWAP2 POP POP JUMP JUMPDEST PUSH1 0x0 PUSH2 0x4F42 DUP3 PUSH2 0x3CDF JUMP JUMPDEST SWAP2 POP PUSH2 0x4F4D DUP4 PUSH2 0x3CDF JUMP JUMPDEST SWAP3 POP DUP3 DUP3 MUL PUSH2 0x4F5B DUP2 PUSH2 0x3CDF JUMP JUMPDEST SWAP2 POP DUP3 DUP3 DIV DUP5 EQ DUP4 ISZERO OR PUSH2 0x4F72 JUMPI PUSH2 0x4F71 PUSH2 0x411F JUMP JUMPDEST JUMPDEST POP SWAP3 SWAP2 POP POP JUMP JUMPDEST PUSH1 0x0 DUP2 PUSH1 0x1 SHR SWAP1 POP SWAP2 SWAP1 POP JUMP JUMPDEST PUSH1 0x0 DUP1 DUP3 SWAP2 POP DUP4 SWAP1 POP JUMPDEST PUSH1 0x1 DUP6 GT ISZERO PUSH2 0x4FD0 JUMPI DUP1 DUP7 DIV DUP2 GT ISZERO PUSH2 0x4FAC JUMPI PUSH2 0x4FAB PUSH2 0x411F JUMP JUMPDEST JUMPDEST PUSH1 0x1 DUP6 AND ISZERO PUSH2 0x4FBB JUMPI DUP1 DUP3 MUL SWAP2 POP JUMPDEST DUP1 DUP2 MUL SWAP1 POP PUSH2 0x4FC9 DUP6 PUSH2 0x4F79 JUMP JUMPDEST SWAP5 POP PUSH2 0x4F90 JUMP JUMPDEST SWAP5 POP SWAP5 SWAP3 POP POP POP JUMP JUMPDEST PUSH1 0x0 DUP3 PUSH2 0x4FE9 JUMPI PUSH1 0x1 SWAP1 POP PUSH2 0x50A5 JUMP JUMPDEST DUP2 PUSH2 0x4FF7 JUMPI PUSH1 0x0 SWAP1 POP PUSH2 0x50A5 JUMP JUMPDEST DUP2 PUSH1 0x1 DUP2 EQ PUSH2 0x500D JUMPI PUSH1 0x2 DUP2 EQ PUSH2 0x5017 JUMPI PUSH2 0x5046 JUMP JUMPDEST PUSH1 0x1 SWAP2 POP POP PUSH2 0x50A5 JUMP JUMPDEST PUSH1 0xFF DUP5 GT ISZERO PUSH2 0x5029 JUMPI PUSH2 0x5028 PUSH2 0x411F JUMP JUMPDEST JUMPDEST DUP4 PUSH1 0x2 EXP SWAP2 POP DUP5 DUP3 GT ISZERO PUSH2 0x5040 JUMPI PUSH2 0x503F PUSH2 0x411F JUMP JUMPDEST JUMPDEST POP PUSH2 0x50A5 JUMP JUMPDEST POP PUSH1 0x20 DUP4 LT PUSH2 0x133 DUP4 LT AND PUSH1 0x4E DUP5 LT PUSH1 0xB DUP5 LT AND OR ISZERO PUSH2 0x507B JUMPI DUP3 DUP3 EXP SWAP1 POP DUP4 DUP2 GT ISZERO PUSH2 0x5076 JUMPI PUSH2 0x5075 PUSH2 0x411F JUMP JUMPDEST JUMPDEST PUSH2 0x50A5 JUMP JUMPDEST PUSH2 0x5088 DUP5 DUP5 DUP5 PUSH1 0x1 PUSH2 0x4F86 JUMP JUMPDEST SWAP3 POP SWAP1 POP DUP2 DUP5 DIV DUP2 GT ISZERO PUSH2 0x509F JUMPI PUSH2 0x509E PUSH2 0x411F JUMP JUMPDEST JUMPDEST DUP2 DUP2 MUL SWAP1 POP JUMPDEST SWAP4 SWAP3 POP POP POP JUMP JUMPDEST PUSH1 0x0 PUSH2 0x50B7 DUP3 PUSH2 0x3CDF JUMP JUMPDEST SWAP2 POP PUSH2 0x50C2 DUP4 PUSH2 0x3CDF JUMP JUMPDEST SWAP3 POP PUSH2 0x50EF PUSH32 0xFFFFFFFFFFFFFFFFFFFFFFFFFFFFFFFFFFFFFFFFFFFFFFFFFFFFFFFFFFFFFFFF DUP5 DUP5 PUSH2 0x4FD9 JUMP JUMPDEST SWAP1 POP SWAP3 SWAP2 POP POP JUMP JUMPDEST PUSH32 0x4E487B7100000000000000000000000000000000000000000000000000000000 PUSH1 0x0 MSTORE PUSH1 0x12 PUSH1 0x4 MSTORE PUSH1 0x24 PUSH1 0x0 REVERT JUMPDEST PUSH1 0x0 PUSH2 0x5131 DUP3 PUSH2 0x3CDF JUMP JUMPDEST SWAP2 POP PUSH2 0x513C DUP4 PUSH2 0x3CDF JUMP JUMPDEST SWAP3 POP DUP3 PUSH2 0x514C JUMPI PUSH2 0x514B PUSH2 0x50F7 JUMP JUMPDEST JUMPDEST DUP3 DUP3 DIV SWAP1 POP SWAP3 SWAP2 POP POP JUMP JUMPDEST PUSH1 0x0 PUSH2 0x5162 DUP3 PUSH2 0x3E5F JUMP JUMPDEST SWAP2 POP PUSH2 0x516D DUP4 PUSH2 0x3E5F JUMP JUMPDEST SWAP3 POP DUP3 PUSH2 0x517D JUMPI PUSH2 0x517C PUSH2 0x50F7 JUMP JUMPDEST JUMPDEST DUP3 DUP3 DIV SWAP1 POP SWAP3 SWAP2 POP POP JUMP JUMPDEST PUSH1 0x0 PUSH2 0x5193 DUP3 PUSH2 0x3E5F JUMP JUMPDEST SWAP2 POP PUSH2 0x519E DUP4 PUSH2 0x3E5F JUMP JUMPDEST SWAP3 POP DUP3 DUP3 MUL PUSH2 0x51AC DUP2 PUSH2 0x3E5F JUMP JUMPDEST SWAP2 POP DUP1 DUP3 EQ PUSH2 0x51BE JUMPI PUSH2 0x51BD PUSH2 0x411F JUMP JUMPDEST JUMPDEST POP SWAP3 SWAP2 POP POP JUMP JUMPDEST PUSH1 0x0 PUSH2 0x51D0 DUP3 PUSH2 0x3E5F JUMP JUMPDEST SWAP2 POP PUSH2 0x51DB DUP4 PUSH2 0x3E5F JUMP JUMPDEST SWAP3 POP DUP3 DUP3 SUB SWAP1 POP PUSH1 0xFF DUP2 GT ISZERO PUSH2 0x51F4 JUMPI PUSH2 0x51F3 PUSH2 0x411F JUMP JUMPDEST JUMPDEST SWAP3 SWAP2 POP POP JUMP JUMPDEST PUSH32 0x3078000000000000000000000000000000000000000000000000000000000000 PUSH1 0x0 DUP3 ADD MSTORE POP JUMP JUMPDEST PUSH1 0x0 PUSH2 0x5230 PUSH1 0x2 DUP4 PUSH2 0x4228 JUMP JUMPDEST SWAP2 POP PUSH2 0x523B DUP3 PUSH2 0x51FA JUMP JUMPDEST PUSH1 0x2 DUP3 ADD SWAP1 POP SWAP2 SWAP1 POP JUMP JUMPDEST PUSH1 0x0 DUP2 MLOAD SWAP1 POP SWAP2 SWAP1 POP JUMP JUMPDEST PUSH1 0x0 DUP2 SWAP1 POP SWAP3 SWAP2 POP POP JUMP JUMPDEST PUSH1 0x0 PUSH2 0x5267 DUP3 PUSH2 0x5246 JUMP JUMPDEST PUSH2 0x5271 DUP2 DUP6 PUSH2 0x5251 JUMP JUMPDEST SWAP4 POP PUSH2 0x5281 DUP2 DUP6 PUSH1 0x20 DUP7 ADD PUSH2 0x3BD7 JUMP JUMPDEST DUP1 DUP5 ADD SWAP2 POP POP SWAP3 SWAP2 POP POP JUMP JUMPDEST PUSH1 0x0 PUSH2 0x5298 DUP3 PUSH2 0x5223 JUMP JUMPDEST SWAP2 POP PUSH2 0x52A4 DUP3 DUP5 PUSH2 0x525C JUMP JUMPDEST SWAP2 POP DUP2 SWAP1 POP SWAP3 SWAP2 POP POP JUMP JUMPDEST PUSH1 0x0 PUSH2 0x52BA DUP3 PUSH2 0x3E5F JUMP JUMPDEST SWAP2 POP PUSH2 0x52C5 DUP4 PUSH2 0x3E5F JUMP JUMPDEST SWAP3 POP DUP3 DUP3 ADD SWAP1 POP PUSH1 0xFF DUP2 GT ISZERO PUSH2 0x52DE JUMPI PUSH2 0x52DD PUSH2 0x411F JUMP JUMPDEST JUMPDEST SWAP3 SWAP2 POP POP JUMP INVALID LOG2 PUSH5 0x6970667358 0x22 SLT KECCAK256 ADDRESS DUP15 0xBA 0xC7 SWAP9 0xD0 0xAE DUP6 0xC5 MSIZE PUSH31 0xC119B492110BCF8081FEBCCDE05FD8AFE2CA87517A64736F6C634300081200 CALLER "
		},
		"gasEstimates": {
			"creation": {
				"codeDepositCost": "4254800",
				"executionCost": "infinite",
				"totalCost": "infinite"
			},
			"external": {
				"addAddress(address)": "infinite",
				"addRole(string,address)": "infinite",
				"advAddress()": "2603",
				"allowance(address,address)": "infinite",
				"approve(address,uint256)": "infinite",
				"balanceOf(address)": "2887",
				"checkSuperOwner()": "4748",
				"decimals()": "477",
				"decreaseAllowance(address,uint256)": "infinite",
				"deleteAddress(address)": "infinite",
				"deleteRole(string,address)": "infinite",
				"dev1Address()": "2646",
				"dev2Address()": "2560",
				"getDistributionStatus()": "infinite",
				"getWaitingConfirmationsList()": "infinite",
				"hasOwner(address)": "infinite",
				"hasRole(string,address)": "infinite",
				"increaseAllowance(address,uint256)": "infinite",
				"liq1Address()": "2626",
				"liq2Address()": "2624",
				"marketing1Address()": "2626",
				"marketing2Address()": "2605",
				"name()": "infinite",
				"privAddress()": "2581",
				"publicSaleAddress()": "2603",
				"showRoles()": "infinite",
				"startDistribution()": "infinite",
				"symbol()": "infinite",
				"team1Address()": "2559",
				"team2Address()": "2581",
				"totalSupply()": "2550",
				"trainEarn1Address()": "2580",
				"trainEarn2Address()": "2626",
				"trainEarn3Address()": "2581",
				"transfer(address,uint256)": "infinite",
				"transferFrom(address,address,uint256)": "infinite"
			}
		},
		"methodIdentifiers": {
			"addAddress(address)": "38eada1c",
			"addRole(string,address)": "6735b3a7",
			"advAddress()": "5b9de1d3",
			"allowance(address,address)": "dd62ed3e",
			"approve(address,uint256)": "095ea7b3",
			"balanceOf(address)": "70a08231",
			"checkSuperOwner()": "3891786b",
			"decimals()": "313ce567",
			"decreaseAllowance(address,uint256)": "a457c2d7",
			"deleteAddress(address)": "742887ff",
			"deleteRole(string,address)": "c8bbe68d",
			"dev1Address()": "fff5982b",
			"dev2Address()": "20c09e24",
			"getDistributionStatus()": "a1b140b6",
			"getWaitingConfirmationsList()": "9eae005f",
			"hasOwner(address)": "230b3790",
			"hasRole(string,address)": "6c9cd097",
			"increaseAllowance(address,uint256)": "39509351",
			"liq1Address()": "25c722bb",
			"liq2Address()": "ea4f74d7",
			"marketing1Address()": "3da3364d",
			"marketing2Address()": "10069f3e",
			"name()": "06fdde03",
			"privAddress()": "a94beee2",
			"publicSaleAddress()": "c4215398",
			"showRoles()": "8a190c01",
			"startDistribution()": "d83623dd",
			"symbol()": "95d89b41",
			"team1Address()": "4811c070",
			"team2Address()": "973ea9d5",
			"totalSupply()": "18160ddd",
			"trainEarn1Address()": "dab950a7",
			"trainEarn2Address()": "8db351d9",
			"trainEarn3Address()": "5652e6ca",
			"transfer(address,uint256)": "a9059cbb",
			"transferFrom(address,address,uint256)": "23b872dd"
		}
	},
	"abi": [
		{
			"inputs": [],
			"stateMutability": "nonpayable",
			"type": "constructor"
		},
		{
			"anonymous": false,
			"inputs": [
				{
					"indexed": false,
					"internalType": "string",
					"name": "_txt",
					"type": "string"
				},
				{
					"indexed": false,
					"internalType": "address",
					"name": "_address",
					"type": "address"
				}
			],
			"name": "AddressAdded",
			"type": "event"
		},
		{
			"anonymous": false,
			"inputs": [
				{
					"indexed": false,
					"internalType": "string",
					"name": "_txt",
					"type": "string"
				},
				{
					"indexed": false,
					"internalType": "address",
					"name": "_address",
					"type": "address"
				}
			],
			"name": "AddressDeleted",
			"type": "event"
		},
		{
			"anonymous": false,
			"inputs": [
				{
					"indexed": true,
					"internalType": "address",
					"name": "owner",
					"type": "address"
				},
				{
					"indexed": true,
					"internalType": "address",
					"name": "spender",
					"type": "address"
				},
				{
					"indexed": false,
					"internalType": "uint256",
					"name": "value",
					"type": "uint256"
				}
			],
			"name": "Approval",
			"type": "event"
		},
		{
			"anonymous": false,
			"inputs": [
				{
					"indexed": false,
					"internalType": "string",
					"name": "status",
					"type": "string"
				}
			],
			"name": "DistributionStatus",
			"type": "event"
		},
		{
			"anonymous": false,
			"inputs": [
				{
					"indexed": false,
					"internalType": "string",
					"name": "_address",
					"type": "string"
				},
				{
					"indexed": false,
					"internalType": "string",
					"name": "roles",
					"type": "string"
				}
			],
			"name": "ListRolesForAddress",
			"type": "event"
		},
		{
			"anonymous": false,
			"inputs": [
				{
					"indexed": false,
					"internalType": "string",
					"name": "_txt",
					"type": "string"
				},
				{
					"indexed": false,
					"internalType": "string",
					"name": "role",
					"type": "string"
				},
				{
					"indexed": false,
					"internalType": "address",
					"name": "_address",
					"type": "address"
				}
			],
			"name": "RoleAdded",
			"type": "event"
		},
		{
			"anonymous": false,
			"inputs": [
				{
					"indexed": false,
					"internalType": "string",
					"name": "_txt",
					"type": "string"
				},
				{
					"indexed": false,
					"internalType": "string",
					"name": "role",
					"type": "string"
				},
				{
					"indexed": false,
					"internalType": "address",
					"name": "_address",
					"type": "address"
				}
			],
			"name": "RoleDeleted",
			"type": "event"
		},
		{
			"anonymous": false,
			"inputs": [
				{
					"indexed": true,
					"internalType": "address",
					"name": "from",
					"type": "address"
				},
				{
					"indexed": true,
					"internalType": "address",
					"name": "to",
					"type": "address"
				},
				{
					"indexed": false,
					"internalType": "uint256",
					"name": "value",
					"type": "uint256"
				}
			],
			"name": "Transfer",
			"type": "event"
		},
		{
			"anonymous": false,
			"inputs": [
				{
					"indexed": false,
					"internalType": "string",
					"name": "_txt",
					"type": "string"
				},
				{
					"indexed": false,
					"internalType": "address",
					"name": "_address",
					"type": "address"
				}
			],
			"name": "WaitingForConfirmation",
			"type": "event"
		},
		{
			"inputs": [
				{
					"internalType": "address",
					"name": "_address",
					"type": "address"
				}
			],
			"name": "addAddress",
			"outputs": [],
			"stateMutability": "nonpayable",
			"type": "function"
		},
		{
			"inputs": [
				{
					"internalType": "string",
					"name": "role",
					"type": "string"
				},
				{
					"internalType": "address",
					"name": "_address",
					"type": "address"
				}
			],
			"name": "addRole",
			"outputs": [
				{
					"internalType": "bool",
					"name": "",
					"type": "bool"
				}
			],
			"stateMutability": "nonpayable",
			"type": "function"
		},
		{
			"inputs": [],
			"name": "advAddress",
			"outputs": [
				{
					"internalType": "address",
					"name": "",
					"type": "address"
				}
			],
			"stateMutability": "view",
			"type": "function"
		},
		{
			"inputs": [
				{
					"internalType": "address",
					"name": "owner",
					"type": "address"
				},
				{
					"internalType": "address",
					"name": "spender",
					"type": "address"
				}
			],
			"name": "allowance",
			"outputs": [
				{
					"internalType": "uint256",
					"name": "",
					"type": "uint256"
				}
			],
			"stateMutability": "view",
			"type": "function"
		},
		{
			"inputs": [
				{
					"internalType": "address",
					"name": "spender",
					"type": "address"
				},
				{
					"internalType": "uint256",
					"name": "amount",
					"type": "uint256"
				}
			],
			"name": "approve",
			"outputs": [
				{
					"internalType": "bool",
					"name": "",
					"type": "bool"
				}
			],
			"stateMutability": "nonpayable",
			"type": "function"
		},
		{
			"inputs": [
				{
					"internalType": "address",
					"name": "account",
					"type": "address"
				}
			],
			"name": "balanceOf",
			"outputs": [
				{
					"internalType": "uint256",
					"name": "",
					"type": "uint256"
				}
			],
			"stateMutability": "view",
			"type": "function"
		},
		{
			"inputs": [],
			"name": "checkSuperOwner",
			"outputs": [
				{
					"internalType": "bool",
					"name": "",
					"type": "bool"
				}
			],
			"stateMutability": "view",
			"type": "function"
		},
		{
			"inputs": [],
			"name": "decimals",
			"outputs": [
				{
					"internalType": "uint8",
					"name": "",
					"type": "uint8"
				}
			],
			"stateMutability": "view",
			"type": "function"
		},
		{
			"inputs": [
				{
					"internalType": "address",
					"name": "spender",
					"type": "address"
				},
				{
					"internalType": "uint256",
					"name": "subtractedValue",
					"type": "uint256"
				}
			],
			"name": "decreaseAllowance",
			"outputs": [
				{
					"internalType": "bool",
					"name": "",
					"type": "bool"
				}
			],
			"stateMutability": "nonpayable",
			"type": "function"
		},
		{
			"inputs": [
				{
					"internalType": "address",
					"name": "_address",
					"type": "address"
				}
			],
			"name": "deleteAddress",
			"outputs": [],
			"stateMutability": "nonpayable",
			"type": "function"
		},
		{
			"inputs": [
				{
					"internalType": "string",
					"name": "role",
					"type": "string"
				},
				{
					"internalType": "address",
					"name": "_address",
					"type": "address"
				}
			],
			"name": "deleteRole",
			"outputs": [
				{
					"internalType": "bool",
					"name": "",
					"type": "bool"
				}
			],
			"stateMutability": "nonpayable",
			"type": "function"
		},
		{
			"inputs": [],
			"name": "dev1Address",
			"outputs": [
				{
					"internalType": "address",
					"name": "",
					"type": "address"
				}
			],
			"stateMutability": "view",
			"type": "function"
		},
		{
			"inputs": [],
			"name": "dev2Address",
			"outputs": [
				{
					"internalType": "address",
					"name": "",
					"type": "address"
				}
			],
			"stateMutability": "view",
			"type": "function"
		},
		{
			"inputs": [],
			"name": "getDistributionStatus",
			"outputs": [
				{
					"internalType": "uint256",
					"name": "",
					"type": "uint256"
				},
				{
					"internalType": "address",
					"name": "",
					"type": "address"
				}
			],
			"stateMutability": "view",
			"type": "function"
		},
		{
			"inputs": [],
			"name": "getWaitingConfirmationsList",
			"outputs": [
				{
					"internalType": "string",
					"name": "result",
					"type": "string"
				}
			],
			"stateMutability": "view",
			"type": "function"
		},
		{
			"inputs": [
				{
					"internalType": "address",
					"name": "_address",
					"type": "address"
				}
			],
			"name": "hasOwner",
			"outputs": [
				{
					"internalType": "bool",
					"name": "",
					"type": "bool"
				}
			],
			"stateMutability": "view",
			"type": "function"
		},
		{
			"inputs": [
				{
					"internalType": "string",
					"name": "role",
					"type": "string"
				},
				{
					"internalType": "address",
					"name": "_address",
					"type": "address"
				}
			],
			"name": "hasRole",
			"outputs": [
				{
					"internalType": "bool",
					"name": "",
					"type": "bool"
				}
			],
			"stateMutability": "view",
			"type": "function"
		},
		{
			"inputs": [
				{
					"internalType": "address",
					"name": "spender",
					"type": "address"
				},
				{
					"internalType": "uint256",
					"name": "addedValue",
					"type": "uint256"
				}
			],
			"name": "increaseAllowance",
			"outputs": [
				{
					"internalType": "bool",
					"name": "",
					"type": "bool"
				}
			],
			"stateMutability": "nonpayable",
			"type": "function"
		},
		{
			"inputs": [],
			"name": "liq1Address",
			"outputs": [
				{
					"internalType": "address",
					"name": "",
					"type": "address"
				}
			],
			"stateMutability": "view",
			"type": "function"
		},
		{
			"inputs": [],
			"name": "liq2Address",
			"outputs": [
				{
					"internalType": "address",
					"name": "",
					"type": "address"
				}
			],
			"stateMutability": "view",
			"type": "function"
		},
		{
			"inputs": [],
			"name": "marketing1Address",
			"outputs": [
				{
					"internalType": "address",
					"name": "",
					"type": "address"
				}
			],
			"stateMutability": "view",
			"type": "function"
		},
		{
			"inputs": [],
			"name": "marketing2Address",
			"outputs": [
				{
					"internalType": "address",
					"name": "",
					"type": "address"
				}
			],
			"stateMutability": "view",
			"type": "function"
		},
		{
			"inputs": [],
			"name": "name",
			"outputs": [
				{
					"internalType": "string",
					"name": "",
					"type": "string"
				}
			],
			"stateMutability": "view",
			"type": "function"
		},
		{
			"inputs": [],
			"name": "privAddress",
			"outputs": [
				{
					"internalType": "address",
					"name": "",
					"type": "address"
				}
			],
			"stateMutability": "view",
			"type": "function"
		},
		{
			"inputs": [],
			"name": "publicSaleAddress",
			"outputs": [
				{
					"internalType": "address",
					"name": "",
					"type": "address"
				}
			],
			"stateMutability": "view",
			"type": "function"
		},
		{
			"inputs": [],
			"name": "showRoles",
			"outputs": [],
			"stateMutability": "nonpayable",
			"type": "function"
		},
		{
			"inputs": [],
			"name": "startDistribution",
			"outputs": [],
			"stateMutability": "nonpayable",
			"type": "function"
		},
		{
			"inputs": [],
			"name": "symbol",
			"outputs": [
				{
					"internalType": "string",
					"name": "",
					"type": "string"
				}
			],
			"stateMutability": "view",
			"type": "function"
		},
		{
			"inputs": [],
			"name": "team1Address",
			"outputs": [
				{
					"internalType": "address",
					"name": "",
					"type": "address"
				}
			],
			"stateMutability": "view",
			"type": "function"
		},
		{
			"inputs": [],
			"name": "team2Address",
			"outputs": [
				{
					"internalType": "address",
					"name": "",
					"type": "address"
				}
			],
			"stateMutability": "view",
			"type": "function"
		},
		{
			"inputs": [],
			"name": "totalSupply",
			"outputs": [
				{
					"internalType": "uint256",
					"name": "",
					"type": "uint256"
				}
			],
			"stateMutability": "view",
			"type": "function"
		},
		{
			"inputs": [],
			"name": "trainEarn1Address",
			"outputs": [
				{
					"internalType": "address",
					"name": "",
					"type": "address"
				}
			],
			"stateMutability": "view",
			"type": "function"
		},
		{
			"inputs": [],
			"name": "trainEarn2Address",
			"outputs": [
				{
					"internalType": "address",
					"name": "",
					"type": "address"
				}
			],
			"stateMutability": "view",
			"type": "function"
		},
		{
			"inputs": [],
			"name": "trainEarn3Address",
			"outputs": [
				{
					"internalType": "address",
					"name": "",
					"type": "address"
				}
			],
			"stateMutability": "view",
			"type": "function"
		},
		{
			"inputs": [
				{
					"internalType": "address",
					"name": "recipient",
					"type": "address"
				},
				{
					"internalType": "uint256",
					"name": "amount",
					"type": "uint256"
				}
			],
			"name": "transfer",
			"outputs": [
				{
					"internalType": "bool",
					"name": "",
					"type": "bool"
				}
			],
			"stateMutability": "nonpayable",
			"type": "function"
		},
		{
			"inputs": [
				{
					"internalType": "address",
					"name": "sender",
					"type": "address"
				},
				{
					"internalType": "address",
					"name": "recipient",
					"type": "address"
				},
				{
					"internalType": "uint256",
					"name": "amount",
					"type": "uint256"
				}
			],
			"name": "transferFrom",
			"outputs": [
				{
					"internalType": "bool",
					"name": "",
					"type": "bool"
				}
			],
			"stateMutability": "nonpayable",
			"type": "function"
		}
	]
}